:100000009EC10000CDC10000CBC10000C9C10000ED
:10001000C7C10000C5C10000C3C10000C1C10000CC
:10002000BFC10000BDC10000BBC10000B9C10000DC
:10003000B7C10000B5C10000B3C10000B1C10000EC
:10004000AFC100000C940D4BABC10000A9C1000072
:100050000C943B4BA5C10000A3C100000C94394A8D
:100060009FC100000C94034A0C94D94999C1000027
:1000700097C1000095C1000093C1000091C100002C
:100080000C94DF4A8DC100008BC1000089C10000C3
:1000900087C1000085C1000083C1000081C100004C
:1000A0007FC100007DC100000C94B14A79C10000FD
:1000B00077C1000075C1000073C100000C94834A31
:1000C0006FC100006DC100006BC1000069C100007C
:1000D00067C1000065C1000063C1000061C100008C
:1000E0005FC100004E414E494E495459494E46CDDC
:1000F000CCCC3D0AD7233C17B7D13877CC2B3295DF
:1001000095E6241FB14F0A000020410000C84200BC
:10011000401C4620BCBE4CCA1B0E5AAEC59D740086
:10012000407A10F35A00A0724E18090010A5D4E8C6
:100130000000E87648170000E40B54020000CA9A59
:100140003B000000E1F505000080969800000040AB
:10015000420F000000A086010000001027000000F0
:1001600000E803000000006400000000000A000036
:100170000000000100000000002C76D888DC674FEA
:100180000823DFC1DFAE59E1B1B796E5E3E453C61A
:100190003AE651997696E8E6C28426EB898C9B6212
:1001A000ED407C6FFCEFBC9C9F40F2BAA56FA5F4BC
:1001B00090055A2AF75C936B6CF9676DC11BFCE0E4
:1001C000E40D47FEF520E6B500D0ED902E03009437
:1001D0003577050080841E080000204E0A000000CC
:1001E000C80C333333330F986E12831141EF8D21D6
:1001F00014893BE65516CFFEE6DB18D1844B381B3D
:10020000F77C1D901DA4BBE424203284725E228101
:1002100000C9F124ECA1E53D2700002200250028BB
:10022000002B002E003100340002010000050108FF
:10023000010B01000020002300260029002C002FC4
:100240000032000001000003010601090100000A5C
:100250000B02090C0D0E080703040100000000004A
:10026000000000000000000000000000000000008E
:10027000000000000000000000121110000000004B
:10028000000000000000000000000000000000006E
:1002900000000000002100240027002A002D00306B
:1002A00000330001010000040107010A01010210EE
:1002B0002020080810204010204080020102010880
:1002C0000402010102040810204080804020100830
:1002D0000402018004020180402010080402010889
:1002E00004020101020408102040800102040810E9
:1002F00020408005050505070508080808020202D8
:10030000020A0A08080404040401010101010101B0
:10031000010303030303030303040707070C0C0C87
:100320000C0C0C0C0C02020202060606060606065F
:10033000060B0B0B0B0B0B0B0B00854B0D591124F4
:100340001FBECFEFD1E2DEBFCDBF00E00CBF18E093
:10035000A0E0B2E0E8E1F8EC00E00BBF02C00790DB
:100360000D92A23BB107D9F724E1A2EBB8E001C09E
:100370001D92AF39B207E1F711E0CEE9D1E000E01C
:1003800006C021970109802FFE010E94E662CD3947
:10039000D10780E00807A9F70E94764D0C94FB6313
:1003A0002FCE8E3591050CF046C08B359105A4F407
:1003B0008033910524F58932910574F488319105D3
:1003C0008CF48F30910544F4863091053CF48230F2
:1003D000910514F4892B89F481E008950B97039714
:1003E00060F4FACF823291052CF48F319105A4F795
:1003F0004997F5CF8497029778F380E00895843485
:1004000091055CF48D3391053CF783339105ACF392
:10041000863391050CF3C797E2CF8435910544F4F8
:1004200081359105CCF687549109079730F7D4CFE1
:1004300085559109D4CF8638910504F58338910507
:100440005CF6823791056CF48F3691052CF6853673
:1004500091059CF2883691050CF4BECF895691091E
:10046000BECF8C3791053CF4893791050CF0B4CFA1
:1004700083579109B4CF8D579109B1CF803D910534
:100480008CF48D3C91050CF0A7CF843991053CF498
:10049000813991050CF0A0CF8D589109A0CF895CCE
:1004A00091099DCF8A3D91053CF4873D91050CF063
:1004B00093CF835D910993CF8D5D910990CF9C017E
:1004C000803E910508F048C5FC018827E559FD4F9D
:1004D0008F4F0C94E6624B03580361036A03770362
:1004E0008003AC07AC07AC07AC07AC078D039A03DD
:1004F000A703AC07B403BD03C603D303DC03E503C2
:10050000EE03F7030004AC07090412041B04AC0754
:10051000AC07AC0724042D043604AC07AC073F0439
:100520004C04AC07AC07AC075904660473048004A0
:100530008D0496049F04AC07AC07AC07A804B10473
:10054000BA04AC07C704D404E104AC07AC07AC0799
:10055000EE04FB040805150522052F053C05AC0734
:10056000AC07AC0749055605630570057D05860592
:100570008F05AC07AC07AC07B305C005CD05AC07CC
:10058000DA05E705F405AC07AC07AC0701060A0677
:100590001306AC07AC07AC07AC07AC07AC07AC075D
:1005A0001C0625062E06AC07370640064906AC0792
:1005B000AC07AC0752065F066C06AC0779068606E8
:1005C0009306AC07AC07AC07A006AD06BA06AC07AD
:1005D000C706D006D906AC07AC07AC07E206EB06A7
:1005E000F406AC07AC07AC07AC07AC07AC07AC072C
:1005F000AC07AC07AC07AC079805A105AA05AC078A
:10060000AC07AC07AC07AC07AC07AC07AC07AC0752
:10061000AC07AC07AC07AC07AC07AC07AC07AC0742
:10062000AC07AC07AC07AC07AC07AC07AC07AC0732
:10063000AC07AC07AC07AC07AC07AC07AC07AC0722
:10064000AC07AC07AC07AC07AC07AC07AC07AC0712
:10065000AC07AC07AC07AC07AC07AC07AC07AC0702
:10066000AC07AC07AC07AC07FD0606071307AC07E1
:10067000200729073607AC07AC07AC0743074C0730
:100680005907AC0766076F077C07AC07AC07AC07D8
:10069000890792079F0781E090E0A0E0B0E0809397
:1006A000D7099093D809A093D909B093DA0908958E
:1006B0001092DB091092DC091092DD091092DE091C
:1006C00008951092DF091092E0091092E10910924A
:1006D000E209089581E090E0A0E0B0E08093E309B2
:1006E0009093E409A093E509B093E6090895109268
:1006F000E7091092E8091092E9091092EA090895B1
:1007000083E090E0A0E0B0E08093EB099093EC09E7
:10071000A093ED09B093EE09089588E790E0A0E07A
:10072000B0E08093030A9093040AA093050AB09363
:10073000060A089588E790E0A0E0B0E08093070AF9
:100740009093080AA093090AB0930A0A089588E7CB
:1007500090E0A0E0B0E080930B0A90930C0AA09385
:100760000D0AB0930E0A08951092130A1092140AFB
:100770001092150A1092160A08951092170A1092F4
:10078000180A1092190A10921A0A089581E090E04E
:10079000A0E0B0E080931B0A90931C0AA0931D0A6E
:1007A000B0931E0A089510921F0A1092200A109208
:1007B000210A1092220A08951092230A1092240A04
:1007C0001092250A1092260A08951092270A109274
:1007D000280A1092290A10922A0A089510922B0AC8
:1007E00010922C0A10922D0A10922E0A089510923F
:1007F0002F0A1092300A1092310A1092320A08958C
:100800001092330A1092340A1092350A1092360A66
:10081000089510923B0A10923C0A10923D0A1092E1
:100820003E0A089510923F0A1092400A1092410A1F
:100830001092420A08951092430A1092440A1092AC
:10084000450A1092460A08951092530A1092540ACB
:100850001092550A1092560A08951092570A109253
:10086000580A1092590A10925A0A089510925B0A77
:1008700010925C0A10925D0A10925E0A089581E05F
:1008800090E0A0E0B0E08093670A9093680AA0939C
:10089000690AB0936A0A089581E090E0A0E0B0E0B0
:1008A00080936B0A90936C0AA0936D0AB0936E0AC2
:1008B00008958CE291E0A0E0B0E080937B0A9093F1
:1008C0007C0AA0937D0AB0937E0A08958CE291E0A1
:1008D000A0E0B0E080937F0A9093800AA093810A01
:1008E000B093820A08958CE291E0A0E0B0E080939A
:1008F000830A9093840AA093850AB093860A089588
:100900008CE291E0A0E0B0E08093870A9093880A9F
:10091000A093890AB0938A0A089510928B0A1092C4
:100920008C0A10928D0A10928E0A089510928F0AE6
:100930001092900A1092910A1092920A08951092C1
:10094000930A1092940A1092950A1092960A0895AA
:100950001092A30A1092A40A1092A50A1092A60A55
:1009600008951092A70A1092A80A1092A90A10924C
:10097000AA0A089581E090E0A0E0B0E08093AB0A7D
:100980009093AC0AA093AD0AB093AE0A089585E0A7
:1009900090E0A0E0B0E08093B30A9093B40AA093F3
:1009A000B50AB093B60A089585E090E0A0E0B0E003
:1009B0008093B70A9093B80AA093B90AB093BA0A81
:1009C000089589E190E0A0E0B0E08093BB0A9093A5
:1009D000BC0AA093BD0AB093BE0A089582E390E0DA
:1009E000A0E0B0E08093CB0A9093CC0AA093CD0A0C
:1009F000B093CE0A089582E390E0A0E0B0E0809347
:100A0000CF0A9093D00AA093D10AB093D20A089546
:100A100082E390E0A0E0B0E08093D30A9093D40A00
:100A2000A093D50AB093D60A089582E390E0A0E09F
:100A3000B0E08093D70A9093D80AA093D90AB093D4
:100A4000DA0A089582E390E0A0E0B0E08093DB0A48
:100A50009093DC0AA093DD0AB093DE0A089582E346
:100A600090E0A0E0B0E08093DF0A9093E00AA093CA
:100A7000E10AB093E20A089582E390E0A0E0B0E0DA
:100A80008093E30A9093E40AA093E50AB093E60A00
:100A9000089580E991E0A0E0B0E08093F30A90939C
:100AA000F40AA093F50AB093F60A089580E991E05C
:100AB000A0E0B0E08093F70A9093F80AA093F90AB7
:100AC000B093FA0A089580E991E0A0E0B0E0809345
:100AD000FB0A9093FC0AA093FD0AB093FE0A0895C6
:100AE00080E991E0A0E0B0E08093FF0A9093000BD2
:100AF000A093010BB093020B08951092030B109278
:100B0000040B1092050B1092060B08951092070B20
:100B10001092080B1092090B10920A0B0895109274
:100B20000B0B10920C0B10920D0B10920E0B0895E4
:100B300010921B0C10921C0C10921D0C10921E0C8B
:100B4000089510921F0C1092200C1092210C1092FC
:100B5000220C08951092230C1092240C1092250C54
:100B60001092260C089588E592E0A0E0B0E0809312
:100B70001B0B90931C0BA0931D0BB0931E0B0895A1
:100B800088E592E0A0E0B0E080931F0B9093200BEB
:100B9000A093210BB093220B089588E592E0A0E08A
:100BA000B0E08093230B9093240BA093250BB0937C
:100BB000260B08958EE190E0A0E0B0E080932B0B2F
:100BC00090932C0BA0932D0BB0932E0B08958EE1D8
:100BD00090E0A0E0B0E080932F0B9093300BA093B7
:100BE000310BB093320B08958EE190E0A0E0B0E0BD
:100BF0008093330B9093340BA093350BB093360B4B
:100C000008951092430B1092440B1092450B1092D2
:100C1000460B08951092470B1092480B1092490B07
:100C200010924A0B089510924B0B10924C0B10929D
:100C30004D0B10924E0B089510926B0B10926C0B93
:100C400010926D0B10926E0B089510926F0B109214
:100C5000700B1092710B1092720B08951092730B1F
:100C60001092740B1092750B1092760B08951092DF
:100C70007B0B10927C0B10927D0B10927E0B0895D3
:100C800010927F0B1092800B1092810B1092820BAE
:100C900008951092830B1092840B1092850B109282
:100CA000860B089585E090E0A0E0B0E08093930B80
:100CB0009093940BA093950BB093960B089585E0B9
:100CC00090E0A0E0B0E08093970B9093980BA093F6
:100CD000990BB0939A0B089585E090E0A0E0B0E006
:100CE00080939B0B90939C0BA0939D0BB0939E0BBA
:100CF000089584EB95E1A0E0B0E08093A30B90937E
:100D0000A40BA093A50BB093A60B089584EB95E1DB
:100D1000A0E0B0E08093A70B9093A80BA093A90B41
:100D2000B093AA0B089584EB95E1A0E0B0E0809326
:100D3000AB0B9093AC0BA093AD0BB093AE0B08959F
:100D400085E090E0A0E0B0E08093BB0B9093BC0BFB
:100D5000A093BD0BB093BE0B089585E090E0A0E09A
:100D6000B0E08093BF0B9093C00BA093C10BB093E6
:100D7000C20B089585E090E0A0E0B0E08093C30B43
:100D80009093C40BA093C50BB093C60B089510921B
:100D9000CB0B1092CC0B1092CD0B1092CE0B089572
:100DA0001092CF0B1092D00B1092D10B1092D20B4D
:100DB00008951092D30B1092D40B1092D50B109271
:100DC000D60B08951092E30B1092E40B1092E50BF2
:100DD0001092E60B08951092E70B1092E80B109218
:100DE000E90B1092EA0B08951092EB0B1092EC0BAA
:100DF0001092ED0B1092EE0B08951092FB0C1092D6
:100E0000FC0C1092FD0C1092FE0C08958CE390E007
:100E1000A0E0B0E08093FF0C9093000DA093010D33
:100E2000B093020D089581E090E0A0E0B0E08093DF
:100E3000030D9093040DA093050DB093060D089536
:100E400010920B0D10920C0D10920D0D10920E0DB4
:100E500008958CE390E0A0E0B0E080930F0D9093B4
:100E6000100DA093110DB093120D089581E090E044
:100E7000A0E0B0E08093130D9093140DA093150D96
:100E8000B093160D08951092230D1092240D109218
:100E9000250D1092260D08958CE390E0A0E0B0E0BF
:100EA0008093270D9093280DA093290DB0932A0DC0
:100EB000089581E090E0A0E0B0E080932B0D909346
:100EC0002C0DA0932D0DB0932E0D08951092330D7F
:100ED0001092340D1092350D1092360D08958CE35A
:100EE00090E0A0E0B0E08093370D9093380DA09390
:100EF000390DB0933A0D089581E090E0A0E0B0E0A4
:100F000080933B0D90933C0DA0933D0DB0933E0D0F
:100F1000089510924B0D10924C0D10924D0D1092A1
:100F20004E0D08958CE390E0A0E0B0E080934F0D6B
:100F30009093500DA093510DB093520D089581E000
:100F400090E0A0E0B0E08093530D9093540DA093F7
:100F5000550DB093560D0895220F331F220F331FE6
:100F6000F901E952F64F108211821282138208951C
:100F7000AF92BF92CF92DF92EF92FF920F931F93A7
:100F8000CF93DF936C017B018B01040F151FEB01E5
:100F90005E01AE18BF08C017D10759F06991D6019C
:100FA000ED91FC910190F081E02DC6011995892BFE
:100FB00079F7C501DF91CF911F910F91FF90EF90CD
:100FC000DF90CF90BF90AF900895FC01538D448D7A
:100FD000252F30E0842F90E0821B930B541710F0E4
:100FE000CF96089501970895FC01918D828D9817F1
:100FF00061F0A28DAE0FBF2FB11D5D968C91928DC9
:101000009F5F9F73928F90E008958FEF9FEF0895F9
:10101000FC01918D828D981731F0828DE80FF11DC2
:10102000858D90E008958FEF9FEF0895FC01918DDD
:10103000228D892F90E0805C9F4F821B91098F73D6
:10104000992708958BE59DE0F1DF21E0892B09F4D4
:1010500020E0822F0895FC01A48DA80FB92FB11DA7
:10106000A35ABF4F2C91848D90E001968F739927DE
:10107000848FA689B7892C93A089B1898C918370BC
:1010800080648C93938D848D981306C00288F389B5
:10109000E02D80818F7D80830895EF92FF920F93E2
:1010A0001F93CF93DF93EC0181E0888F9B8D8C8D14
:1010B00098131AC0E889F989808185FF15C09FB708
:1010C000F894EE89FF896083E889F98980818370CB
:1010D000806480839FBF81E090E0DF91CF911F917A
:1010E0000F91FF90EF900895F62E0B8D10E00F5F9B
:1010F0001F4F0F731127E02E8C8D8E110BC00FB672
:1011000007FCFACFE889F989808185FFF5CFCE0108
:10111000A2DFF2CFEB8DEC0FFD2FF11DE35AFF4F55
:10112000F0829FB7F8940B8FEA89FB8980818062F7
:10113000D0CF682F8BE59DE0B0CFCF93DF93EC014C
:10114000888D8823B1F0AA89BB89E889F9898C91B7
:1011500085FD03C0808186FD0CC00FB607FCF7CF6C
:101160008C9185FFF2CF808185FFEDCFCE0173DFBB
:10117000EACFDF91CF91089580E090E0892B21F0B4
:1011800061DF81110E94000080E090E0892B49F02E
:1011900080E090E0892B29F00E94000081110E94DC
:1011A000000080E090E0892B49F080E090E0892BFE
:1011B00029F00E94000081110E94000080E090E070
:1011C000892B49F080E090E0892B29F00E940000F3
:1011D00081110C94000008958150823108F05AC0AA
:1011E000E82FF0E08827E850F74F8F4F0C94E66225
:1011F00018091C090A09100914094A091F092509B7
:1012000029092F09330937093D0941094A094509C7
:101210004B094F09809180008F778093800008955B
:10122000809180008F7DF9CF80918000877FF5CFFE
:1012300084B58F7784BD089584B58F7DFBCF809171
:10124000B0008F778093B00008958091B0008F7DBB
:10125000F9CF809190008F778093900008958091CE
:1012600090008F7DF9CF80919000877FF5CF80919E
:10127000A0008F778093A00008958091A0008F7DBB
:10128000F9CF8091A000877FF5CF809120018F77E3
:10129000809320010895809120018F7DF9CF809166
:1012A0002001877FF5CFCF93DF93282F30E0F9011E
:1012B000E35BFD4F8491F901E355FD4FD491F901B2
:1012C000ED50FD4FC491CC2399F0811185DFEC2FB7
:1012D000F0E0EE0FFF1FED5CFD4FA591B491EC9196
:1012E000ED2381E090E009F480E0DF91CF91089553
:1012F00080E090E0FACF1F93CF93DF93282F30E068
:10130000F901E35BFD4F8491F901E355FD4FD49161
:10131000F901ED50FD4FC491CC23A1F0162F81119E
:101320005BDFEC2FF0E0EE0FFF1FE75EFD4FA591B6
:10133000B4918FB7F894EC91111108C0D095DE23C9
:10134000DC938FBFDF91CF911F910895DE2BF8CFF3
:10135000CF93DF9390E0FC01E355FD4F24918D5036
:101360009D4FFC0184918823C9F090E0880F991F5C
:10137000FC01ED56FD4FA591B491FC01E75EFD4FD8
:10138000C591D49161110DC09FB7F8948C912095AF
:1013900082238C938881282328839FBFDF91CF915C
:1013A0000895623051F49FB7F8943C91822F809554
:1013B00083238C93E8812E2BEFCF8FB7F894EC9199
:1013C0002E2B2C938FBFEACFCF938CB58C608CBD26
:1013D0008CB58F7D8CBD8CB58C7F8CBD8DB58E7F93
:1013E0008DBDCFB7F8948091D609811123C0E8E272
:1013F000F3E08491E2EEF2E09491E82FF0E0EE0F5A
:10140000FF1FED56FD4FA591B491EC91E92319F41E
:1014100061E085E370DF61E085E39ADF8CB5806190
:101420008CBD8CB580648CBD61E084E391DF61E0AC
:1014300083E38EDF8091D6098F5F8093D609CFBF7B
:10144000CF9108958230910538F0880F991F880F49
:10145000991F05970197F1F708953FB7F894809188
:10146000C8089091C908A091CA08B091CB0826B5C8
:10147000A89B05C02F3F19F00196A11DB11D3FBFCC
:10148000BA2FA92F982F8827BC01CD01620F711D9B
:10149000811D911D42E0660F771F881F991F4A9595
:1014A000D1F708958F929F92AF92BF92CF92DF9221
:1014B000EF92FF926B017C01D0DF4B015C01C11404
:1014C000D104E104F104B1F0C8DF681979098A098F
:1014D0009B09683E73408105910588F321E0C21A9B
:1014E000D108E108F10888EE880E83E0981EA11C5F
:1014F000B11CE5CFFF90EF90DF90CF90BF90AF9001
:101500009F908F9008952FB7F8946091C4087091C0
:10151000C5088091C6089091C7082FBF0895CF9243
:10152000DF92EF92FF92CF93DF93EC01603282E083
:101530007807CCF5653B710514F064EB70E08981A8
:1015400028E830E0281B310987FD3395220F331F2F
:10155000220F331F6901330FEE08FF088A8128E547
:1015600032E0281B310987FD3395220F331F220FEC
:10157000331F032E000C440B550B2C193D094E094B
:101580005F09DB0177FF02C0B0E0A0E00E947B6151
:1015900024EB30E040E050E00E945561C20ED31EC3
:1015A000E41EF51EB601E881E03370F5298188E874
:1015B00090E0821B910927FD9395880F991F880F52
:1015C000991F681779077CF02A8188E592E0821BD1
:1015D000910927FD9395880F991F880F991F681708
:1015E00079070CF4CB010297880F991F4FB7F89435
:1015F0002E2F30E0F901EE0FFF1FE20FF31FE8502E
:10160000F24F928381834FBFDF91CF91FF90EF9094
:10161000DF90CF9008951F93CF93DF93EC01162FA7
:101620008881803308F04DC061E0812F91DE888190
:10163000282F30E0F901EE0FFF1FE20FF31FE850F3
:10164000F24F1F736081607C612B608319821A8264
:101650002CE0622F0E94C762829FB001112430E00B
:1016600020E0AB01420F531FFA01EE0FFF1FE40F02
:10167000F51FE850F24F908196FD16C02F5F3F4F47
:101680002C30310571F7813009F51092800082E02D
:10169000809381001092850010928400B19A80910D
:1016A0006F00826080936F00E8818E2F90E0FC01D4
:1016B000EE0FFF1FE80FF91FE850F24F80818064A2
:1016C00080838881DF91CF911F910895823061F4EA
:1016D00010929000809391001092950010929400C7
:1016E00088BB80937100E0CF833069F41092A00032
:1016F00082E08093A1001092A5001092A40089BB03
:1017000080937200D1CF8111CFCF1092200182E05F
:101710008093210110922501109224018ABB8093AD
:101720007300C2CFAF92BF92CF92DF92EF92FF923F
:101730000F931F93CF93DF936B017A01EC01C15498
:10174000D74F28813CE0389F8001399F100D11242C
:10175000A090880EB12C27FF1FC0FB0111821082C0
:1017600088818F5F888388819801280F311D87FDCC
:101770003A95F6012A153B051CF488818C30BCF1A2
:1017800080819181049680349C4908F471C0F601EF
:101790008081918104966EC088819801280F311D47
:1017A00087FD3A952A153B05DCF68881A801480F8C
:1017B000511D87FD5A95FA01EE0FFF1FE40FF51F2B
:1017C000E850F24F808186FFCBCF8881F801E80F87
:1017D000F11D87FDFA95CF01EE0FFF1FE80FF91FEE
:1017E000E850F24F808160E08F7385DDB9CF808152
:1017F00091812881A801420F511D27FD5A959A0118
:10180000FA01EE0FFF1FE20FF31FE850F24F2181A4
:101810003281820F931FF701918380838881980121
:10182000280F311D87FD3A95F901EE0FFF1FE20FDA
:10183000F31FE850F24F808186FF21C08881080F96
:10184000111D87FD1A95F801EE0FFF1FE00FF11F24
:10185000E850F24F808161E08F73DF91CF911F914B
:101860000F91FF90EF90DF90CF90BF90AF9043CD5E
:1018700080E49CE9F701918380838FEF8883DF9177
:10188000CF911F910F91FF90EF90DF90CF90BF907D
:10189000AF900895089508950895EBE0F1E08081F8
:1018A000877F80830895EBE0F1E08081886080830A
:1018B00008958E9808958E9A089514980895149A0C
:1018C000089588980895889A089560E0FC01878DAE
:1018D00012CD60E0FC01818D0ECD61E0FC01878DB1
:1018E0000ACD61E0FC01818D06CDCF93DF93EC0141
:1018F000FC01EF56FF4F1082379781E0808360E054
:10190000898DF9DC8BA19CA1892B29F060E08F8D5A
:10191000DF91CF91F0CCDF91CF910895CF93DF93FA
:10192000EC018FA1C0DC2AA52817190621F48BA58C
:10193000DF91CF91089580E0FBCFCF93DF93EC014F
:101940008DA1B1DC2AA52817190621F48BA5DF91FA
:10195000CF91089580E0FBCFCF93DF93EC018B8D87
:10196000FE01E35BFF4F908161E0911101C060E0F7
:10197000C2DC89A1FE01E25BFF4F9081992331F027
:10198000C15BDF4F988161E0911101C060E0DF91A0
:10199000CF91B1CCCF93DF93EC018B8DFE01E35B54
:1019A000FF4F908160E0911101C061E0A4DC89A14A
:1019B000FE01E25BFF4F9081992331F0C15BDF4F65
:1019C000988160E0911101C061E0DF91CF9193CCEB
:1019D000CF93DF93EC0161E08D8D8DDCFE01E25B46
:1019E000FF4F8081882319F061E08BA184DCC1570F
:1019F000DF4F1882DF91CF910895CF93DF93EC01F1
:101A000060E08D8D78DCFE01E25BFF4F80818823F2
:101A100019F060E08BA16FDCC157DF4F81E0888354
:101A2000DF91CF9108958F929F92AF92BF92CF9204
:101A3000DF92EF92FF920F931F93CF93FC01E65A30
:101A4000FF4F408351836283738334964083518375
:101A50006283738334960083118322833383DC0192
:101A6000AA59BF4FEC925297CC91CC2351F01897C2
:101A70004C91411152C037FF56C010821182128220
:101A80001382DC01AB5ABF4F4D915D916D917C91FA
:101A90001397141615061606170634F514963C917E
:101AA000332311F1C080D180E280F38046015701D9
:101AB000F7FE07C08824992454018C189D08AE08AD
:101AC000BF08481559056A057B0574F4F7FE07C081
:101AD00070956095509541955F4F6F4F7F4F408354
:101AE000518362837383C32FFC01ED58FF4F108233
:101AF00011821282138289579F4F31E0FC0130839B
:101B00008C2FCF911F910F91FF90EF90DF90CF908E
:101B1000BF90AF909F908F900895101611061206F7
:101B200013060CF4AACFC0E0ACCF0F931F93CF9352
:101B3000DF93EC01062F89A581110DC0CE01FDDEDA
:101B4000182FCE01EBDE0111182F812FDF91CF91DD
:101B50001F910F910895CE01E1DE182FCE01EDDE29
:101B6000F2CFCF93DF93EC01FC01ED57FF4F808163
:101B70009181A281B3810196A11DB11D80839183C2
:101B8000A283B3833E9681E08083AE01425A5F4FC9
:101B9000FA0180819181A281B3819E0128573F4F34
:101BA000F9012081222309F440C00196A11DB11D35
:101BB000FA0180839183A283B383FE01EC56FF4F29
:101BC00020813181C901959587958C0F9D1F329792
:101BD0000190F081E02D20FF08C0DC012D913C91A7
:101BE000E20FF31F0190F081E02D19958BA19CA1CC
:101BF000892BF9F0FE01E856FF4F20813181C901A0
:101C0000959587958C0F9D1FCA56DF4FE881F98106
:101C100020FF08C0DC012D913C91E20FF31F0190E1
:101C2000F081E02DDF91CF9119940197A109B109BD
:101C3000BFCFDF91CF9108958F929F92AF92BF92C5
:101C4000CF92DF92EF92FF920F931F93CF93DF9388
:101C5000EC01FC01ED58FF4F60817181828193811D
:101C60000E9427606B017C01FE01E05BFF4F6081F9
:101C70007181828193810E9429609B01AC0160E0A7
:101C800074E284E799E40E9417624B015C01FE0153
:101C9000E158FF4F60817181828193810E942760AA
:101CA0009B01AC01C501B4010E9417624B015C01AC
:101CB0008E0109581F4F20E030E040E05FE30E94B2
:101CC0008860A70196010E94B3610E948462F801B6
:101CD0006083718382839383C558DF4FA50194018C
:101CE000C701B6010E94B3610E9484626883798350
:101CF0008A839B83DF91CF911F910F91FF90EF908B
:101D0000DF90CF90BF90AF909F908F9008950F93EA
:101D10001F93CF93DF93FC01EF56FF4F20812223C7
:101D2000B9F07E97008111812281338138964081FC
:101D3000518162817381041715072607370710F157
:101D4000EC01D3DDCE01DF91CF911F910F9174CFC4
:101D5000FC01E957FF4F20812223A1F074970081F5
:101D60001181228133813496408151816281738156
:101D7000041715072607370728F0DF91CF911F9129
:101D80000F91EFCEDF91CF911F910F910895FC013C
:101D9000E957FF4F2081222361F074978081918160
:101DA000A281B3810196A11DB11D80839183A2837D
:101DB000B38308950F931F93FC01EA59FF4F2081CD
:101DC000211112C03897008111812281338134960C
:101DD00040815181628173810417150726073707F7
:101DE0004CF41F910F91D6CDFC01E45BFF4F208195
:101DF0002111F7CF1F910F91AFCDCF93DF93FC014E
:101E0000DC0116968AE0ED0119928A95E9F781E0E6
:101E1000808B818B138A128A148A158A168A178AF4
:101E2000108E8CE291E0A0E0B0E084A795A7A6A771
:101E3000B7A780AB91ABA2ABB3AB42E350E060E09D
:101E400070E044AB55AB66AB77AB40AF51AF62AF20
:101E500073AF44AF55AF66AF77AFEF01C05CDF4FF4
:101E600088839983AA83BB83249688839983AA83D2
:101E7000BB83DF01A85BBF4F48E750E060E070E044
:101E80004D935D936D937C93139714961C921196CA
:101E90001C9211961C9211961C92119644E650E0E9
:101EA00060E070E04D935D936D937C93139714966F
:101EB0001C9211961D921D921D921C9213971496BE
:101EC0001C9211961D921D921D921C9213971496AE
:101ED0001D921D921D921C92139714961D921D9295
:101EE0001D921C92139714961C9211961D921D928E
:101EF0001D921C92139714961D921D921D921C9276
:101F0000139714961D921D921D921C92139714966E
:101F10001D921D921D921C92139714961D921D9254
:101F20001D921C92139714961D921D921D921C9245
:101F3000139714961D921D921D921C92139714963E
:101F40001D921D921D921C92139714961C9211962D
:101F50001C9211961C9211961C9211961C9211962D
:101F60001C9211961C9211961C9211961C9211961D
:101F70001C9211961C92128E118E148E138E168E38
:101F8000158E10A2178E12A211A214A213A216A2CD
:101F900015A210A617A2119681E79CE011969C93BA
:101FA0008E93129611961C921E9212968DE69CE0CC
:101FB00011969C938E93129611961C921E921296D5
:101FC00089E69CE011969C938E93129611961C9232
:101FD0001E92129685E69CE08D939C93E056FF4FEF
:101FE00011821082DF91CF91089508950895089588
:101FF00008958FEF9FEF0895089508958EBD000016
:102000000DB407FEFDCF8EB50895DF92EF92FF92DB
:102010000F931F93CF93DF93EC01D62E122F032F34
:10202000F42EE52E60E0888566D98D2D8068E6DF88
:1020300089878E2DE3DF8F2DE1DF802FDFDF812F7A
:10204000DDDF61E0888557D98985DF91CF911F91C8
:102050000F91FF90EF90DF900895FF920F931F93E1
:10206000CF93DF93EC01F62E8A01AED960E088852C
:1020700042D98F2DC3DF898780E0C0DF80E0BEDFDB
:1020800080E0BCDF80E0BADF61E0888534D960E0C1
:10209000888531D98F2DB2DF898780E0AFDF90E06E
:1020A000B0E0A0E0BA2FA92F982F8827F8018083ED
:1020B0009183A283B38380E0A1DFF8014081518145
:1020C00062817381482B762F652F542F44274083DC
:1020D00051836283738380E091DFF80140815181F5
:1020E00062817381482B762F652F542F44274083BC
:1020F00051836283738380E081DFF80140815181E5
:1021000062817381482B408351836283738361E0D2
:102110008885F1D88985DF91CF911F910F91FF902C
:102120000895AC014B5E5F4F6FE6FC0180819181A9
:1021300094CF2F923F924F925F927F928F929F9275
:10214000AF92BF92CF92DF92EF92FF920F931F93C5
:10215000CF93DF9300D01F92CDB7DEB76C01762E00
:1021600049015A0117012801AE014F5F5F4F75DF2A
:1021700089819A81AB81BC8188269926AA26BB26B3
:10218000A50194012E2133214023552128273927E9
:102190004A275B27672DC60138DFF60181850F903E
:1021A0000F900F900F90DF91CF911F910F91FF90A3
:1021B000EF90DF90CF90BF90AF909F908F907F90E7
:1021C0005F904F903F902F900895CF93DF93EC0155
:1021D00061E08885BDD861E088858DD8F5D860E05C
:1021E000888589D880E00ADF898780E007DF80E082
:1021F00005DF80E003DF80E001DF61E08885DF91BB
:10220000CF9179C8CF93DF93EC018C818835A9F504
:1022100087ED93E19983888387E094E19B838A83A8
:1022200081E79CE0FE01EE56FF4F9183808332965A
:10223000118210828DE69CE03296918380833296E3
:102240001182108289E69CE03296918380833296D7
:102250001182108285E69CE03296918380833296CB
:102260001182108288819981B0DF8C81883589F450
:102270008A819B81DF91CF91A8CF893529F487EEA0
:1022800093E199838883CCCF8A3551F687EF93E128
:10229000F8CFDF91CF91089508950895CF93DF93FC
:1022A000D0E0C0E0CE010E94D101882319F0CE0118
:1022B0000E945F022196C13ED105A1F7DF91CF9127
:1022C000089508950F931F93CF93DF938B01EA0135
:1022D000AB01415051094433510508F0EBC02230A5
:1022E000310508F0E7C048E3429FF001439FF00D3D
:1022F0001124E80FF91FE60FF71F81E080836C2F90
:10230000232B09F4D3C061E0802F22D8209751F409
:1023100060E0802F0E947B09CE01DF91CF911F9159
:102320000F910895CF3FD10511F461E0BFC0F801CE
:10233000E35BFD4FE491E150E23108F0B2C0F0E020
:102340008827EA55FE4E8F4F0C94E662B811BF11F4
:10235000C411CE11D8115112E211EA11F211FC117F
:10236000061210121F122912511233123D12471277
:1023700084B5806884BDC7BDD0E0C0E0CDCF84B552
:10238000806284BDC8BDF8CF809180008068809352
:102390008000D0938900C0938800EECF80918000A8
:1023A000806280938000D0938B00C0938A00E4CF3A
:1023B00080918000886080938000D0938D00C093CE
:1023C0008C00DACF8091B00080688093B000C09319
:1023D000B300D2CF8091B00080628093B000C093F0
:1023E000B400CACF80919000806880939000D09311
:1023F0009900C0939800C0CF809190008062809334
:102400009000D0939B00C0939A00B6CF809190002B
:10241000886080939000D0939D00C0939C00ACCFC7
:102420008091A00080688093A0008091A0008F7BA5
:102430008093A000D093A900C093A8009DCF809165
:10244000A00080628093A000D093AB00C093AA004C
:1024500093CF8091A00088608093A000D093AD00BE
:10246000C093AC0089CF80912001806880932001C7
:10247000D0932901C09328017FCF809120018062F1
:1024800080932001D0932B01C0932A0175CF8091B6
:102490002001886080932001D0932D01C0932C01EE
:1024A0006BCF60E0C038D1050CF03FCF802F0E9489
:1024B0007B0962CFC1E0D0E02FCF08954F925F92A9
:1024C0006F927F928F929F92AF92BF92CF92DF9244
:1024D000EF92FF920F931F93CF93DF93EC014B0189
:1024E0008A015901CD88DE88EF88F88C26013701F2
:1024F00044245524662481E07822FE01ED57FF4FE5
:10250000608171818281938124E630E040E050E077
:102510000E948161672B682B692BF1F48C859D8566
:102520009F878E878A859B859D878C8788859985DF
:102530009B878A878E819F8199878887F801608130
:102540007181828193810E947F627F836E83F80113
:10255000108211821282138245284628472859F496
:10256000F7FC09C0CC24DD24EE24FEE7FF22CD28B1
:10257000CE28CF2881F020E030E040E85FE3F8018A
:1025800060817181828193810E94B361F8016083CF
:10259000718382839383C25ADF4F88819981AA8194
:1025A000BB81F50180839183A283B3838881998164
:1025B000AA81BB81F401808B918BA28BB38BDF91BD
:1025C000CF911F910F91FF90EF90DF90CF90BF9030
:1025D000AF909F908F907F906F905F904F900895F5
:1025E000CF93DF93EC01FC01EC55FC4F1082EE58C9
:1025F000F1098081811103C0CE014096E9D9FE0125
:10260000E95EFC4F8081811104C0CE018E549F4F42
:10261000DFD9FE01E85EFC4F8081811104C0CE014C
:102620008C5A9E4FD5D964E670E080E090E0DF914F
:10263000CF910C94520A089508958F929F92AF9271
:10264000BF92CF92DF92EF92FF920F931F93CF939F
:10265000DF93EC018B015A016901B7DD85E090E061
:10266000A0E0B0E008301105C1F1B4F487E090E0DB
:10267000A0E0B0E00230110581F186E090E0A0E03A
:10268000B0E00430110549F101301105A1F488E0F2
:1026900090E0A0E0B0E021C083E090E0A0E0B0E0F6
:1026A00000321105D1F05CF484E090E0A0E0B0E0ED
:1026B0000031110591F080E090E0DC010EC082E075
:1026C00090E0A0E0B0E00034110539F081E090E046
:1026D000A0E0B0E00038110571F7582F44273327E8
:1026E0002227E12CF12C00E01FE06CE6CE0121DD79
:1026F000B50190E080E00E94276025ED34E045E3DD
:1027000052E40E94886020E030E04AE754E40E94EE
:10271000176228EB3EE145E05EE30E9488604B01D2
:102720005C0126E636E646EA5EE30E94176220E098
:1027300030E040E85FE30E94B2610E948462603151
:1027400080F42CEE31E548E35EE3C501B4010E945C
:10275000176220E030E040E85FE30E94B2610E942F
:102760008462862F8F71262F30E050E040E0542F96
:10277000432F322F222722273F7144275527282B0A
:1027800060E1CE0142DCE12CF12C8701E39421E0F1
:1027900030E040E050E060E0CE01CBDC1FE0E12E15
:1027A000F12C00E010E023E030E040E050E06CE687
:1027B000CE01BFDC10E7E12EF12C00E010E020E4B8
:1027C00030E040E050E06CE6CE01B3DC10E8E12EF2
:1027D000F12C00E010E020E830E040E050E06CE652
:1027E000CE01A7DCE12C10E8F12E01E010E020E0A2
:1027F00030E041E050E06CE6CE019BDCE12C10E4DF
:10280000F12E00E010E020E030E0A9016CE6CE01FE
:1028100090DC1FE0E12EF12C00E010E021E030E040
:1028200040E050E06CE6CE0184DCE12CF12C870125
:10283000F39420E032E040E050E06CE6CE0179DC39
:10284000E12C10E2F12E00E010E020E030E240E068
:1028500050E06CE6CE016DDC2FEF3FEFA90163E1A4
:10286000CE01D3DB2FEF3FEF4FE050E064E1CE012C
:10287000CCDB20E137E240E050E065E1CE01C5DB92
:10288000E12CF12C08E010E020E030E048E050E0DE
:102890006CE6CE014EDCE12CF12C04E010E020E0EF
:1028A00030E044E050E06CE6CE0143DC1FE0E12E76
:1028B000F12C00E010E028E030E040E050E06CE671
:1028C000CE0137DCE12CF12C8701EA9424E630E0DC
:1028D00040E050E06EE6CE012CDCE12CF12C0FEF55
:1028E00013E020E030E048E050E06EE6CE0121DC6D
:1028F00020E137E240E050E065E1CE0186DB10E206
:10290000E12EF12C00E010E020E230E040E050E069
:1029100060E0CE010EDCE12C18E0F12E00E010E0CA
:1029200020E038E040E050E060E0CE0102DC0D2C19
:10293000000CEE08FF08A60133272227E12CF12C1A
:1029400001E010E06CE6CE01F4DB64E670E080E0CC
:1029500090E0DF91CF911F910F91FF90EF90DF906A
:10296000CF90BF90AF909F908F900C94520ACF92CF
:10297000DF92EF92FF920F931F93CF93DF93EC01BF
:102980007B016A0189019A01AB01B80188819981B3
:1029900054DE8C81883571F49601A701B8018A81D3
:1029A0009B81DF91CF911F910F91FF90EF90DF906E
:1029B000CF9043CEDF91CF911F910F91FF90EF9079
:1029C000DF90CF9008950895089508954F925F92F3
:1029D0006F927F928F929F92AF92BF92CF92DF922F
:1029E000EF92FF92CF93DF93EC016C897D898E8902
:1029F0009F8988889988AA88BB88CE8CDF8C0D2C0B
:102A0000000CEE08FF08603127E27207810591058E
:102A100029F01616170618061906ACF0A70196013C
:102A2000C501B4010E94B862DF91CF91FF90EF9091
:102A3000DF90CF90BF90AF909F908F907F906F90DE
:102A40005F904F9008950E94296020E030E44CE1AF
:102A500056E40E9417622B013C01488E598E6A8E03
:102A60007B8EC501B4010E942960A30192010E94DE
:102A700088604B015C01C701B6010E9429609B017F
:102A8000AC01C501B4010E9488600E947F62CCCF76
:102A9000FC01118210821382128215821482178225
:102AA000168210861186128613861486158616865F
:102AB0001786108A118A128A138A108E118E128E2E
:102AC000138E158E148E178E168E10A211A212A2BE
:102AD00013A214A215A216A217A210A611A612A63E
:102AE00013A614A615A681E090E097A786A780E11B
:102AF00097E2A0E0B0E0848B958BA68BB78B08950E
:102B000008950895089508958091BB089091BC0898
:102B1000892BE1F585E390E00E94AA5AFC0181E04F
:102B200090E0A0E0B0E080839183A283B3838483AC
:102B30009583A683B78380879187A287B3871586FD
:102B4000148616861786108A118A128A138A148AA6
:102B5000158A168A178A108E118E138E128E12A263
:102B600013A214A215A217A216A210A611A612A6AD
:102B700013A614A615A616A617A610AA11AA12AA7D
:102B800013AA14AAF093BC08E093BB088091BB0879
:102B90009091BC080895CF93DF93B6DFEC0185E4F4
:102BA0000E94530921E0892B09F420E02C8FACDF2F
:102BB000EC0184E40E94530921E0892B09F420E010
:102BC0002D8FA2DFEC0183E40E94530921E0892BC1
:102BD00009F420E02E8F98DFEC0182E40E94530973
:102BE00021E0892B09F420E02F8F8EDFEC0181E4B6
:102BF0000E94530921E0892B09F420E028A384DFF7
:102C0000EC0180E40E94530921E0892B09F420E0C3
:102C100029A3DF91CF91089577DFBDCF75DFFC0148
:102C200014AA90E080E008958091B7089091B808C8
:102C3000892B41F481E090E00E94AA5A9093B80851
:102C40008093B7088091B7089091B80808950F93C2
:102C50001F93CF93DF938B01E7DFF801C2A1D3A1CC
:102C6000868D978D8530910529F14CF40497B1F04C
:102C700090E080E0DF91CF911F910F910895863011
:102C8000910511F10B97A1F76BE070E082E99EE0EE
:102C90000E940B0BBE0182E99EE009C064E070E077
:102CA00089E89EE00E940B0BBE0189E89EE00E942D
:102CB0008F0ADECF65E070E08CE89EE00E940B0B8F
:102CC000BE018CE89EE0F3CF66E070E08FE89EE006
:102CD0000E940B0BBE018FE89EE0E9CF8091B50802
:102CE0009091B608892B91F480E790E00E94AA5A4F
:102CF000FC0131969C012B5C3F4F119217AAE21701
:102D0000F307D9F79093B6088093B5088091B5087A
:102D10009091B6080895CF93DF93EB01DFDF6AA9A6
:102D20008E8D0E94A80990E080E0DF91CF910895F8
:102D30004F925F926F927F92AF92BF92CF92DF924B
:102D4000EF92FF920F931F93CF93DF93EB01C6DFB8
:102D50008C01CAA8DBA84EA45FA468A879A8AEA07D
:102D6000BFA0EE8CFF8C4AA15BA19601B701AADA45
:102D7000C301B2010E94520A9601A501B701C80120
:102D8000A1DA90E080E0DF91CF911F910F91FF9049
:102D9000EF90DF90CF90BF90AF907F906F905F905B
:102DA0004F900895CF93DF93EB0198DF2AA93BA9B9
:102DB0004AA15BA16E8D7F8D85DA90E080E0DF9186
:102DC000CF910895FC0101900020E9F73197AF0100
:102DD000481B590BBC018BE59DE00C94B8078F9202
:102DE0009F92AF92BF920F931F93CF93DF93CDB774
:102DF000DEB7A1970FB6F894DEBF0FBECDBF19A204
:102E0000423008F44AE08E010F5D1F4F842E912C52
:102E1000B12CA12CA50194010E948161E62FB9017A
:102E2000CA01EA30ECF4E05DD801EE938D01232B6A
:102E3000242B252B79F790E080E0109711F0CD013D
:102E4000C1DFA1960FB6F894DEBF0FBECDBFDF91F4
:102E5000CF911F910F91BF90AF909F908F90089549
:102E6000E95CE2CFCF92DF92EF92FF92CF93DF93B4
:102E700097FF18C06B017C018DE20E949908EC015C
:102E800066277727CB016C197D098E099F094AE0D7
:102E9000A6DF8C0F9D1FDF91CF91FF90EF90DF9009
:102EA000CF9008954AE0DF91CF91FF90EF90DF90AF
:102EB000CF9095CFBC01990F880B990BD3CF82CFC0
:102EC000882319F08EE098E0FACF87E098E0FCCFF5
:102ED0002F923F924F925F926F927F928F929F922A
:102EE000AF92BF92CF92DF92EF92FF920F931F9318
:102EF000CF93DF9300D000D01F921F92CDB7DEB7E3
:102F00001C01FC01E557FF4F108231961082835758
:102F10009F4FFC011082D101A257BF4F1C923396E4
:102F2000108226013701441A550A660A770A498237
:102F30005A826B827C8277FE0CC0709460945094AD
:102F40004094411C511C611C711C49825A826B8245
:102F50007C824C155D056E057F0534F568017901AD
:102F6000C41AD50AE60AF70A49805A806B807C8029
:102F700075946794579447944D825E826F827886E9
:102F8000810100571F4F49805A806B807C804C1410
:102F90005D046E047F0488F4F10164AC75AC81E0DB
:102FA0008C93F801808327C0B901A8014C195D09F1
:102FB0006E097F096A017B01D7CF4D805E806F80EB
:102FC00078844C145D046E047F0408F4C6C04AA0E3
:102FD0005BA06CA07DA04C145D046E047F040CF01B
:102FE00083C06E8C7F8C2FEF621A720A21E0FC0185
:102FF0002083F8012083F1018489882309F45AC0D1
:103000000E94830AF10102891389012E000C220B10
:10301000330B601B710B820B930B693E7340810570
:10302000910508F447C00E94830AF101738B628BFB
:1030300086E993E044DF8AE993E041DF60E070E0F5
:10304000CB0110DF80EA93E03ADFC701B6010ADF67
:1030500086EA93E034DF69817A818B819C8102DF8B
:103060008CEA93E02CDF4AE06D817E818F81988528
:10307000B6DE83EB93E023DF6AA17BA18CA19DA147
:10308000F1DE89EB93E01BDFC501B401EBDE8FEBD2
:1030900093E015DF6E8D7F8D88A199A1E3DE85EC2D
:1030A00093E00DDF82EB96E00ADFC30103DF82E8E5
:1030B00098E005DFC30128960FB6F894DEBF0FBE77
:1030C000CDBFDF91CF911F910F91FF90EF90DF90D7
:1030D000CF90BF90AF909F908F907F906F905F90B8
:1030E0004F903F902F900895C701B6010E9429602C
:1030F0002B013C016AA17BA18CA19DA10E942960AA
:103100009B01AC01C301B2010E9417622B013C017B
:103110006E8D7F8D88A199A1681979098A099B090B
:103120000E9429609B01AC01C301B2010E9488602A
:103130002B013C01C501B4010E9429609B01AC0137
:10314000C301B2010E94B3610E947F623B0181E032
:10315000F101E557FF4F808324CF89819A81AB81AC
:10316000BC814AA05BA06CA07DA084199509A6092A
:10317000B709C816D906EA06FB0654F46E8C7F8C94
:1031800022E0620E711C81E0F101E357FF4FE3CFB3
:1031900069817A818B819C816C197D098E099F09D7
:1031A0000E9429602B013C016AA17BA18CA19DA1F9
:1031B0000E9429609B01AC01C301B2010E94176209
:1031C0002B013C016E8D7F8D88A199A16819790929
:1031D0008A099B090E9429609B01AC01C301B201CD
:1031E0000E9488602B013C01C501B4010E94296046
:1031F0009B01AC01C301B2010E94B3610E947F62D6
:103200003B0181E0F101E457FF4FA5CF2F923F92A0
:103210004F925F926F927F928F929F92AF92BF92E6
:10322000CF92DF92EF92FF920F931F93CF93DF9392
:10323000EC013C012EE5620E711CD3014D915D91B4
:103240006D917C918C010E591F4FF8018081918105
:10325000A281B3812E01F6E64F0E511CF201F080DF
:103260009E0128573F4F5901B3961F01FF20D1F10E
:103270002C533109F9012081F501208321E0F1016E
:103280002083411551056105710579F42081FE0106
:10329000E158FF4F222309F44DC088AC99ACAAAC89
:1032A000BBAC80829182A282B3825E01FAE5AF0E4E
:1032B000B11CF501C080D180E280F380C816D90628
:1032C000EA06FB06E4F5481759076A077B070CF482
:1032D00041C0D2018C9181113DC0FE01E957FF4FE1
:1032E0001082C1C021E0481759076A077B070CF01C
:1032F00020E0F50120836A017B0177FF07C0CC2421
:10330000DD247601C41AD50AE60AF70A4C015D01EC
:10331000B7FF07C0882499245401881A990AAA0A79
:10332000BB0A21E0C814D904EA04FB040CF0A7CFBF
:1033300020E0A5CF8CA89DA8AEA8BFA8B2CF8C15C1
:103340009D05AE05BF052CF684179507A607B707A0
:103350000CF0BFCFFE01E957FF4F8081882309F4AD
:10336000BCCFF201808181110EC0D2018C918111FC
:10337000B4CFD1016C9181E06827CE010E94950DF8
:103380008111ABCF06C060E0CE010E94950D811186
:10339000ECCFF801C080D180E280F380D3010D91A1
:1033A0001D912D913C91F501408151816281738184
:1033B000D101EC91CE0181589F4F2C01E1112AC01F
:1033C0008CA89DA8AEA8BFA8FE01E05CFF4F83813A
:1033D0008F9382818F9381818F93E081EF93EFA50B
:1033E000EF93EEA5EF93EDA5EF93ECA5EF93CE0150
:1033F0006FDDB0E0A0E0F20180839183A283B3830C
:103400002DB73EB7285F3F4F0FB6F8943EBF0FBEB3
:103410002DBF29C088AC99ACAAACBBACFE01EC5B5B
:10342000FF4F83818F9382818F9381818F93E0817E
:10343000EF93EBA9EF93EAA9EF93E9A9EF93E8A93A
:10344000EF93CE0145DDB0E0A0E0F20180839183EF
:10345000A283B3832DB73EB7285F3F4F0FB6F894D2
:103460003EBF0FBE2DBF60E0CE010E94950D8823A8
:1034700031F0D3011D921D921D921C921397DF9182
:10348000CF911F910F91FF90EF90DF90CF90BF9061
:10349000AF909F908F907F906F905F904F903F90F4
:1034A0002F900895CF93DF93EC018BEC93E007DD31
:1034B0006AA17BA18CA19DA1D5DC82E898E0DF9177
:1034C000CF91FDCC0F931F93CF93DF938C01EB0132
:1034D00088E793E0F4DC82EB96E0F1DCF80184818C
:1034E0000E949908CE01E6DC0FDBDF91CF911F919E
:1034F0000F91D8CFEF92FF920F931F93CF93DF934B
:10350000182F092F7B016115710569F50E94530978
:1035100031E020E0019709F030E0C32FD22F82E0A4
:10352000E816F10408F045C08EEC93E0C8DC82EBAD
:1035300096E0C5DC82ED93E0C2DC812F902FBADCEF
:1035400082EB96E0BCDC81E396E0B9DCCE01B2DC34
:10355000DBDAA8DF90E080E0DF91CF911F910F913F
:10356000FF90EF900895D0E0C0E061307105B9F6AA
:10357000812F163310F08AEC810F20917B00982F59
:103580009870277F922B90937B0087708064809344
:103590007C0080917A00806480937A0080917A0028
:1035A00086FDFCCF80917800C0917900DC2FC82F78
:1035B000B6CF81E090E0D0CF0F931F93CF93DF93EE
:1035C000FC012081318121153105C1F1EC01822FEF
:1035D0000E94530921E0892B09F420E02B876A859A
:1035E000261701F11E821F82188619860E811F81FF
:1035F000288539858A819B81AC81BD81081719078F
:103600002A073B07DCF081E0682788810E947B095C
:1036100065DB70E060E088819981DF91CF911F9137
:103620000F9168CF8E819F81A885B9850196A11DD4
:10363000B11D8E839F83A887B987D8CFDF91CF91A3
:103640001F910F910895CF93DF93EB0147DB6AA998
:103650007BA98E8D9F8D4EDF90E080E0DF91CF9132
:103660000895CF93DF93EC0184ED93E028DC88ED9F
:1036700093E025DC8C8D24DC8CED93E020DC8D8DBB
:103680001FDC80EE93E01BDC8E8D1ADC84EE93E071
:1036900016DC8F8D15DC88EE93E011DC88A110DC40
:1036A0008CEE93E00CDC89A10BDCCE01DF91CF9195
:1036B000F9CE2ADAD6CF80EF93E001DC25DA6BDA97
:1036C00023DACFDF0BDB70E060E088E090E012DF10
:1036D00005DB70E060E089E090E00CDFFFDA70E08D
:1036E00060E08AE090E006DFF9DA70E060E08DE00B
:1036F00090E000DF90E080E00895CF92DF92EF92BB
:10370000FF92CF93DF93EB01CB010E94D10188237D
:1037100051F1FE01EE0FFF1FEE0FFF1FE952F64FB2
:10372000C080D180E280F38087EF93E0C8DB82EB3A
:1037300096E0C5DB82ED93E0C2DBCE01BBDB82EB22
:1037400096E0BDDB81E396E0BADBC701B6018ADB18
:10375000DBD9A8DE90E080E0DF91CF91FF90EF9081
:10376000DF90CF9008958BEF93E0A9DBF3CF0F9319
:103770001F93CF93DF938C01D0E0C0E0CE010E9475
:10378000D101882319F0BE01C801B7DF2196C13EDF
:10379000D105A1F7DF91CF911F910F9108958DE190
:1037A00094E08DDB88E292E08ADB88E092E087DBC0
:1037B00082E294E084DBA8D975DE90E080E0089591
:1037C0004F925F926F927F928F929F92AF92BF9231
:1037D000CF92DF92EF92FF920F931F93CF936B01E3
:1037E0007C01742EAC019B010E94B462882391F08D
:1037F0008CE294E0CF911F910F91FF90EF90DF90BA
:10380000CF90BF90AF909F908F907F906F905F9080
:103810004F90D8CA46015701E894B7F82FEF3FEF11
:103820004FE75FE7C501B4010E94B46281110DC08A
:103830002FEF3FEF4FE75FE7C501B4010E94236020
:1038400018161CF480E394E0D5CF2FEF3FEF4FE73D
:103850005FE4C701B6010E94B06218161CF484E34D
:1038600094E0C8CF2FEF3FEF4FE75FECC701B60101
:103870000E94236087FDF3CF20E030E0A901C7015B
:10388000B6010E94236010E000E087FF08C08DE2CF
:103890000E9499088C01F7FAF094F7F8F094C0E0D0
:1038A00060E070E080E09FE37C1641F020E030E0D3
:1038B00040E251E40E941762CF5FF6CFA701960164
:1038C0000E94B3612B013C010E9484624B015C01A8
:1038D0004AE085DA7C01E00EF11ECC23A9F1C50196
:1038E000B4010E9427609B01AC01C301B2010E9498
:1038F000B2614B015C018EE20E949908E80EF91E4C
:10390000C15010F120E030E040E251E4C501B401C3
:103910000E9488602B013C010E9484624B01B12C03
:10392000A12C4AE0C501B4015ADAE80EF91EC5011E
:10393000B4010E9427609B01AC01C301B2010E9447
:10394000B2614B015C01DCCFC701CF911F910F9198
:10395000FF90EF90DF90CF90BF90AF909F908F90AF
:103960007F906F905F904F900895CF92DF92EF928B
:10397000FF92CF93DF93EC0188819981AA81BB816B
:10398000181619061A061B0644F081E090E0A0E024
:10399000B0E088839983AA83BB838C819D81AE81AB
:1039A000BF81181619061A061B0644F081E090E044
:1039B000A0E0B0E08C839D83AE83BF83888599852A
:1039C000AA85BB85181619061A061B0644F081E065
:1039D00090E0A0E0B0E088879987AA87BB8788E35A
:1039E00094E06DDA8DE494E06ADA6E857F858889EB
:1039F00099890E9429606B017C01688179818A81A3
:103A00009B810E9429609B01AC01C701B6010E9405
:103A1000176242E0D5DE8DE594E051DA6A897B8950
:103A20008C899D890E9429606B017C016C817D815C
:103A30008E819F810E9429609B01AC01C701B60164
:103A40000E94176242E0BCDE8DE694E038DA6E89AF
:103A50007F89888D998D0E9429606B017C01688522
:103A600079858A859B850E9429609B01AC01C701ED
:103A7000B6010E94176242E0A3DECE01DF91CF9132
:103A8000FF90EF90DF90CF900DCD3ED86EDF90E0AD
:103A900080E008958F929F92AF92BF92CF92DF9273
:103AA000EF92FF920F931F93CF93DF93EC0184E388
:103AB00092E005DA8DE494E002DA6E018AE0C81A39
:103AC0008EEFD80AC6010E94E6140E9429604B01BD
:103AD0005C01FE01E95CFC4F608171818281938110
:103AE0000E9429609B01AC01C501B4010E941762CC
:103AF00042E066DE8DE594E0E2D97E01EAEDEE1A61
:103B0000EDEFFE0AC7010E94E6140E9429604B01F6
:103B10005C01FE01E55CFC4F6081718182819381D3
:103B20000E9429609B01AC01C501B4010E9417628B
:103B300042E046DE8DE694E0C2D98E010A5A1D4F5E
:103B4000C8010E94E6140E9429604B015C01C15C1F
:103B5000DC4F688179818A819B810E9429609B0169
:103B6000AC01C501B4010E94176242E029DE0E9447
:103B7000841598DC80E392E0A2D98DE494E09FD98B
:103B8000F601A68DB78D20893189428953890E941B
:103B90007B6168D98DE594E092D9F701A68DB78D48
:103BA00020893189428953890E947B615BD98DE6E6
:103BB00094E085D9F801A68DB78D20893189428995
:103BC00053890E947B614ED90E948415DF91CF9169
:103BD0001F910F91FF90EF90DF90CF90BF90AF902B
:103BE0009F908F905FCCCF92DF92EF92FF920F93D6
:103BF0001F93CF93DF938C016A017B01EC01CC0F03
:103C0000DD1F642FCE010E9447619927F7FC9A952A
:103C10008F2D7E2D6D2DCE0101960E9447610D588E
:103C200011090330110588F4B701992777FD9095A4
:103C3000892FCE0144960E9447616F2D77278827F0
:103C40009927CE0145960E94476190E080E0DF9180
:103C5000CF911F910F91FF90EF90DF90CF9008953B
:103C60004F925F926F927F928F929F92AF92BF928C
:103C7000CF92DF92EF92FF920F931F93CF93DF9338
:103C80008C01EC01CC0FDD1FCE010E943F61882E1C
:103C9000912CB12CA12CCE0101960E943F61C82E1F
:103CA000D12CF12CE12C0D5811090330110508F02D
:103CB0005AC0CE0144960E943F61482E512C712C6F
:103CC000612CCE0145960E943F61082F10E030E044
:103CD00020E08FEF481651046104710429F50F3F6D
:103CE00011052105310501F58FEF88169104A10416
:103CF000B104C9F58FEFC816D104E104F10499F5B8
:103D00006FEF7FEFCB01DF91CF911F910F91FF906C
:103D1000EF90DF90CF90BF90AF909F908F907F906B
:103D20006F905F904F90089500381105210531057F
:103D30003CF7FE2CED2CDC2CCC24C701B601680D21
:103D4000791D8A1D9B1D320155244424640D751D67
:103D5000861D971D302F222711270027600F711F06
:103D6000821F931FD0CF00E010E09801412C512C0E
:103D7000320180E8C816D104E104F104D4F2C0CFC6
:103D8000EF92FF920F931F93CF93DF938091B90827
:103D90009091BA08892B51F586E090E00E94AA5ACA
:103DA0007C0190E080E05CDF1616170654F1C70135
:103DB0000E944E11D0E0C0E0CE010E94D1018823C4
:103DC00069F0FE01EE0FFF1FEE0FFF1FE952F64FE5
:103DD0004081518162817381CE0105DF2196C63910
:103DE000D10551F7F092BA08E092B9088091B9086C
:103DF0009091BA08DF91CF911F910F91FF90EF90B2
:103E0000089583E090E02CDF613071058105910514
:103E100031F507ED19E0D0E0C0E0CE010E94D101FC
:103E20008823B1F0CE011CDFF801608371838283A7
:103E300093836F3F7F4F8F4F9F4F51F4CE010E946E
:103E40005F02F8014081518162817381CE01CBDE36
:103E500021960C5F1F4FC13ED105F9F6C3CFC701B4
:103E60000E944E11BFCF8CDF82DC8CE394E027D818
:103E70000E94841517DB90E080E00895CF92DF92D6
:103E8000EF92FF920F931F93CF93DF937C016B010F
:103E90008A01E90175DFF601EE0FFF1FEE0FFF1F2C
:103EA000E952F64F80819181F7019183808368DF29
:103EB000000F111F000F111FF801E952F64F81E0AA
:103EC00040815181628173814130510561057105E5
:103ED00009F080E0F701828753DFCC0FDD1FCC0FA4
:103EE000DD1FC952D64F88819981AA81BB81F70114
:103EF00082839383A483B5831682178210861186EA
:103F0000DF91CF911F910F91FF90EF90DF90CF90B5
:103F10000895CF93DF93EC012AEC30E04BEC50E0B6
:103F200069EC70E0ABDF2EEC30E04FEC50E06DEC74
:103F300070E0CE010C96A2DF24ED30E045ED50E0BC
:103F400063ED70E0CE01489699DF28ED30E049ED51
:103F500050E067ED70E0CE01849690DF2EED30E00A
:103F60004FED50E06DED70E0CE01C096DF91CF9146
:103F700085CFCF93DF938091BD089091BE08892BA8
:103F8000A1F48CE390E00E94AA5AEC0119821882F5
:103F90001D861C86198E188E1DA21CA219AA18AA8D
:103FA000B8DFD093BE08C093BD088091BD08909142
:103FB000BE08DF91CF9108950F931F93CF93DF93A6
:103FC000EC01DEDEFE01E359FC4F8091930B9091F2
:103FD000940B91838083D4DEFE01E159FC4F8091E4
:103FE000970B9091980B91838083CADEFE01EF5866
:103FF000FC4F80919B0B90919C0B91838083C0DE42
:104000008E010D581C4F6091BB0B7091BC0B8091C1
:10401000BD0B9091BE0B0E942960F80160837183F3
:1040200082839383ADDE0C5F1F4F6091BF0B709155
:10403000C00B8091C10B9091C20B0E942960F801C6
:1040400060837183828393839BDE0C5F1F4F60913B
:10405000C30B7091C40B8091C50B9091C60B0E944D
:104060002960F801608371838283938389DEFE0176
:10407000EE57FC4F80917B0B90917C0B918380835A
:104080007FDEFE01EC57FC4F80917F0B9091800BFF
:104090009183808375DEFE01EA57FC4F8091830B8C
:1040A0009091840B918380836BDEFE01E857FC4F77
:1040B0008091A30B9091A40BA091A50BB091A60B9E
:1040C00080839183A283B3835BDEFE01E457FC4FC0
:1040D0008091A70B9091A80BA091A90BB091AA0B6E
:1040E00080839183A283B3834BDEFE01E057FC4FB4
:1040F0008091AB0B9091AC0BA091AD0BB091AE0B3E
:1041000080839183A283B3833BDEFE01EC56FC4F98
:104110008091CB0B9091CC0B9183808331DEFE019B
:10412000EA56FC4F8091CF0B9091D00B9183808306
:1041300027DEFE01E856FC4F8091D30B9091D40B03
:10414000918380831DDEFE01E656FC4F8091E30BD8
:104150009091E40B9183808313DEFE01E456FC4FC3
:104160008091E70B9091E80B9183808309DEFE013B
:10417000E256FC4F8091EB0B9091EC0B9183808386
:10418000FFDD80916B0B90916C0BA0916D0BB0914A
:104190006E0BFE01E158FC4F0197A105B10551F5E9
:1041A00081E08083EDDD80916F0B9091700BA09189
:1041B000710BB091720BFE01E058FC4F0197A10505
:1041C000B105D1F481E08083DBDD8091730B9091A8
:1041D000740BA091750BB091760BCF57DC4F019704
:1041E000A105B10559F481E08883DF91CF911F913A
:1041F0000F9108951082D6CF1082E6CF1882F5CFA6
:104200002F923F924F925F926F927F928F929F92E6
:10421000AF92BF92CF92DF92EF92FF920F931F93D4
:10422000CF93DF93CDB7DEB76F970FB6F894DEBFAD
:104230000FBECDBF9B8F8A8FA3DDEA8DFB8DEF551F
:10424000FD4F81E04091A30A5091A40A6091A50A14
:104250007091A60A452B462B472B09F480E08083FA
:104260008FDDEA8DFB8DEE55FD4F81E04091A70A71
:104270005091A80A6091A90A7091AA0A452B462B71
:10428000472B09F480E080837BDDEA8DFB8DED55C3
:10429000FD4F81E04091AB0A5091AC0A6091AD0AAC
:1042A0007091AE0A452B462B472B09F480E08083A2
:1042B00067DD8091F30A9091F40AA091F50AB0911C
:1042C000F60AEA8DFB8DEC55FD4F80839183A28326
:1042D000B38356DD8091F70A9091F80AA091F90A0C
:1042E000B091FA0AEA8DFB8DE855FD4F80839183EA
:1042F000A283B38345DD8091FB0A9091FC0AA091D3
:10430000FD0AB091FE0AEA8DFB8DE455FD4F8083D6
:104310009183A283B38334DD8091F30A9091F40AF0
:10432000A091F50AB091F60AEA8DFB8DE055FD4F9C
:1043300080839183A283B38323DD8091F70A9091D8
:10434000F80AA091F90AB091FA0AEA8DFB8DEC54B3
:10435000FD4F80839183A283B38312DD8091FF0A96
:104360009091000BA091010BB091020BEA8DFB8D97
:10437000E854FD4F80839183A283B38301DD809154
:10438000CB0A9091CC0AA091CD0AB091CE0AEA8DC9
:10439000FB8DE853FD4F80839183A283B383F0DCD0
:1043A0008091CF0A9091D00AA091D10AB091D20AFF
:1043B000EA8DFB8DE453FD4F80839183A283B38309
:1043C000DFDC8091D30A9091D40AA091D50AB091F4
:1043D000D60AEA8DFB8DE053FD4F80839183A28343
:1043E000B383CEDC8091CB0A9091CC0AA091CD0A08
:1043F000B091CE0AEA8DFB8DEC52FD4F8083918304
:10440000A283B383BDDC8091CF0A9091D00AA091A2
:10441000D10AB091D20AEA8DFB8DE852FD4F80831C
:104420009183A283B383ACDC8091D70A9091D80AA0
:10443000A091D90AB091DA0AEA8DFB8DE452FD4FC2
:1044400080839183A283B3839BDC8091DB0A90916C
:10445000DC0AA091DD0AB091DE0AEA8DFB8DE05204
:10446000FD4F80839183A283B3838ADC8091DF0A2E
:104470009091E00AA091E10AB091E20AEA8DFB8DE9
:10448000EC51FD4F80839183A283B38379DC8091CB
:10449000E30A9091E40AA091E50AB091E60AEA8D58
:1044A000FB8DE851FD4F80839183A283B38368DC49
:1044B00080917B0A90917C0AA0917D0AB0917E0A3E
:1044C000EA8DFB8DE451FD4F80839183A283B383FA
:1044D00057DC80917F0A9091800AA091810AB09167
:1044E000820AEA8DFB8DE051FD4F80839183A28388
:1044F000B38346DC8091830A9091840AA091850A57
:10450000B091860AEA8DFB8DEC50FD4F808391833C
:10451000A283B38335DC80917B0A90917C0AA091C1
:104520007D0AB0917E0AEA8DFB8DE850FD4F8083B5
:104530009183A283B38324DC80917F0A9091800AC7
:10454000A091810AB091820AEA8DFB8DE450FD4F63
:1045500080839183A283B38313DC8091870A909137
:10456000880AA091890AB0918A0AEA8DFB8DFD5FC5
:1045700080839183A283B38303DCEA8DFB8DEC5FA0
:10458000FC4F81E02091530A3091540A21303105CB
:1045900009F080E08083F4DBEA8DFB8DEB5FFC4F5C
:1045A00081E02091570A3091580A2130310509F0F5
:1045B00080E08083E5DBEA8DFB8DEA5FFC4F81E0E4
:1045C00020915B0A30915C0A2130310509F080E0CE
:1045D0008083D6DBEA8DFB8DEE5DFC4F81E0409160
:1045E0002B0A50912C0A60912D0A70912E0A452BAE
:1045F000462B472B09F480E08083C2DBEA8DFB8DDC
:10460000ED5DFC4F81E040912F0A5091300A60919E
:10461000310A7091320A452B462B472B09F480E072
:104620008083AEDBEA8DFB8DEC5DFC4F81E0409139
:10463000330A5091340A6091350A7091360A452B3D
:10464000462B472B09F480E080839ADBEA8DFB8DB3
:10465000EB5DFC4F81E04091030B5091040B6091A6
:10466000050B7091060B452B462B472B09F480E078
:10467000808386DBEA8DFB8DEA5DFC4F81E0409113
:10468000070B5091080B6091090B70910A0B452B99
:10469000462B472B09F480E0808372DBEA8DFB8D8B
:1046A000E95DFC4F81E040910B0B50910C0B609148
:1046B0000D0B70910E0B452B462B472B09F480E018
:1046C00080835EDBEA8DFB8DE85DFC4F81E020910D
:1046D0003B0A30913C0A2130310509F080E08083AB
:1046E0004FDBEA8DFB8DE75DFC4F81E020913F0AB7
:1046F0003091400A2130310509F080E0808340DBB1
:10470000EA8DFB8DE65DFC4F81E02091430A3091FC
:10471000440A2130310509F080E0808331DB80914B
:10472000030A9091040AA091050AB091060AEA8D45
:10473000FB8DE55DFC4F80839183A283B38320DBF7
:104740008091070A9091080AA091090AB0910A0A7B
:10475000EA8DFB8DE15DFC4F80839183A283B3835F
:104760000FDB80910B0A90910C0AA0910D0AB09179
:104770000E0AEA8DFB8DED5CFC4F80839183A28352
:10478000B383FEDAEA8DFB8DEA5EFC4F81E0409157
:10479000130A5091140A6091150A7091160A452B5C
:1047A000462B472B09F480E08083EADAEA8DFB8D03
:1047B000E95EFC4F81E04091170A5091180A609120
:1047C000190A70911A0A452B462B472B09F480E0F1
:1047D0008083D6DAEA8DFB8DE85EFC4F81E0409164
:1047E0001B0A50911C0A60911D0A70911E0A452BEC
:1047F000462B472B09F480E08083C2DA80910B0CB2
:1048000090910C0CA0910D0CB0910E0CEA8DFB8DCB
:10481000E95FFC4F80839183A283B383B1DA8091F7
:104820000F0C9091100CA091110CB091120CEA8D0C
:10483000FB8DE55FFC4F80839183A283B383A0DA75
:104840008091130C9091140CA091150CB091160C42
:10485000EA8DFB8DE15FFC4F80839183A283B3835C
:104860008FDAEA8DFB8DE75EFC4F81E020916B0AC9
:1048700030916C0A2130310509F080E08083EA8DA7
:10488000FB8DE65EFC4F1082EA8DFB8DE55EFC4FF2
:10489000108276DAEA8DFB8DE45EFC4F81E0209198
:1048A000670A3091680A2130310509F080E0808381
:1048B000EA8DFB8DE35EFC4F1082EA8DFB8DE25E9C
:1048C000FC4F10825DDAEA8DFB8DE15EFC4F81E0EA
:1048D00020918B0A30918C0A2130310509F080E05B
:1048E00080834EDAEA8DFB8DE05EFC4F81E0209103
:1048F0008F0A3091900A2130310509F080E08083E1
:104900003FDAEA8DFB8DEF5DFC4F81E02091930A49
:104910003091940A2130310509F080E0808330DA4B
:10492000EA8DFB8DED5EFC4F81E020911B0C3091F8
:104930001C0C2130310509F080E0808321DAEA8DFA
:10494000FB8DEC5EFC4F81E020911F0C3091200C20
:104950002130310509F080E0808312DAEA8DFB8D89
:10496000EB5EFC4F81E02091230C3091240C213030
:10497000310509F080E0808303DA0A8D1B8D095C24
:104980001C4F8091B30A9091B40AA091B50AB091DE
:10499000B60AF80180839183A283B383F1D9EA8CAC
:1049A000FB8CF5ECEF1AFCEFFF0A8091B70A9091AF
:1049B000B80AA091B90AB091BA0AF701808391832D
:1049C000A283B383DDD98091BB0A9091BC0AA091E8
:1049D000BD0AB091BE0ACA8CDB8CF1ECCF1AFCEF99
:1049E000DF0AF60180839183A283B383F8014081BB
:1049F000518162817381141615061606170644F05C
:104A000041E050E060E070E0408351836283738353
:104A1000F7014081518162817381141615061606D3
:104A2000170644F041E050E060E070E040835183BD
:104A300062837383181619061A061B064CF081E070
:104A400090E0A0E0B0E0F60180839183A283B3837D
:104A50000E948415FC01D6018D909D90AD90BC9074
:104A6000D7014D915D916D917C91D8010D911D9172
:104A70002D913C910083118322833383448355839A
:104A80006683778380869186A286B386EA8DFB8DC6
:104A90007096FA83E983EA8DFB8DED5EFC4F808092
:104AA0008B82EA8DFB8DE95FFC4F408051806280F4
:104AB0007380EA8DFB8DE15EFC4F90809A86EA8DD3
:104AC000FB8DE85DFC4FA080AC82EA8DFB8DE75E3C
:104AD000FC4FB080BD82EA8DFB8DE45EFC4F2081EF
:104AE0002E83EA8DFB8DEB5DFC4F80818E87EA8DF6
:104AF000FB8DEE5DFC4F90819A8BEA8DFB8DEC5F18
:104B0000FC4F2080EA8DFB8DEF55FD4F3080EA8D04
:104B1000FB8DE55DFC4F80809180A280B380EA8DA3
:104B2000FB8DE451FD4F80819181A281B381EA8D9B
:104B3000FB8DE052FD4FC080D180E280F380EA8D92
:104B4000FB8DE853FD4F4081518162817381EA8D75
:104B5000FB8DEC55FD4F0081118122813381EA8D5F
:104B6000FB8D04AF15AF26AF37AFEC5BFF4F408333
:104B7000518362837383EA8DFB8DE05BFF4F8083FB
:104B80009183A283B383EA8DFB8DE05CFF4F0083AA
:104B9000118322833383EA8DFB8DE85BFF4F4083D3
:104BA000518362837383EA8DFB8DEC5AFF4F8083C0
:104BB0009183A283B383EA8DFB8DE45BFF4FC082B8
:104BC000D182E282F382EA8DFB8DE85AFF4F808228
:104BD0009182A282B382EA8DFB8DE45AFF4F30822C
:104BE000EA8DFB8DE35AFF4F2082EA89AA8DBB8DA7
:104BF000D996EC93D997FE85DA96FC93DA978C8058
:104C0000DB968C9280E490E0A0E0B0E0EA8DFB8D32
:104C1000E05AFF4F80839183A283B383EA8DFB8D9B
:104C2000E25AFF4F9E809082EA8DFB8DE15AFF4F42
:104C3000AD80A082EA8DFB8DEC59FF4FBA84B08223
:104C4000EA8DFB8DEB59FF4F408251826282738265
:104C5000EA8DFB8DE759FF4F2B812083AA8DBB8DF9
:104C600099968D919C919A978633910509F0E6C2A9
:104C700083E69CE0FD01EE55FF4F918380833296E1
:104C80001182108281E69CE0369691838083329671
:104C900011821082EA8DFB8D87A590A94A97D1F4E5
:104CA0008FE59CE0EA55FF4F91838083EA8DFB8D71
:104CB000E855FF4F118210828DE59CE0EA8DFB8D57
:104CC000E255FF4F91838083EA8DFB8DE055FF4FC6
:104CD000118210820A8D1B8D0E541F4FEA8DFB8DA1
:104CE000EC5EFC4F80808B82EA8DFB8DE55FFC4F94
:104CF00080819181A281B3818A879B87AC87BD87A0
:104D0000EA8DFB8DE05EFC4F90819C83EA8DFB8DEC
:104D1000E75DFC4FA081AD83EA8DFB8DE65EFC4F25
:104D2000B081BE83EA8DFB8DE35EFC4F80808E8672
:104D3000EA8DFB8DEA5DFC4F2080EA8DFB8DED5DF9
:104D4000FC4F3080EA8DFB8DEB5FFC4F3081EA8DAC
:104D5000FB8DEE55FD4F2081EA8DFB8DE15DFC4F13
:104D60004081518162817381EA8DFB8DE051FD4F5D
:104D700080819181A281B381EA8DFB8DEC51FD4F41
:104D8000C080D180E280F380EA8DFB8DE453FD4F3B
:104D900080809180A280B380EA8DFB8DE855FD4F25
:104DA0004080518062807380F80144A655A666A6B3
:104DB00077A684AA95AAA6AAB7AAEA8DFB8DEE507B
:104DC000FF4F80839183A283B383F80140AA51AA45
:104DD00062AA73AA80AE91AEA2AEB3AEEA8DFB8D8D
:104DE000EA50FF4F80839183A283B383D801DC967E
:104DF000CD92DD92ED92FC92DF97EA8DFB8DE6502D
:104E0000FF4F4083518362837383EA8DFB8DE250B1
:104E1000FF4F2083EA8DFB8DE150FF4F3083999641
:104E20003C9299979A962C929A97ED819B96EC9347
:104E300080E490E0A0E0B0E0EA8DFB8DEE5FFE4FF5
:104E400080839183A283B383EA8DFB8DF3958E8457
:104E50008082EA8DFB8DEF5FFE4F9E809082EA8D0F
:104E6000FB8DEA5FFE4FAC80A082EA8DFB8DE95F8F
:104E7000FE4F8A859B85AC85BD8580839183A28307
:104E8000B383EA8DFB8DE55FFE4F9B819083D80154
:104E900059968D919C918633910509F001C283E664
:104EA0009CE0EA8DFB8DEC5BFE4F91838083EA8D65
:104EB000FB8DEA5BFE4F1182108281E69CE0EA8D59
:104EC000FB8DE45BFE4F91838083EA8DFB8DE25B7B
:104ED000FE4F11821082F801878D90A14A97E1F46C
:104EE0008FE59CE0EA8DFB8DE85BFE4F918380832C
:104EF000EA8DFB8DE65BFE4F118210828DE59CE012
:104F0000EA8DFB8DE05BFE4F91838083EA8DFB8D04
:104F1000EE5AFE4F11821082EA8CFB8CFCEAEF1AEB
:104F2000FEEFFF0AEA8DFB8DEB5EFC4F80808B82EB
:104F3000EA8DFB8DE15FFC4F80819181A281B3817D
:104F40008A879B87AC87BD87EA8DFB8DEF5DFC4F21
:104F500090819C83EA8DFB8DE65DFC4F3080EA8D6D
:104F6000FB8DE55EFC4FA081AD83EA8DFB8DE25E9B
:104F7000FC4F2080EA8DFB8DE95DFC4FC080EA8DFF
:104F8000FB8DEC5DFC4FD080EA8DFB8DEA5FFC4F22
:104F90003081EA8DFB8DED55FD4F2081EA8DFB8D33
:104FA000ED5CFC4F80809180A280B3808E829F82D6
:104FB000A886B986EA8DFB8DFD5F80819181A281F3
:104FC000B3818E879F87A88BB98BEA8DFB8DEC50C0
:104FD000FD4F80809180A280B3808C8E9D8EAE8E9E
:104FE000BF8EEA8DFB8DE851FD4F80819181A281BA
:104FF000B3818A8B9B8BAC8BBD8BEA8DFB8DE4528E
:10500000FD4F80819181A281B381EA8DFB8DE053B8
:10501000FD4F4080518062807380EA8DFB8DE854A3
:10502000FD4F4081518162817381EA8DFB8DE45592
:10503000FD4F80809180A280B380F70184A695A661
:10504000A6A6B7A644AA55AA66AA77AAEA8DFB8D9A
:10505000EC56FE4F8C8C9D8CAE8CBF8C80829182E6
:10506000A282B382F70140AB51AB62AB73AB80AFAE
:1050700091AFA2AFB3AFEA8DFB8DE856FE4F8E84A1
:105080009F84A888B98880829182A282B3828A890B
:105090009B89AC89BD89F70184AF95AFA6AFB7AF47
:1050A000EA8DFB8DE456FE4F8E809F80A884B984E4
:1050B00080829182A282B382EA8DFB8DE056FE4F00
:1050C0002083EA8DFB8DEF55FE4F3083D7019996F3
:1050D000DC9299979A96CC929A979B963C9280E410
:1050E00090E0A0E0B0E0EA8DFB8DEC55FE4F8083B0
:1050F0009183A283B383EA8DFB8DEE55FE4F208210
:10510000EA8DFB8DED55FE4FBD81B083EA8DFB8DA1
:10511000E855FE4F8C808082EA8DFB8DE755FE4F6F
:105120008A859B85AC85BD8580839183A283B3836B
:10513000EA8DFB8DE355FE4F9B819083D7015996F5
:105140008D919C918633910509F0D2C083E69CE055
:10515000EA8DFB8DEA51FE4F91838083EA8DFB8DB2
:10516000E851FE4F1182108281E69CE0EA8DFB8DB2
:10517000E251FE4F91838083EA8DFB8DE051FE4F1B
:1051800011821082F701878D90A14A97E1F48FE593
:105190009CE0EA8DFB8DE651FE4F91838083EA8D82
:1051A000FB8DE451FE4F118210828DE59CE0EA8D6B
:1051B000FB8DEE50FE4F91838083EA8DFB8DEC508A
:1051C000FE4F11821082EA8DFB8DEA5EFC4F8081DA
:1051D000882309F4B5C089819A810E94FD0CEA8D6B
:1051E000FB8DE95EFC4F8081882309F4AEC0C801C5
:1051F0000E94FD0C8A8D9B8D885E9C4FDC018C91FA
:10520000882309F4A6C0C7016F960FB6F894DEBFD5
:105210000FBECDBFDF91CF911F910F91FF90EF9007
:10522000DF90CF90BF90AF909F908F907F906F90C6
:105230005F904F903F902F900C94FD0C8C33910514
:10524000D9F48BE59CE0EA8DFB8DEE55FF4F918301
:105250008083EA8DFB8DEC55FF4F1182108289E52A
:105260009CE0EA8DFB8DE655FF4F91838083EA8DAC
:10527000FB8DE455FF4F0CCD8E9709F00BCD83E5E8
:105280009CE0EA8DFB8DEE55FF4F91838083EA8D84
:10529000FB8DEC55FF4F118210828DE49CE0E1CF35
:1052A0008C33910589F48BE59CE0EA8DFB8DEC5BFA
:1052B000FE4F91838083EA8DFB8DEA5BFE4F118266
:1052C000108289E59CE0FBCD8E9709F004CE83E542
:1052D0009CE0EA8DFB8DEC5BFE4F91838083EA8D31
:1052E000FB8DEA5BFE4F118210828DE49CE0E7CDDE
:1052F0008C33910589F48BE59CE0EA8DFB8DEA51B6
:10530000FE4F91838083EA8DFB8DE851FE4F118221
:10531000108289E59CE02ACF8E9709F033CF83E590
:105320009CE0EA8DFB8DEA51FE4F91838083EA8DEC
:10533000FB8DE851FE4F118210828DE49CE016CF68
:1053400089819A810E94E80C4ACFC8010E94E80C2A
:1053500051CFC7016F960FB6F894DEBF0FBECDBF19
:10536000DF91CF911F910F91FF90EF90DF90CF9041
:10537000BF90AF909F908F907F906F905F904F9075
:105380003F902F900C94E80CAF92BF92CF92DF9297
:10539000EF92FF920F931F93CF93DF93EC018AE17B
:1053A00090E09AA789A78BE190E09CA78BA789E161
:1053B00090E09EA78DA78FE090E098AB8FA78EE13D
:1053C00090E09AAB89AB8EE090E09CAB8BAB85E430
:1053D00090E09EAB8DAB84E490E098AF8FABFE0184
:1053E000EE54FF4F80E290E0928F818F81E290E057
:1053F000948F838F8FE190E0968F858F10A2178E08
:1054000012A211A214A213A283E490E096A385A392
:1054100082E490E090A787A3EE55FF4F83E290E0EF
:10542000928F818F84E290E0948F838F82E290E06C
:10543000968F858F10A2178E12A211A214A213A20A
:1054400081E490E096A385A380E490E090A787A3F1
:10545000E95BFE4F118210823296118210823296E1
:1054600011821082CE010E940021CE010E94DC1F19
:10547000CE018A509E4F41E050E0FC0157A746A75D
:10548000DE01AA5DBD4F24E030E09F963C932E9351
:105490009E975E01FAEAAF1AFDEFBF0A28E030E0FE
:1054A000F50137A726A720E130E0FC0131832083F6
:1054B00021E130E0358324832FEF3FEF33832283D4
:1054C00037832683628560876385618767E170E043
:1054D00011967C936E9368E170E015967C936E93C1
:1054E000149713963C932E93129717963C932E93F2
:1054F00016971A966C911A9718966C9318971B9694
:105500006C911B9719966C9319976DE170E0F501FA
:10551000718360836CE170E07583648333832283DD
:10552000378326836285608763856187BE016656FF
:105530007C4FFB01608171818E0108571C4FF8017F
:10554000C080D180E280F38006501109F80100810B
:105550001181FC01158F048FC48AD58AE68AF78AE7
:105560006130710509F04EC0378F268FCE01845609
:105570009C4FFC01808191819E0124573C4FF90191
:10558000408151816281738128503109F901208164
:1055900031815D963C932E935C9754964D935D9329
:1055A0006D937C935797019781F58FEF9FEF5F96EF
:1055B0009C938E935E97DE01A256BC4F8D919C9179
:1055C00011971E974D915D916D917C91CA57DC4F5B
:1055D00028813981F501358F248F448B558B668B5B
:1055E000778B0197A9F48FEF9FEF978F868FDF91CD
:1055F000CF911F910F91FF90EF90DF90CF90BF90D0
:10560000AF900895578F468FB1CF81E090E0CFCF14
:1056100081E090E0EACFEF92FF920F931F93CF9338
:10562000DF93EC010E94C01E0091230B1091240B0C
:105630000E94C01EE090330BF090340B0E94C01EFD
:1056400020914B0B30914C0B1216130614F021E0F5
:1056500030E0A701B801CE018C5A9E4FDF91CF9167
:105660001F910F91FF90EF900C94B714EF92FF925F
:105670000F931F93CF93DF93EC010E94C01E009104
:105680001F0B1091200B0E94C01EE0902F0BF0907A
:10569000300B0E94C01E2091470B3091480B121610
:1056A000130614F021E030E0A701B801CE018E54BA
:1056B0009F4FDF91CF911F910F91FF90EF900C942E
:1056C000B714EF92FF920F931F93CF93DF93EC01E8
:1056D0000E94C01E00911B0B10911C0B0E94C01E4B
:1056E000E0902B0BF0902C0B0E94C01E2091430BDE
:1056F0003091440B1216130614F021E030E0A7019C
:10570000B801CE014096DF91CF911F910F91FF908C
:10571000EF900C94B7148F929F92AF92BF92CF925A
:10572000DF92EF92FF92CF93DF937B010E94C01E26
:10573000EC01F70182A093A0A4A0B5A0C68CD78CE1
:10574000E0A0F1A08A819B818F30F7E29F070CF0E7
:1057500043C001969B838A838C819D818F3027E291
:105760009207ECF596012B7F215531092330310545
:1057700030F096012B5531092330310518F401968C
:105780009D838C83C6010E94D101882359F1F601C3
:10579000EE0FFF1FEE0FFF1FE952F64F808291823E
:1057A000A282B382B501A401C6010E94F31DB60115
:1057B000CE010E947D1B0E94B91F0E94891F90E0AC
:1057C00080E0DF91CF91FF90EF90DF90CF90BF907E
:1057D000AF909F908F9008951B821A82BDCF1D823B
:1057E0001C82D0CF8BEF93E00E945F17E4CFCF9362
:1057F000DF93EB010E94C01E6E8D7F8D0E947D1B8A
:1058000090E080E0DF91CF910895FC01808191814B
:10581000009711F00C94465B08950C94465B0C9431
:10582000465B0C94465B0C94465B0C94465B0C9474
:10583000465B0C94465B0C94465B0C94465B0C9464
:10584000465B0C94465B0C94465B0C94465B0C9454
:10585000465B0C94465B0C94465B0C94465B0C9444
:10586000465B0C94465B0C94465B0C94465B0C9434
:10587000465B0C94465B0F931F93CF93DF93EC0131
:1058800088819981009759F02A813B812617370733
:1058900030F081E0DF91CF911F910F9108958B013E
:1058A0006F5F7F4F0E940263009759F0998388834E
:1058B0001B830A832C813D81232B59F7FC01108225
:1058C000E8CF80E0E7CF0F931F93CF93DF93EC01F6
:1058D0008B01D1DF28813981811112C02115310559
:1058E00019F0C9010E94465B198218821D821C8230
:1058F0001B821A82CE01DF91CF911F910F910895E3
:105900001D830C8364E878E0C9010E94F463F2CF40
:1059100070E060E0D8CF2F923F924F925F926F92EB
:105920007F928F929F92AF92BF92CF92DF92EF922F
:10593000FF920F931F93CF93DF93CDB7DEB7C25A79
:10594000D1090FB6F894DEBF0FBECDBF8C01FC01AC
:10595000108211821282138214821582168217829B
:10596000108611861286138614861586168617866B
:105970004C01F0E18F0E911CC4010E94FD0E5801F4
:1059800082EBA80EB11CC5010E94FD0E6801ECEA75
:10599000CE1AEEEFDE0AC6010E94FD0E7801FAE093
:1059A000EF1AFEEFFF0AC7010E94481538018AED81
:1059B000681A8DEF780AC3010E9448152801EAEAA7
:1059C0004E1AEDEF5E0AC2010E944815F801EA572F
:1059D000FD4F118210821382128215821482CF0130
:1059E00097DFF801E457FD4F118210823296118241
:1059F0001082329611821082329611821082329673
:105A00001082118212821382349610823196108293
:105A10003196108231961182108232961182108254
:105A2000329611821082329610823196108231960F
:105A30001082319610821182128213823496108263
:105A40001182128213823496108211821282138282
:105A5000349610821182128213823496108211823F
:105A6000128213823496108211821282138234962B
:105A70001082118212821382349610821182128255
:105A8000138234961082118212821382349610820D
:105A90001182128213823496108211821282138232
:105AA00034961082118212821382349610821182EF
:105AB00012821382349610821182128213823496DB
:105AC0001082118212821382349610821182128205
:105AD00013823496108211821282138234961082BD
