:100000009DC10000CCC10000CAC10000C8C10000F1
:10001000C6C10000C4C10000C2C10000C0C10000D0
:10002000BEC10000BCC10000BAC10000B8C10000E0
:10003000B6C10000B4C10000B2C10000B0C10000F0
:10004000AEC100000C944246AAC10000A8C1000045
:100050000C947046A4C10000A2C100000C946E452F
:100060009EC100000C9438450C940E4598C10000C8
:1000700096C1000094C1000092C1000090C1000030
:100080000C9414468CC100008AC1000088C1000095
:1000900086C1000084C1000082C1000080C1000050
:1000A0007EC100007CC100000C94E64578C10000D0
:1000B00076C1000074C1000072C100000C94B84504
:1000C0006EC100006CC100006AC1000068C1000080
:1000D00066C1000064C1000062C1000060C1000090
:1000E0005EC100004E414E494E495459494E46CDDD
:1000F000CCCC3D0AD7233C17B7D13877CC2B3295DF
:1001000095E6241FB14F0A000020410000C84200BC
:10011000401C4620BCBE4CCA1B0E5AAEC59D740086
:10012000407A10F35A00A0724E18090010A5D4E8C6
:100130000000E87648170000E40B54020000CA9A59
:100140003B000000E1F505000080969800000040AB
:10015000420F000000A086010000001027000000F0
:1001600000E803000000006400000000000A000036
:100170000000000100000000002C76D888DC674FEA
:100180000823DFC1DFAE59E1B1B796E5E3E453C61A
:100190003AE651997696E8E6C28426EB898C9B6212
:1001A000ED407C6FFCEFBC9C9F40F2BAA56FA5F4BC
:1001B00090055A2AF75C936B6CF9676DC11BFCE0E4
:1001C000E40D47FEF520E6B500D0ED902E03009437
:1001D0003577050080841E080000204E0A000000CC
:1001E000C80C333333330F986E12831141EF8D21D6
:1001F00014893BE65516CFFEE6DB18D1844B381B3D
:10020000F77C1D901DA4BBE424203284725E228101
:1002100000C9F124ECA1E53D2700002200250028BB
:10022000002B002E003100340002010000050108FF
:10023000010B01000020002300260029002C002FC4
:100240000032000001000003010601090100000A5C
:100250000B02090C0D0E080703040100000000004A
:10026000000000000000000000000000000000008E
:10027000000000000000000000121110000000004B
:10028000000000000000000000000000000000006E
:1002900000000000002100240027002A002D00306B
:1002A00000330001010000040107010A01010210EE
:1002B0002020080810204010204080020102010880
:1002C0000402010102040810204080804020100830
:1002D0000402018004020180402010080402010889
:1002E00004020101020408102040800102040810E9
:1002F00020408005050505070508080808020202D8
:10030000020A0A08080404040401010101010101B0
:10031000010303030303030303040707070C0C0C87
:100320000C0C0C0C0C02020202060606060606065F
:10033000060B0B0B0B0B0B0B0B009B4611241FBE6C
:10034000CFEFD1E2DEBFCDBF00E00CBF18E0A0E0F0
:10035000B2E0EAE0F8EB00E00BBF02C007900D92BC
:10036000A431B107D9F72EE0A4E1B8E001C01D9295
:10037000A030B207E1F711E0CEE9D1E000E006C01D
:1003800021970109802FFE010E94EE5ACD39D10735
:1003900080E00807A9F70E940C470C94035C30CE5C
:1003A0008E3591050CF046C08B359105A4F4803351
:1003B000910524F58932910574F4883191058CF406
:1003C0008F30910544F4863091053CF482309105DC
:1003D00014F4892B89F481E008950B97039760F456
:1003E000FACF823291052CF48F319105A4F7499709
:1003F000F5CF8497029778F380E0089584349105CF
:100400005CF48D3391053CF783339105ACF386336F
:1004100091050CF3C797E2CF8435910544F48135FB
:100420009105CCF687549109079730F7D4CF8555BD
:100430009109D4CF8638910504F5833891055CF68F
:10044000823791056CF48F3691052CF6853691052F
:100450009CF2883691050CF4BECF89569109BECF27
:100460008C3791053CF4893791050CF0B4CF835754
:100470009109B4CF8D579109B1CF803D91058CF48E
:100480008D3C91050CF0A7CF843991053CF481395E
:1004900091050CF0A0CF8D589109A0CF895C9109EE
:1004A0009DCF8A3D91053CF4873D91050CF093CF9B
:1004B000835D910993CF8D5D910990CF9C01803E22
:1004C000910508F048C5FC018827E659FD4F8F4F7C
:1004D0000C94EE5A4A0357036003690376037F03C3
:1004E000AB07AB07AB07AB07AB078C039903A603BE
:1004F000AB07B303BC03C503D203DB03E403ED0383
:10050000F603FF03AB07080411041A04AB07AB079B
:10051000AB0723042C043504AB07AB073E044B04A4
:10052000AB07AB07AB075804650472047F048C0467
:1005300095049E04AB07AB07AB07A704B004B9044E
:10054000AB07C604D304E004AB07AB07AB07ED046D
:10055000FA040705140521052E053B05AB07AB077B
:10056000AB074805550562056F057C0585058E05B9
:10057000AB07AB07AB07B205BF05CC05AB07D90589
:10058000E605F305AB07AB07AB0700060906120645
:10059000AB07AB07AB07AB07AB07AB07AB071B065C
:1005A00024062D06AB0736063F064806AB07AB0709
:1005B000AB0751065E066B06AB077806850692060A
:1005C000AB07AB07AB079F06AC06B906AB07C60681
:1005D000CF06D806AB07AB07AB07E106EA06F30682
:1005E000AB07AB07AB07AB07AB07AB07AB07AB077B
:1005F000AB07AB07AB079705A005A905AB07AB0792
:10060000AB07AB07AB07AB07AB07AB07AB07AB075A
:10061000AB07AB07AB07AB07AB07AB07AB07AB074A
:10062000AB07AB07AB07AB07AB07AB07AB07AB073A
:10063000AB07AB07AB07AB07AB07AB07AB07AB072A
:10064000AB07AB07AB07AB07AB07AB07AB07AB071A
:10065000AB07AB07AB07AB07AB07AB07AB07AB070A
:10066000AB07AB07AB07FC0605071207AB071F0775
:1006700028073507AB07AB07AB0742074B075807FF
:10068000AB0765076E077B07AB07AB07AB078807B0
:1006900091079E0781E090E0A0E0B0E080933809E8
:1006A00090933909A0933A09B0933B0908951092A9
:1006B0003C0910923D0910923E0910923F0908959D
:1006C0001092400910924109109242091092430978
:1006D000089581E090E0A0E0B0E080934409909319
:1006E0004509A0934609B093470908951092480917
:1006F0001092490910924A0910924B09089583E01B
:1007000090E0A0E0B0E080934C0990934D09A09355
:100710004E09B0934F09089588E790E0A0E0B0E05B
:100720008093640990936509A0936609B093670963
:10073000089588E790E0A0E0B0E080936809909386
:100740006909A0936A09B0936B09089588E790E05E
:10075000A0E0B0E080936C0990936D09A0936E09BE
:10076000B0936F0908951092740910927509109250
:1007700076091092770908951092780910927909F4
:1007800010927A0910927B09089581E090E0A0E030
:10079000B0E080937C0990937D09A0937E09B0938B
:1007A0007F090895109280091092810910928209A0
:1007B000109283090895109284091092850910926D
:1007C0008609109287090895109288091092890964
:1007D00010928A0910928B09089510928C09109238
:1007E0008D0910928E0910928F0908951092900928
:1007F0001092910910929209109293090895109203
:1008000094091092950910929609109297090895EB
:1008100010929C0910929D0910929E0910929F09B6
:1008200008951092A0091092A1091092A2091092A5
:10083000A30908951092A4091092A5091092A6097F
:100840001092A70908951092B4091092B509109258
:10085000B6091092B70908951092B8091092B90913
:100860001092BA091092BB0908951092BC09109217
:10087000BD091092BE091092BF09089581E090E071
:10088000A0E0B0E08093C8099093C909A093CA0979
:10089000B093CB09089581E090E0A0E0B0E08093B0
:1008A000CC099093CD09A093CE09B093CF090895B8
:1008B0008CE291E0A0E0B0E08093DC099093DD0948
:1008C000A093DE09B093DF0908958CE291E0A0E0E7
:1008D000B0E08093E0099093E109A093E209B0931E
:1008E000E30908958CE291E0A0E0B0E08093E40990
:1008F0009093E509A093E609B093E70908958CE287
:1009000091E0A0E0B0E08093E8099093E909A0931A
:10091000EA09B093EB0908951092EC091092ED09E1
:100920001092EE091092EF0908951092F0091092BA
:10093000F1091092F2091092F30908951092F40946
:100940001092F5091092F6091092F7090895109285
:10095000040A1092050A1092060A1092070A0895D6
:100960001092080A1092090A10920A0A10920B0AB1
:10097000089581E090E0A0E0B0E080930C0A9093AD
:100980000D0AA0930E0AB0930F0A089585E090E037
:10099000A0E0B0E08093140A9093150AA093160A81
:1009A000B093170A089585E090E0A0E0B0E080934E
:1009B000180A9093190AA0931A0AB0931B0A089573
:1009C00089E190E0A0E0B0E080931C0A90931D0ABA
:1009D000A0931E0AB0931F0A089582E390E0A0E05E
:1009E000B0E080932C0A90932D0AA0932E0AB09326
:1009F0002F0A089582E390E0A0E0B0E08093300AEF
:100A00009093310AA093320AB093330A089582E397
:100A100090E0A0E0B0E08093340A9093350AA09370
:100A2000360AB093370A089582E390E0A0E0B0E080
:100A30008093380A9093390AA0933A0AB0933B0AFC
:100A4000089582E390E0A0E0B0E080933C0A9093A8
:100A50003D0AA0933E0AB0933F0A089582E390E0D6
:100A6000A0E0B0E08093400A9093410AA093420A2C
:100A7000B093430A089582E390E0A0E0B0E0809351
:100A8000440A9093450AA093460AB093470A0895F2
:100A900080E991E0A0E0B0E08093540A9093550A79
:100AA000A093560AB093570A089580E991E0A0E018
:100AB000B0E08093580A9093590AA0935A0AB093D1
:100AC0005B0A089580E991E0A0E0B0E080935C0AC1
:100AD00090935D0AA0935E0AB0935F0A089580E93F
:100AE00091E0A0E0B0E08093600A9093610AA09347
:100AF000620AB093630A08951092640A1092650A1C
:100B00001092660A1092670A08951092680A10926D
:100B1000690A10926A0A10926B0A089510926C0A80
:100B200010926D0A10926E0A10926F0A0895109238
:100B30007C0B10927D0B10927E0B10927F0B089510
:100B40001092800B1092810B1092820B1092830BEB
:100B500008951092840B1092850B1092860B1092C0
:100B6000870B089588E592E0A0E0B0E080937C0ACE
:100B700090937D0AA0937E0AB0937F0A089588E53A
:100B800092E0A0E0B0E08093800A9093810AA09365
:100B9000820AB093830A089588E592E0A0E0B0E06D
:100BA0008093840A9093850AA093860AB093870A5B
:100BB00008958EE190E0A0E0B0E080938C0A9093DD
:100BC0008D0AA0938E0AB0938F0A08958EE190E06B
:100BD000A0E0B0E08093900A9093910AA093920ACB
:100BE000B093930A08958EE190E0A0E0B0E0809386
:100BF000940A9093950AA093960AB093970A089541
:100C00001092A40A1092A50A1092A60A1092A70A9E
:100C100008951092A80A1092A90A1092AA0A109296
:100C2000AB0A08951092AC0A1092AD0A1092AE0A67
:100C30001092AF0A08951092CC0A1092CD0A109229
:100C4000CE0A1092CF0A08951092D00A1092D10ABB
:100C50001092D20A1092D30A08951092D40A1092D8
:100C6000D50A1092D60A1092D70A08951092DC0A7B
:100C70001092DD0A1092DE0A1092DF0A0895109297
:100C8000E00A1092E10A1092E20A1092E30A089533
:100C90001092E40A1092E50A1092E60A1092E70A0E
:100CA000089585E090E0A0E0B0E08093F40A90938E
:100CB000F50AA093F60AB093F70A089585E090E04C
:100CC000A0E0B0E08093F80A9093F90AA093FA0AA2
:100CD000B093FB0A089585E090E0A0E0B0E0809337
:100CE000FC0A9093FD0AA093FE0AB093FF0A0895B0
:100CF00084EB95E1A0E0B0E08093040B9093050BAA
:100D0000A093060BB093070B089584EB95E1A0E048
:100D1000B0E08093080B9093090BA0930A0BB0935B
:100D20000B0B089584EB95E1A0E0B0E080930C0BF1
:100D300090930D0BA0930E0BB0930F0B089585E0CD
:100D400090E0A0E0B0E080931C0B90931D0BA0936B
:100D50001E0BB0931F0B089585E090E0A0E0B0E07B
:100D60008093200B9093210BA093220BB093230B25
:100D7000089585E090E0A0E0B0E08093240B90938C
:100D8000250BA093260BB093270B089510922C0BE4
:100D900010922D0B10922E0B10922F0B0895109283
:100DA000300B1092310B1092320B1092330B0895CE
:100DB0001092340B1092350B1092360B1092370BA9
:100DC00008951092440B1092450B1092460B10920E
:100DD000470B08951092480B1092490B10924A0B42
:100DE00010924B0B089510924C0B10924D0B1092D9
:100DF0004E0B10924F0B089510925C0C10925D0CEC
:100E000010925E0C10925F0C08958CE390E0A0E0CD
:100E1000B0E08093600C9093610CA093620CB0934F
:100E2000630C089581E090E0A0E0B0E08093640C52
:100E30009093650CA093660CB093670C0895109284
:100E40006C0C10926D0C10926E0C10926F0C089539
:100E50008CE390E0A0E0B0E08093700C9093710C74
:100E6000A093720CB093730C089581E090E0A0E021
:100E7000B0E08093740C9093750CA093760CB093B3
:100E8000770C08951092840C1092850C1092860CA9
:100E90001092870C08958CE390E0A0E0B0E080937E
:100EA000880C9093890CA0938A0CB0938B0C0895B6
:100EB00081E090E0A0E0B0E080938C0C90938D0CEA
:100EC000A0938E0CB0938F0C08951092940C1092F6
:100ED000950C1092960C1092970C08958CE390E06C
:100EE000A0E0B0E08093980C9093990CA0939A0C9A
:100EF000B0939B0C089581E090E0A0E0B0E0809377
:100F00009C0C90939D0CA0939E0CB0939F0C089505
:100F10001092AC0C1092AD0C1092AE0C1092AF0C63
:100F200008958CE390E0A0E0B0E08093B00C909343
:100F3000B10CA093B20CB093B30C089581E090E093
:100F4000A0E0B0E08093B40C9093B50CA093B60CE5
:100F5000B093B70C0895220F331F220F331FF901EE
:100F6000E85CF64F108211821282138208958CBDC4
:100F70009DBD0895AF92BF92CF92DF92EF92FF9204
:100F80000F931F93CF93DF936C017B018B01040FB1
:100F9000151FEB015E01AE18BF08C017D10759F04D
:100FA0006991D601ED91FC910190F081E02DC6018F
:100FB0001995892B79F7C501DF91CF911F910F9179
:100FC000FF90EF90DF90CF90BF90AF900895FC011D
:100FD000538D448D252F30E0842F90E0821B930B9E
:100FE000541710F0CF96089501970895FC01918D44
:100FF000828D981761F0A28DAE0FBF2FB11D5D9647
:101000008C91928D9F5F9F73928F90E008958FEFE8
:101010009FEF0895FC01918D828D981731F0828D9C
:10102000E80FF11D858D90E008958FEF9FEF0895F3
:10103000FC01918D228D892F90E0805C9F4F821B57
:1010400091098F73992708958CEB9CE0F1DF21E0E3
:10105000892B09F420E0822F0895FC01A48DA80FAC
:10106000B92FB11DA35ABF4F2C91848D90E00196EA
:101070008F739927848FA689B7892C93A089B1890A
:101080008C91837080648C93938D848D981306C0AB
:101090000288F389E02D80818F7D80830895EF920F
:1010A000FF920F931F93CF93DF93EC0181E0888F22
:1010B0009B8D8C8D98131AC0E889F989808185FFF2
:1010C00015C09FB7F894EE89FF896083E889F98994
:1010D00080818370806480839FBF81E090E0DF9196
:1010E000CF911F910F91FF90EF900895F62E0B8DE9
:1010F00010E00F5F1F4F0F731127E02E8C8D8E11A4
:101100000BC00FB607FCFACFE889F989808185FF0B
:10111000F5CFCE01A2DFF2CFEB8DEC0FFD2FF11D4D
:10112000E35AFF4FF0829FB7F8940B8FEA89FB894F
:1011300080818062D0CF682F8CEB9CE0B0CFCF93C2
:10114000DF93EC01888D8823B1F0AA89BB89E889F7
:10115000F9898C9185FD03C0808186FD0CC00FB696
:1011600007FCF7CF8C9185FFF2CF808185FFEDCF13
:10117000CE0173DFEACFDF91CF91089580E090E058
:10118000892B21F061DF81110E94000080E090E056
:10119000892B49F080E090E0892B29F00E94000023
:1011A00081110E94000080E090E0892B49F080E0EE
:1011B00090E0892B29F00E94000081110E9400001C
:1011C00080E090E0892B49F080E090E0892B29F0C5
:1011D0000E94000081110C9400000895815082311A
:1011E00008F05AC0E82FF0E08827E650F74F8F4FFD
:1011F0000C94EE5A1A091E090C09120916094C0919
:10120000210927092B093109350939093F09430902
:101210004C0947094D095109809180008F778093CF
:1012200080000895809180008F7DF9CF80918000AB
:10123000877FF5CF84B58F7784BD089584B58F7D82
:10124000FBCF8091B0008F778093B000089580919C
:10125000B0008F7DF9CF809190008F7780939000C0
:101260000895809190008F7DF9CF80919000877FC5
:10127000F5CF8091A0008F778093A0000895809192
:10128000A0008F7DF9CF8091A000877FF5CF80915E
:1012900020018F77809320010895809120018F7D18
:1012A000F9CF80912001877FF5CFCF93DF93282F4F
:1012B00030E0F901E35BFD4F8491F901E355FD4F07
:1012C000D491F901ED50FD4FC491CC2399F08111D7
:1012D00085DFEC2FF0E0EE0FFF1FED5CFD4FA591D9
:1012E000B491EC91ED2381E090E009F480E0DF918E
:1012F000CF91089580E090E0FACF1F93CF93DF93D2
:10130000282F30E0F901E35BFD4F8491F901E355AB
:10131000FD4FD491F901ED50FD4FC491CC23A1F0C4
:10132000162F81115BDFEC2FF0E0EE0FFF1FE75E61
:10133000FD4FA591B4918FB7F894EC91111108C0AD
:10134000D095DE23DC938FBFDF91CF911F9108955D
:10135000DE2BF8CFCF93DF9390E0FC01E355FD4FF8
:1013600024918D509D4FFC0184918823C9F090E019
:10137000880F991FFC01ED56FD4FA591B491FC011A
:10138000E75EFD4FC591D49161110DC09FB7F894F0
:101390008C91209582238C938881282328839FBF5A
:1013A000DF91CF910895623051F49FB7F8943C914A
:1013B000822F809583238C93E8812E2BEFCF8FB7DC
:1013C000F894EC912E2B2C938FBFEACF82309105AD
:1013D00038F0880F991F880F991F05970197F1F72B
:1013E00008953FB7F89480912A0890912B08A09116
:1013F0002C08B0912D0826B5A89B05C02F3F19F0E9
:101400000196A11DB11D3FBFBA2FA92F982F882784
:10141000BC01CD01620F711D811D911D42E0660F5F
:10142000771F881F991F4A95D1F708958F929F9231
:10143000AF92BF92CF92DF92EF92FF926B017C014D
:10144000D0DF4B015C01C114D104E104F104B1F01F
:10145000C8DF681979098A099B09683E73408105CC
:10146000910588F321E0C21AD108E108F10888EE5D
:10147000880E83E0981EA11CB11CE5CFFF90EF9071
:10148000DF90CF90BF90AF909F908F9008952FB72F
:10149000F89460912608709127088091280890910F
:1014A00029082FBF0895CF92DF92EF92FF92CF933A
:1014B000DF93EC01603282E07807CCF5653B710583
:1014C00014F064EB70E0898128E830E0281B3109D2
:1014D00087FD3395220F331F220F331F6901330F0E
:1014E000EE08FF088A8128E532E0281B310987FDD4
:1014F0003395220F331F220F331F032E000C440B92
:10150000550B2C193D094E095F09DB0177FF02C01D
:10151000B0E0A0E00E94835924EB30E040E050E0CE
:101520000E945D59C20ED31EE41EF51EB601E8816D
:10153000E03370F5298188E890E0821B910927FD4E
:101540009395880F991F880F991F681779077CF06A
:101550002A8188E592E0821B910927FD9395880FE7
:10156000991F880F991F681779070CF4CB01029710
:10157000880F991F4FB7F8942E2F30E0F901EE0F26
:10158000FF1FE20FF31FE75AF24F928381834FBF91
:10159000DF91CF91FF90EF90DF90CF9008951F9350
:1015A000CF93DF93EC01162F8881803308F04DC074
:1015B00061E0812FCFDE8881282F30E0F901EE0F26
:1015C000FF1FE20FF31FE75AF24F1F736081607C29
:1015D000612B608319821A822CE0622F0E94CF5AFD
:1015E000829FB001112430E020E0AB01420F531F75
:1015F000FA01EE0FFF1FE40FF51FE75AF24F90813B
:1016000096FD16C02F5F3F4F2C30310571F78130AA
:1016100009F51092800082E080938100109285008D
:1016200010928400B19A80916F00826080936F0065
:10163000E8818E2F90E0FC01EE0FFF1FE80FF91FED
:10164000E75AF24F8081806480838881DF91CF9157
:101650001F910895823061F4109290008093910060
:10166000109295001092940088BB80937100E0CF97
:10167000833069F41092A00082E08093A100109260
:10168000A5001092A40089BB80937200D1CF811174
:10169000CFCF1092200182E080932101109225018A
:1016A000109224018ABB80937300C2CFAF92BF9285
:1016B000CF92DF92EF92FF920F931F93CF93DF931E
:1016C0006B017A01EC01CF5DD74F28813CE0389F58
:1016D0008001399F100D1124A090E90DB12C27FF36
:1016E0001FC0FB011182108288818F5F88838881EF
:1016F0009801280F311D87FD3A95F6012A153B0503
:101700001CF488818C30BCF18081918104968034F6
:101710009C4908F471C0F6018081918104966EC0E5
:1017200088819801280F311D87FD3A952A153B05C0
:10173000DCF68881A801480F511D87FD5A95FA01F2
:10174000EE0FFF1FE40FF51FE75AF24F808186FF6F
:10175000CBCF8881F801E80FF11D87FDFA95CF0105
:10176000EE0FFF1FE80FF91FE75AF24F808160E08C
:101770008F73C3DDB9CF808191812881A801420F89
:10178000511D27FD5A959A01FA01EE0FFF1FE20F36
:10179000F31FE75AF24F21813281820F931FF70125
:1017A0009183808388819801280F311D87FD3A95A8
:1017B000F901EE0FFF1FE20FF31FE75AF24F80818E
:1017C00086FF21C08881080F111D87FD1A95F80139
:1017D000EE0FFF1FE00FF11FE75AF24F808161E02B
:1017E0008F73DF91CF911F910F91FF90EF90DF905A
:1017F000CF90BF90AF9081CD80E49CE9F7019183B9
:1018000080838FEF8883DF91CF911F910F91FF909D
:10181000EF90DF90CF90BF90AF9008950895089516
:101820000895EBE0F1E08081877F80830895EBE00D
:10183000F1E080818860808308958E9808958E9A63
:10184000089514980895149A089588980895889A88
:10185000089560E0FC01838550CD60E0FC01858146
:101860004CCD61E0FC01838548CD61E0FC018581C0
:1018700044CDCF93DF93EC01FC01E358FF4F10827E
:10188000379781E0808360E08D8137DD8F8598898F
:10189000892B29F060E08B85DF91CF912ECDDF91F0
:1018A000CF910895CF93DF93EC018B89FEDC2E89D5
:1018B0002817190621F48F89DF91CF91089580E0D0
:1018C000FBCFCF93DF93EC018989EFDC2E892817BA
:1018D000190621F48F89DF91CF91089580E0FBCF25
:1018E000CF93DF93EC018F8199AD61E0911101C03D
:1018F00060E003DD8D859AAD992321F09BAD61E019
:10190000911101C060E0DF91CF91F7CCCF93DF93CD
:10191000EC018F8199AD60E0911101C061E0EDDCD7
:101920008D859AAD992321F09BAD60E0911101C0A6
:1019300061E0DF91CF91E1CCCF93DF93EC0161E0E7
:101940008985DBDC8AAD882319F061E08F85D5DCE1
:10195000C558DF4F1882DF91CF910895CF93DF9361
:10196000EC0160E08985C9DC8AAD882319F060E06C
:101970008F85C3DCC558DF4F81E08883DF91CF912D
:101980000895CF92DF92EF92FF920F931F93CF9320
:10199000DF93FC01DC01AA5BBF4F4D935D936D9318
:1019A0007C93139714964D935D936D937C9313974B
:1019B00014960D931D932D933C931397EC01CE5ADF
:1019C000DF4FE88262978881882351F090AD9111B2
:1019D00050C037FF54C01D921D921D921C92139748
:1019E000EF01CF5BDF4F488159816A817B811416FB
:1019F00015061606170644F524969881992321F1B9
:101A00000D911D912D913C9113976801790137FF3C
:101A100007C0CC24DD247601C01AD10AE20AF30AF9
:101A20004C155D056E057F057CF437FF07C070958A
:101A30006095509541955F4F6F4F7F4F4D935D93EC
:101A40006D937C931397892FDF01A15ABF4F1D928D
:101A50001D921D921C921397ED58FF4F91E09083B9
:101A6000DF91CF911F910F91FF90EF90DF90CF907A
:101A7000089510161106120613060CF4ACCF80E080
:101A8000AFCF0F931F93CF93DF93EC01062F8D8978
:101A900081110DC0CE0115DF182FCE0103DF01111A
:101AA000182F812FDF91CF911F910F910895CE01B3
:101AB000F9DE182FCE0105DFF2CFCF93DF93EC01D3
:101AC000FC01E159FF4F80819181A281B381019690
:101AD000A11DB11D80839183A283B3833E9681E0D3
:101AE0008083AE01465B5F4FFA0180819181A281C4
:101AF000B3819E012C583F4FF9012081222309F424
:101B000040C00196A11DB11DFA0180839183A2837B
:101B1000B383FE01E058FF4F20813181C9019595C3
:101B200087958C0F9D1F32970190F081E02D20FF4B
:101B300008C0DC012D913C91E20FF31F0190F08170
:101B4000E02D19958F859889892BF9F0FE01EC57C6
:101B5000FF4F20813181C901959587958C0F9D1F7D
:101B6000CE57DF4FE881F98120FF08C0DC012D91BD
:101B70003C91E20FF31F0190F081E02DDF91CF91B6
:101B800019940197A109B109BFCFDF91CF910895B1
:101B90008F929F92AF92BF92CF92DF92EF92FF927D
:101BA0000F931F93CF93DF93EC01FC01E15AFF4F9A
:101BB00060817181828193810E942F586B017C0129
:101BC0006CAD7DAD8EAD9FAD0E9431589B01AC01D7
:101BD00060E074E284E799E40E941F5A4B015C01C3
:101BE000FE01E559FF4F60817181828193810E94DE
:101BF0002F589B01AC01C501B4010E941F5A4B0133
:101C00005C018E010D591F4F20E030E040E05FE3A2
:101C10000E949058A70196010E94BB590E948C5ABD
:101C2000F8016083718382839383C959DF4FA501D3
:101C30009401C701B6010E94BB590E948C5A688367
:101C400079838A839B83DF91CF911F910F91FF90BE
:101C5000EF90DF90CF90BF90AF909F908F900895BE
:101C60000F931F93CF93DF93FC01E358FF4F208125
:101C70002223B9F07E970081118122813381389629
:101C80004081518162817381041715072607370748
:101C900010F1EC01EEDDCE01DF91CF911F910F919C
:101CA00077CFFC01ED58FF4F20812223A1F07497DC
:101CB000008111812281338134964081518162817A
:101CC0007381041715072607370728F0DF91CF9196
:101CD0001F910F91F2CEDF91CF911F910F91089537
:101CE000FC01ED58FF4F2081222361F07497808121
:101CF0009181A281B3810196A11DB11D8083918341
:101D0000A283B38308950F931F93FC01EE5AFF4FF4
:101D10002081211112C038970081118122813381E5
:101D2000349640815181628173810417150726071B
:101D300037073CF41F910F91E9CDFC0120AD211133
:101D4000F9CF1F910F91CCCDFC0113821282148226
:101D50008CE291E0A0E0B0E0808F918FA28FB38FF2
:101D6000848F958FA68FB78F42E350E060E070E0DC
:101D700040A351A362A373A344A355A366A377A36F
:101D800040A751A762A773A784A795A7A6A7B7A73F
:101D900080AB91ABA2ABB3AB88E790E0A0E0B0E042
:101DA00084AB95ABA6ABB7AB10AE11AE12AE13AE13
:101DB00084E690E0A0E0B0E084AF95AFA6AFB7AF07
:101DC000DF01A05CBF4F1C9211961D921D921D92C7
:101DD0001C92139714961C9211961D921D921D929F
:101DE0001C92139714961D921D921D921C9213978C
:101DF00014961D921D921D921C92139714961C927C
:101E000011961D921D921D921C92139714961D926D
:101E10001D921D921C92139714961D921D921D9255
:101E20001C92139714961D921D921D921C9213974B
:101E300014961D921D921D921C92139714961D923A
:101E40001D921D921C92139714961D921D921D9225
:101E50001C92139714961D921D921D921C9213971B
:101E600014961C9211961C9211961C9211961C921B
:101E700011961C9211961C9211961C9211961C920E
:101E800011961C9211961C9211961C921682158224
:101E9000108617821286118614861386168615867A
:101EA000108A1786128A118A148A138A119685E37A
:101EB0009CE011969C938E93129611961C921E9202
:101EC000129681E39CE011969C938E931296119644
:101ED0001C921E9212968DE29CE011969C938E931A
:101EE000129611961C921E92129689E29CE08D9396
:101EF0009C93E457FF4F118210820895089508952E
:101F0000089508958FEF9FEF089508950895089517
:101F10000895CF93DF93D0E0C0E0CE010E94D001BE
:101F2000882319F0CE010E945E022196C13ED105A0
:101F3000A1F7DF91CF91089508950F931F93CF9349
:101F4000DF938B01EA01AB01415051094433510544
:101F500008F0E9C02230310508F0E5C048E3429FAF
:101F6000F001439FF00D1124E80FF91FE60FF71F52
:101F700081E080836C2F232B09F4D2C061E0802F95
:101F8000E9D9209749F460E0802FB7D9CE01DF91DD
:101F9000CF911F910F910895CF3FD10511F461E0CA
:101FA000BFC0F801E35BFD4FE491E150E23108F07E
:101FB000B2C0F0E08827E052F04F8F4F0C94EE5AF9
:101FC000F20FF90FFE0F081012108B101C102410C6
:101FD0002C10361040104A10591063108B106D10E1
:101FE0007710811084B5806884BDC7BDD0E0C0E0A3
:101FF000CDCF84B5806284BDC8BDF8CF809180000C
:10200000806880938000D0938900C0938800EECFD1
:1020100080918000806280938000D0938B00C09379
:102020008A00E4CF80918000886080938000D09304
:102030008D00C0938C00DACF8091B00080688093CF
:10204000B000C093B300D2CF8091B0008062809383
:10205000B000C093B400CACF809190008068809394
:102060009000D0939900C0939800C0CF80919000C9
:10207000806280939000D0939B00C0939A00B6CF6B
:1020800080919000886080939000D0939D00C093D1
:102090009C00ACCF8091A00080688093A0008091CC
:1020A000A0008F7B8093A000D093A900C093A800CC
:1020B0009DCF8091A00080628093A000D093AB0060
:1020C000C093AA0093CF8091A00088608093A00065
:1020D000D093AD00C093AC0089CF8091200180687F
:1020E00080932001D0932901C09328017FCF809154
:1020F0002001806280932001D0932B01C0932A019C
:1021000075CF80912001886080932001D0932D01AC
:10211000C0932C016BCF60E0C038D1050CF03FCFED
:10212000802FEBD863CFC1E0D0E030CF0895CF93BC
:10213000DF93EC01FC01E859FC4F1082EE58F109E5
:102140008081811103C0CE014096F6DBFE01E5528D
:10215000FD4F8081811104C0CE0182569F4FECDB80
:10216000FE01E452FD4F8081811104C0CE01845DE7
:102170009E4FE2DB64E670E080E090E0DF91CF917B
:1021800055C9089508950895089508958FB7F8944E
:10219000809137098FBF08954F925F926F927F921F
:1021A0008F929F92AF92BF92CF92DF92EF92FF9267
:1021B000CF93DF93EC016C897D898E899F89888814
:1021C0009988AA88BB88CE8CDF8C0D2C000CEE0879
:1021D000FF08603127E272078105910529F0161684
:1021E000170618061906ACF0A7019601C501B4013F
:1021F0000E94C05ADF91CF91FF90EF90DF90CF9077
:10220000BF90AF909F908F907F906F905F904F9016
:1022100008950E94315820E030E44CE157E40E94D8
:102220001F5A2B013C01488E598E6A8E7B8EC50148
:10223000B4010E943158A30192010E9490584B01B1
:102240005C01C701B6010E9431589B01AC01C50178
:10225000B4010E9490580E94875ACCCF2F923F928F
:102260004F925F926F927F928F929F92AF92BF92A6
:10227000CF92DF92EF92FF920F931F93CF93DF9352
:1022800000D01F92CDB7DEB79C838B834B015A01E0
:102290001901FA82E982FA014080518062807380DC
:1022A00020E030E0A901C301B2010E94B85A18161B
:1022B00074F4F6012081318142815381C301B2015E
:1022C0000E94BA59F5016083718382839383F80178
:1022D0004080518062807380F401A68DB78D208983
:1022E0003189428953890E9483596B017C01EB81BA
:1022F000FC81EC58FF4F8081882309F440C0C4144E
:10230000D504E604F7040CF440C0F801C082D18281
:10231000E282F3828B819C81865B9F4F9C838B83BF
:10232000FC0180819181A281B381F101808391833D
:10233000A283B383E981FA8180819181892B41F065
:10234000C4012ADFEB81FC816083718382839383E4
:102350000F900F900F900F90DF91CF911F910F91E1
:10236000FF90EF90DF90CF90BF90AF909F908F90B5
:102370007F906F905F904F903F902F9008954C14F6
:102380005D046E047F040CF0C0CFF50140805180E5
:102390006280738020E030E04AEF56E4C301B2016E
:1023A0000E942B5887FFB1CF20E030E040E85FE388
:1023B000C301B2010E94BB59F5016083718382831E
:1023C0009383A3CFFC0111821082138212821582A3
:1023D000148217821682108611861286138614863E
:1023E000158616861786108A118A128A138A108E0D
:1023F000118E128E138E158E148E178E168E10A2BD
:1024000011A212A213A214A215A216A217A210A61C
:1024100011A612A613A614A615A681E090E097A710
:1024200086A780E197E2A0E0B0E0848B958BA68B35
:10243000B78B08958EBD00000DB407FEFDCF8EB59D
:102440000895CF93DF93EC01188A198A1A8A1B8AA0
:1024500083E590E00E94B70760E086E10E947D0975
:1024600083E090E00197F1F78EA58295807FE2DF0F
:102470008FE090E00197F1F761E086E1DF91CF9185
:102480000C947D09CF92DF92EF92FF920F931F93EE
:10249000CF93DF938C0183E590E00E94B70760E063
:1024A00086E10E947D0983E090E00197F1F7F80151
:1024B00086A597A524E0880F991F2A95E1F78F60DC
:1024C000B9DF8FE090E00197F1F7C4E0D0E0C12CD4
:1024D000D12C7601FE2CED2CDC2CCC2481E0AADF63
:1024E000C82A2197B9F761E086E10E947D09F801C9
:1024F000C08AD18AE28AF38ADF91CF911F910F912E
:10250000FF90EF90DF90CF900895CF93DF93EC0191
:1025100083B183B1E0E0F1E080818081CE01865417
:102520009E4FB0DF83B183B180B180B1CE018651BF
:102530009E4FA8DF83B183B180B180B1CE01865EAA
:102540009D4FDF91CF919ECF0895089508950895EE
:1025500080911D0890911E08892BE1F585E390E09C
:102560000E94B252FC0181E090E0A0E0B0E08083E4
:102570009183A283B38384839583A683B783808763
:102580009187A287B3871586148616861786108AC8
:10259000118A128A138A148A158A168A178A108E4B
:1025A000118E138E128E12A213A214A215A217A2BC
:1025B00016A210A611A612A613A614A615A616A654
:1025C00017A610AA11AA12AA13AA14AAF0931E08F9
:1025D000E0931D0880911D0890911E080895CF93E7
:1025E000DF93B6DFEC0185E40E94550921E0892BD9
:1025F00009F420E02C8FACDFEC0184E40E94550943
:1026000021E0892B09F420E02D8FA2DFEC0183E487
:102610000E94550921E0892B09F420E02E8F98DFD4
:10262000EC0182E40E94550921E0892B09F420E0A5
:102630002F8F8EDFEC0181E40E94550921E0892B68
:1026400009F420E028A384DFEC0180E40E9455090E
:1026500021E0892B09F420E029A3DF91CF9108958F
:1026600077DFBDCF75DFFC0114AA90E080E008950C
:102670008091190890911A08892B41F481E090E02B
:102680000E94B25290931A088093190880911908F9
:1026900090911A0808950F931F93CF93DF938B01A6
:1026A000E7DFF801C2A1D3A1868D978D8530910512
:1026B00029F14CF40497B1F090E080E0DF91CF91E4
:1026C0001F910F9108958630910511F10B97A1F795
:1026D0006BE070E083EF9DE00E94CF0ABE0183EFC4
:1026E0009DE009C064E070E08AEE9DE00E94CF0AA0
:1026F000BE018AEE9DE00E94530ADECF65E070E0E5
:102700008DEE9DE00E94CF0ABE018DEE9DE0F3CFDD
:1027100066E070E080EF9DE00E94CF0ABE0180EF8E
:102720009DE0E9CF8091170890911808892B91F4CA
:1027300080E790E00E94B252FC0131969C012B5C34
:102740003F4F119217AAE217F307D9F79093180891
:102750008093170880911708909118080895CF93D7
:10276000DF93EB01DFDF6AA98E8D0E94AA0990E05A
:1027700080E0DF91CF9108954F925F926F927F92A8
:10278000AF92BF92CF92DF92EF92FF920F931F937F
:10279000CF93DF93EB01C6DF8C01CAA8DBA84EA460
:1027A0005FA468A879A8AEA0BFA0EE8CFF8C4AA158
:1027B0005BA19601B701C1DBC301B2010E94160AF9
:1027C0009601A501B701C801B8DB90E080E0DF9178
:1027D000CF911F910F91FF90EF90DF90CF90BF901E
:1027E000AF907F906F905F904F900895CF93DF935D
:1027F000EB0198DF2AA93BA94AA15BA16E8D7F8DD1
:102800009CDB90E080E0DF91CF910895FC01019086
:102810000020E9F73197AF01481B590BBC018CEB45
:102820009CE00C94BA078F929F92AF92BF920F9345
:102830001F93CF93DF93CDB7DEB7A1970FB6F89470
:10284000DEBF0FBECDBF19A2423008F44AE08E01B0
:102850000F5D1F4F842E912CB12CA12CA50194014A
:102860000E948959E62FB901CA01EA30ECF4E05D13
:10287000D801EE938D01232B242B252B79F790E0A3
:1028800080E0109711F0CD01C1DFA1960FB6F8944A
:10289000DEBF0FBECDBFDF91CF911F910F91BF90D3
:1028A000AF909F908F900895E95CE2CFAFCF8823DF
:1028B00019F08CE697E0FACF85E697E0FCCFCF924F
:1028C000DF92EF92FF92CF93DF9397FF18C06B01D7
:1028D0007C018DE20E949B08EC0166277727CB01E3
:1028E0006C197D098E099F094AE09DDF8C0F9D1FA1
:1028F000DF91CF91FF90EF90DF90CF9008954AE065
:10290000DF91CF91FF90EF90DF90CF908CCFBC0103
:10291000990F880B990BD3CFCF93DF93EC0188E904
:1029200093E0C4DF6AA17BA18CA19DA1C8DF80EEEA
:1029300097E0DF91CF91BACF0F931F93CF93DF939F
:102940008C01EB018AE793E0B1DF8EE596E0AEDF24
:10295000F80180810E949B08CE01D9DFF9DDDF916B
:10296000CF911F910F91D8CFEF92FF920F931F93AA
:10297000CF93DF93182F092F7B016115710569F53E
:102980000E94550931E020E0019709F030E0C32FA3
:10299000D22F82E0E816F10408F045C08BE993E0FD
:1029A00085DF8EE596E082DF8FE993E07FDF812F80
:1029B000902FADDF8EE596E079DF81E198E076DF5C
:1029C000CE01A5DFC5DDA8DF90E080E0DF91CF91EB
:1029D0001F910F91FF90EF900895D0E0C0E061301B
:1029E0007105B9F6812F163310F08AEC810F209112
:1029F0007B00982F9870277F922B90937B00877095
:102A0000806480937C0080917A00806480937A0057
:102A100080917A0086FDFCCF80917800C09179008A
:102A2000DC2FC82FB6CF81E090E0D0CF0F931F935B
:102A3000CF93DF93FC012081318121153105C1F154
:102A4000EC01822F0E94550921E0892B09F420E036
:102A50002B876A85261701F11E821F821886198628
:102A60000E811F81288539858A819B81AC81BD813A
:102A7000081719072A073B07DCF081E068278881DF
:102A80000E947D094FDE70E060E088819981DF91CE
:102A9000CF911F910F9168CF8E819F81A885B985B5
:102AA0000196A11DB11D8E839F83A887B987D8CFBA
:102AB000DF91CF911F910F910895CF93DF93EB0199
:102AC00031DE6AA97BA98E8D9F8D4EDF90E080E07C
:102AD000DF91CF910895CF93DF93EC0181EA93E0EA
:102AE000E5DE85EA93E0E2DE8C8DE1DE89EA93E0C3
:102AF000DDDE8D8DDCDE8DEA93E0D8DE8E8DD7DED7
:102B000081EB93E0D3DE8F8DD2DE85EB93E0CEDEDA
:102B100088A1CDDE89EB93E0C9DE89A1C8DECE01B4
:102B2000DF91CF91F9CE14DDD6CF8DEB93E0BEDEF1
:102B30000FDD55DD0DDDCFDFF5DD70E060E088E015
:102B400090E012DFEFDD70E060E089E090E00CDF04
:102B5000E9DD70E060E08AE090E006DFE3DD70E050
:102B600060E08DE090E000DF90E080E0089584EC8C
:102B700093E09CDE8AE292E099DE8AE092E096DEC3
:102B800089EC93E093DEE4DCC7DE90E080E008951A
:102B9000CF92DF92EF92FF92CF93DF93EB01CB01C5
:102BA0000E94D001882351F1FE01EE0FFF1FEE0FAE
:102BB000FF1FE85CF64FC080D180E280F38083ED98
:102BC00093E074DE8EE596E071DE8FE993E06EDED1
:102BD000CE019DDE8EE596E069DE81E198E066DE5D
:102BE000C701B6016CDEB4DC97DE90E080E0DF91D7
:102BF000CF91FF90EF90DF90CF90089587ED93E015
:102C000055DEF3CF0F931F93CF93DF938C01D0E06A
:102C1000C0E0CE010E94D001882319F0BE01C80196
:102C2000B7DF2196C13ED105A1F7DF91CF911F916A
:102C30000F9108952F923F924F925F926F927F92E1
:102C40008F929F92AF92BF92CF92DF92EF92FF92BC
:102C50000F931F93CF93DF9300D000D01F921F924A
:102C6000CDB7DEB71C01FC01E958FF4F1082319649
:102C7000108287589F4FFC011082D101A658BF4F88
:102C80001C923396108226013701441A550A660AAF
:102C9000770A49825A826B827C8277FE0CC07094DC
:102CA000609450944094411C511C611C711C4982D9
:102CB0005A826B827C824C155D056E057F0534F56A
:102CC00068017901C41AD50AE60AF70A49805A80D0
:102CD0006B807C8075946794579447944D825E8294
:102CE0006F827886810104581F4F49805A806B801B
:102CF0007C804C145D046E047F0488F4F10160A4B0
:102D000071A481E08C93F801808327C0B901A801E8
:102D10004C195D096E097F096A017B01D7CF4D808F
:102D20005E806F8078844C145D046E047F0408F428
:102D3000C6C04AA05BA06CA07DA04C145D046E04CC
:102D40007F040CF083C06E8C7F8C2FEF621A720AA6
:102D500021E0FC012083F8012083F1018481882394
:102D600009F45AC00E94470AF10102811381012E21
:102D7000000C220B330B601B710B820B930B693E13
:102D800073408105910508F447C00E94470AF1018C
:102D90007383628389EF93E089DD8DEF93E086DDB5
:102DA00060E070E0CB018BDD83E094E07FDDC70164
:102DB000B60185DD89E094E079DD69817A818B81D6
:102DC0009C817DDD8FE094E071DD4AE06D817E8144
:102DD0008F81988528DD86E194E068DD6AA17BA17A
:102DE0008CA19DA16CDD8CE194E060DDC501B40196
:102DF00066DD82E294E05ADD6E8D7F8D88A199A117
:102E00005EDD88E294E052DD8EE596E04FDDC301A1
:102E10007EDD80EE97E04ADDC30128960FB6F89478
:102E2000DEBF0FBECDBFDF91CF911F910F91FF90FD
:102E3000EF90DF90CF90BF90AF909F908F907F905A
:102E40006F905F904F903F902F900895C701B6010B
:102E50000E9431582B013C016AA17BA18CA19DA14C
:102E60000E9431589B01AC01C301B2010E941F5A5C
:102E70002B013C016E8D7F8D88A199A1681979097C
:102E80008A099B090E9431589B01AC01C301B20120
:102E90000E9490582B013C01C501B4010E94315899
:102EA0009B01AC01C301B2010E94BB590E94875A29
:102EB0003B0181E0F101E958FF4F808324CF8981F4
:102EC0009A81AB81BC814AA05BA06CA07DA08419D3
:102ED0009509A609B709C816D906EA06FB0654F4EF
:102EE0006E8C7F8C22E0620E711C81E0F101E7584C
:102EF000FF4FE3CF69817A818B819C816C197D09B9
:102F00008E099F090E9431582B013C016AA17BA1C7
:102F10008CA19DA10E9431589B01AC01C301B2015B
:102F20000E941F5A2B013C016E8D7F8D88A199A1B3
:102F3000681979098A099B090E9431589B01AC01E3
:102F4000C301B2010E9490582B013C01C501B4019C
:102F50000E9431589B01AC01C301B2010E94BB59D0
:102F60000E94875A3B0181E0F101E858FF4FA5CF4D
:102F70002F923F924F925F926F927F928F929F9289
:102F8000AF92BF92CF92DF92EF92FF920F931F9377
:102F9000CF93DF9300D01F92CDB7DEB79C838B8396
:102FA000865B9F4F9A838983DC014D915D916D9182
:102FB0007C910B811C81025B1F4FF8018081918104
:102FC000A281B381CB80DC80F2E5CF0ED11CF6016B
:102FD000F0802B813C812C583F4F5901EB81FC81C3
:102FE000EB58FF4F3F01FF2009F441C0EB81FC810A
:102FF00020ADF501208321E0F30120834115510527
:1030000061057105A1F42081EB81FC81E559FF4F39
:103010007F01EB81FC81222309F451C084A095A09B
:10302000A6A0B7A0F70180829182A282B3828B8092
:103030009C80F6E48F0E911CF40120803180428048
:1030400053802B813C812D583F4F5901281639065A
:103050004A065B06CCF5481759076A077B07F4F167
:10306000D6018C9181113AC0D5011C92C9C021E0D2
:10307000481759076A077B070CF020E0F501208309
:103080001A012B0177FF07C0222433242101241ABF
:10309000350A460A570A4C015D01B7FF07C088246C
:1030A00099245401881A990AAA0ABB0A21E0281413
:1030B00039044A045B040CF09FCF20E09DCF80A030
:1030C00091A0A2A0B3A0AECF82159305A405B5052B
:1030D0003CF684179507A607B70714F6F50180811B
:1030E000882311F2D6018C9181110FC0F6018081E5
:1030F0008111BACFD3016C9181E068278B819C81CB
:103100000E94410D8111B0CF07C060E08B819C818E
:103110000E94410D8111EACFD801CD90DD90ED9054
:10312000FC90E981FA810081118122813381D401EF
:103130004D915D916D917C91D301EC918B819C813E
:1031400085599F4F3C01E11127C0AB81BC8190960E
:103150008D909D90AD90BC9093979F96EC919F978A
:10316000EF939E96EC919E97EF939D96EC919D9791
:10317000EF939C96EC919C97EF935B96EC915B9709
:10318000EF935A96EC915A97EF935996EC91599781
:10319000EF935896EC9124C0EB81FC8184A095A01C
:1031A000A6A0B7A0E3A9EF93AB81BC81D296EC9126
:1031B000D297EF93D196EC91D197EF93D096EC9173
:1031C000D097EF935F96EC915F97EF935E96EC91BB
:1031D0005E97EF935D96EC915D97EF935C96EC9123
:1031E000EF938B819C8126DDB0E0A0E0F30180832A
:1031F0009183A283B3830FB6F894DEBF0FBECDBF19
:1032000060E08B819C810E94410D882331F0E9812F
:10321000FA8110821182128213820F900F900F9008
:103220000F90DF91CF911F910F91FF90EF90DF9062
:10323000CF90BF90AF909F908F907F906F905F9056
:103240004F903F902F9008954F925F926F927F9290
:103250008F929F92AF92BF92CF92DF92EF92FF92A6
:103260000F931F93CF936B017C01742EAC019B01D4
:103270000E94BC5A882391F08EE294E0CF911F9176
:103280000F91FF90EF90DF90CF90BF90AF909F9005
:103290008F907F906F905F904F90B8CA4601570112
:1032A000E894B7F82FEF3FEF4FE75FE7C501B401B0
:1032B0000E94BC5A81110DC02FEF3FEF4FE75FE72F
:1032C000C501B4010E942B5818161CF482E394E047
:1032D000D5CF2FEF3FEF4FE75FE4C701B6010E9464
:1032E000B85A18161CF486E394E0C8CF2FEF3FEFCE
:1032F0004FE75FECC701B6010E942B5887FDF3CF63
:1033000020E030E0A901C701B6010E942B5810E06F
:1033100000E087FF08C08DE20E949B088C01F7FA4D
:10332000F094F7F8F094C0E060E070E080E09FE394
:103330007C1641F020E030E040E251E40E941F5A48
:10334000CF5FF6CFA70196010E94BB592B013C012C
:103350000E948C5A4B015C014AE065DA7C01E00E68
:10336000F11ECC23A9F1C501B4010E942F589B0185
:10337000AC01C301B2010E94BA594B015C018EE25B
:103380000E949B08E80EF91EC15010F120E030E0C9
:1033900040E251E4C501B4010E9490582B013C0168
:1033A0000E948C5A4B01B12CA12C4AE0C501B401FA
:1033B0003ADAE80EF91EC501B4010E942F589B01AC
:1033C000AC01C301B2010E94BA594B015C01DCCFD0
:1033D000C701CF911F910F91FF90EF90DF90CF9099
:1033E000BF90AF909F908F907F906F905F904F9025
:1033F0000895CF92DF92EF92FF92CF93DF93EC018B
:1034000088819981AA81BB81181619061A061B06A4
:1034100044F081E090E0A0E0B0E088839983AA8343
:10342000BB838C819D81AE81BF81181619061A0657
:103430001B0644F081E090E0A0E0B0E08C839D8327
:10344000AE83BF8388859985AA85BB851816190622
:103450001A061B0644F081E090E0A0E0B0E0888707
:103460009987AA87BB878AE394E020DA8FE494E007
:103470001DDA6E857F85888999890E9431586B0194
:103480007C01688179818A819B810E9431589B01EE
:10349000AC01C701B6010E941F5A42E0D5DE8FE59C
:1034A00094E004DA6A897B898C899D890E9431586D
:1034B0006B017C016C817D818E819F810E943158DE
:1034C0009B01AC01C701B6010E941F5A42E0BCDE5D
:1034D0008FE694E0EBD96E897F89888D998D0E9463
:1034E00031586B017C01688579858A859B850E94AE
:1034F00031589B01AC01C701B6010E941F5A42E03E
:10350000A3DECE01DF91CF91FF90EF90DF90CF90BF
:1035100003CA1ED86EDF90E080E008958F929F92DC
:10352000AF92BF92CF92DF92EF92FF920F931F93D1
:10353000CF93DF93EC018AE392E0B8D98FE494E073
:10354000B5D96E0186E4C81A8EEFD80AC6010E946A
:10355000CC100E9431584B015C01FE01E550FD4F3B
:1035600060817181828193810E9431589B01AC01FD
:10357000C501B4010E941F5A42E066DE8FE594E067
:1035800095D97E01E6E1EE1AEEEFFE0AC7010E9430
:10359000CC100E9431584B015C01FE01E150FD4FFF
:1035A00060817181828193810E9431589B01AC01BD
:1035B000C501B4010E941F5A42E046DE8FE694E046
:1035C00075D98E01065E1D4FC8010E94CC100E9465
:1035D00031584B015C01CD5FDC4F688179818A8174
:1035E0009B810E9431589B01AC01C501B4010E942E
:1035F0001F5A42E029DE0E94A8128ED986E392E08B
:1036000055D98FE494E052D9F601A68DB78D208963
:103610003189428953890E94835951D98FE594E0B9
:1036200045D9F701A68DB78D208931894289538903
:103630000E94835944D98FE694E038D9F801A68DC9
:10364000B78D20893189428953890E94835937D99E
:103650000E94A812DF91CF911F910F91FF90EF90E0
:10366000DF90CF90BF90AF909F908F9055C9CF9231
:10367000DF92EF92FF920F931F93CF93DF938C0112
:103680006A017B01EC01CC0FDD1F642FCE010E948B
:103690004F599927F7FC9A958F2D7E2D6D2DCE01D0
:1036A00001960E944F590D5811090330110588F4F5
:1036B000B701992777FD9095892FCE0144960E94F6
:1036C0004F596F2D772788279927CE0145960E945D
:1036D0004F5990E080E0DF91CF911F910F91FF90C3
:1036E000EF90DF90CF9008954F925F926F927F920C
:1036F0008F929F92AF92BF92CF92DF92EF92FF9202
:103700000F931F93CF93DF938C01EC01CC0FDD1F40
:10371000CE010E944759882E912CB12CA12CCE01AC
:1037200001960E944759C82ED12CF12CE12C0D583E
:1037300011090330110508F05AC0CE0144960E94C9
:103740004759482E512C712C612CCE0145960E9470
:103750004759082F10E030E020E08FEF4816510461
:103760006104710429F50F3F11052105310501F5AB
:103770008FEF88169104A104B104C9F58FEFC81624
:10378000D104E104F10499F56FEF7FEFCB01DF91F4
:10379000CF911F910F91FF90EF90DF90CF90BF904E
:1037A000AF909F908F907F906F905F904F90089513
:1037B00000381105210531053CF7FE2CED2CDC2CE1
:1037C000CC24C701B601680D791D8A1D9B1D3201ED
:1037D00055244424640D751D861D971D302F222706
:1037E00011270027600F711F821F931FD0CF00E0A9
:1037F00010E09801412C512C320180E8C816D10408
:10380000E104F104D4F2C0CFEF92FF920F931F9323
:10381000CF93DF9380911B0890911C08892B51F561
:1038200086E090E00E94B2527C0190E080E05CDF94
:103830001616170654F1C7010E94890FD0E0C0E0A8
:10384000CE010E94D001882369F0FE01EE0FFF1F18
:10385000EE0FFF1FE85CF64F40815181628173815A
:10386000CE0105DF2196C639D10551F7F0921C082B
:10387000E0921B0880911B0890911C08DF91CF916A
:103880001F910F91FF90EF90089583E090E02CDF5F
:10389000613071058105910531F508E319E0D0E04B
:1038A000C0E0CE010E94D0018823B1F0CE011CDF20
:1038B000F80160837183828393836F3F7F4F8F4FC3
:1038C0009F4F51F4CE010E945E02F8014081518168
:1038D00062817381CE01CBDE21960C5F1F4FC13E0A
:1038E000D105F9F6C3CFC7010E94890FBFCF8CDF86
:1038F00089D98EE394E00E9456140E94A8120CD835
:1039000090E080E00895CF92DF92EF92FF920F93C4
:103910001F93CF93DF937C016B018A01E90174DF70
:10392000F601EE0FFF1FEE0FFF1FE85CF64F8081E0
:103930009181F7019183808367DF000F111F000FD2
:10394000111FF801E85CF64F81E0408151816281EE
:103950007381413051056105710509F080E0F7017F
:10396000828752DFCC0FDD1FCC0FDD1FC85CD64F26
:1039700088819981AA81BB81F70182839383A48383
:10398000B5831682178210861186DF91CF911F9121
:103990000F91FF90EF90DF90CF900895CF93DF933A
:1039A000EC012AEC30E04BEC50E069EC70E0ABDF6E
:1039B0002EEC30E04FEC50E06DEC70E0CE010C9658
:1039C000A2DF24ED30E045ED50E063ED70E0CE0184
:1039D000489699DF28ED30E049ED50E067ED70E062
:1039E000CE01849690DF2EED30E04FED50E06DED8E
:1039F00070E0CE01C096DF91CF9185CFCF93DF935A
:103A000080911F0890912008892BA1F48CE390E00D
:103A10000E94B252EC01198218821D861C86198EF2
:103A2000188E1DA21CA219AA18AAB8DFD0932008CC
:103A3000C0931F0880911F0890912008DF91CF91BB
:103A400008952F923F924F925F926F927F928F9242
:103A50009F92AF92BF92CF92DF92EF92FF920F931D
:103A60001F93CF93DF93EC01CFDEFE01EF5CFC4FA1
:103A70008091F40A9091F50A91838083C5DEFE015E
:103A8000ED5CFC4F8091F80A9091F90A9183808354
:103A9000BBDEFE01EB5CFC4F8091FC0A9091FD0ABD
:103AA00091838083B1DE8E01095C1C4F60911C0BF9
:103AB00070911D0B80911E0B90911F0B0E9431582D
:103AC000F80160837183828393839EDE1E01F5EC8F
:103AD0002F1AFCEF3F0A6091200B7091210B80910F
:103AE000220B9091230B0E943158F1016083718366
:103AF0008283938389DE20E030E048EC52E4F801D1
:103B000060817181828193810E941F5A2B013C0147
:103B100020E030E048EC52E4F10160817181828163
:103B200093810E941F5A4B015C016091240B70919C
:103B3000250B8091260B9091270B0E94315820E095
:103B400030E048EC52E40E941F5A6B017C012AE0ED
:103B500037ED43E25CE3C301B2010E94B85A181684
:103B60000CF02BC120E030E046EC52E4C301B2017E
:103B70000E942B5887FD06C0412C512C56EC652E17
:103B800052E4752EF80140825182628273822AE0EB
:103B900037ED43E25CE3C501B4010E94B85A181640
:103BA0000CF014C120E030E046EC52E4C501B40151
:103BB0000E942B5887FD06C0812C912C36ECA32E39
:103BC00032E4B32EF10180829182A282B3822AE094
:103BD00037ED43E25CE3C701B6010E94B85A1816FC
:103BE0000CF0FDC020E030E046EC52E4C701B60125
:103BF0000E942B5887FD06C0C12CD12C96ECE92ED3
:103C000092E4F92EFE01E15CFC4FC082D182E28297
:103C1000F382FADD8091DC0A9091DD0AFE01EA5B15
:103C2000FC4F91838083F0DD8091E00A9091E10A5E
:103C3000FE01E85BFC4F91838083E6DD8091E40A1E
:103C40009091E50AFE01E65BFC4F91838083DCDD09
:103C50008091040B9091050BA091060BB091070B7E
:103C6000FE01E45BFC4F80839183A283B383CCDDB0
:103C70008091080B9091090BA0910A0BB0910B0B4E
:103C8000FE01E05BFC4F80839183A283B383BCDDA4
:103C900080910C0B90910D0BA0910E0BB0910F0B1E
:103CA000FE01EC5AFC4F80839183A283B383ACDD89
:103CB00080912C0B90912D0BFE01E85AFC4F9183C3
:103CC0008083A2DD8091300B9091310BFE01E65A8A
:103CD000FC4F9183808398DD8091340B9091350B5C
:103CE000FE01E45AFC4F918380838EDD8091440B6A
:103CF0009091450BFE01E25AFC4F9183808384DD55
:103D00008091480B9091490BFE01E05AFC4F918342
:103D100080837ADD80914C0B90914D0BFE01EE5922
:103D2000FC4F9183808370DD8091CC0A9091CD0A05
:103D3000A091CE0AB091CF0AFE01ED5BFC4F019736
:103D4000A105B10509F054C081E080835DDD80915B
:103D5000D00A9091D10AA091D20AB091D30AFE0163
:103D6000EC5BFC4F0197A105B10509F043C081E070
:103D700080834ADD8091D40A9091D50AA091D60A19
:103D8000B091D70ACB5BDC4F0197A105B105A1F536
:103D900081E08883DF91CF911F910F91FF90EF9089
:103DA000DF90CF90BF90AF909F908F907F906F905B
:103DB0005F904F903F902F9008954AE0442E47ED3A
:103DC000542E43E2642E4CE3742EDCCE2AE0822E85
:103DD00027ED922E23E2A22E2CE3B22EF3CE8AE020
:103DE000C82E87EDD82E83E2E82E8CE3F82E0ACF7A
:103DF0001082ACCF1082BDCF1882CCCF2F923F92D1
:103E00004F925F926F927F928F929F92AF92BF92EA
:103E1000CF92DF92EF92FF920F931F93CF93DF9396
:103E2000CDB7DEB76F970FB6F894DEBF0FBECDBF2C
:103E30009B8F8A8FE9DCEA8DFB8DEB59FD4F81E08A
:103E40004091040A5091050A6091060A7091070A90
:103E5000452B462B472B09F480E08083D5DCEA8D87
:103E6000FB8DEA59FD4F81E04091080A5091090A03
:103E700060910A0A70910B0A452B462B472B09F4D7
:103E800080E08083C1DCEA8DFB8DE959FD4F81E044
:103E900040910C0A50910D0A60910E0A70910F0A20
:103EA000452B462B472B09F480E08083ADDC8091C5
:103EB000540A9091550AA091560AB091570AEA8D7A
:103EC000FB8DE859FD4F80839183A283B3839CDCF3
:103ED0008091580A9091590AA0915A0AB0915B0AB0
:103EE000EA8DFB8DE459FD4F80839183A283B383D8
:103EF0008BDC80915C0A90915D0AA0915E0AB09182
:103F00005F0AEA8DFB8DE059FD4F80839183A28388
:103F1000B3837ADC8091540A9091550AA091560A95
:103F2000B091570AEA8DFB8DEC58FD4F8083918349
:103F3000A283B38369DC8091580A9091590AA091B9
:103F40005A0AB0915B0AEA8DFB8DE858FD4F8083D9
:103F50009183A283B38358DC8091600A9091610AB7
:103F6000A091620AB091630AEA8DFB8DE458FD4F7F
:103F700080839183A283B38347DC80912C0A909144
:103F80002D0AA0912E0AB0912F0AEA8DFB8DE457DD
:103F9000FD4F80839183A283B38336DC8091300A06
:103FA0009091310AA091320AB091330AEA8DFB8DCB
:103FB000E057FD4F80839183A283B38325DC8091FA
:103FC000340A9091350AA091360AB091370AEA8DE9
:103FD000FB8DEC56FD4F80839183A283B38314DC69
:103FE00080912C0A90912D0AA0912E0AB0912F0A4F
:103FF000EA8DFB8DE856FD4F80839183A283B383C6
:1040000003DC8091300A9091310AA091320AB0917C
:10401000330AEA8DFB8DE456FD4F80839183A283A2
:10402000B383F2DB8091380A9091390AA0913A0A61
:10403000B0913B0AEA8DFB8DE056FD4F8083918362
:10404000A283B383E1DB80913C0A90913D0AA09169
:104050003E0AB0913F0AEA8DFB8DEC55FD4F8083FF
:104060009183A283B383D0DB8091400A9091410A6F
:10407000A091420AB091430AEA8DFB8DE855FD4FAD
:1040800080839183A283B383BFDB8091440A9091A4
:10409000450AA091460AB091470AEA8DFB8DE45586
:1040A000FD4F80839183A283B383AEDB8091DC09D3
:1040B0009091DD09A091DE09B091DF09EA8DFB8DB9
:1040C000E055FD4F80839183A283B3839DDB809174
:1040D000E0099091E109A091E209B091E309EA8D2C
:1040E000FB8DEC54FD4F80839183A283B3838CDBE3
:1040F0008091E4099091E509A091E609B091E70962
:10410000EA8DFB8DE854FD4F80839183A283B383B6
:104110007BDB8091DC099091DD09A091DE09B091F3
:10412000DF09EA8DFB8DE454FD4F80839183A283E8
:10413000B3836ADB8091E0099091E109A091E209E3
:10414000B091E309EA8DFB8DE054FD4F80839183AC
:10415000A283B38359DB8091E8099091E909A0918A
:10416000EA09B091EB09EA8DFB8DEC53FD4F80839A
:104170009183A283B38348DBEA8DFB8DE853FD4F27
:1041800081E02091B4093091B5092130310509F061
:1041900080E0808339DBEA8DFB8DE753FD4F81E0C2
:1041A0002091B8093091B9092130310509F080E03A
:1041B00080832ADBEA8DFB8DE653FD4F81E0209161
:1041C000BC093091BD092130310509F080E08083C0
:1041D0001BDBEA8DFB8DEA51FD4F81E040918C099C
:1041E00050918D0960918E0970918F09452B462B56
:1041F000472B09F480E0808307DBEA8DFB8DE951D2
:10420000FD4F81E040919009509191096091920990
:1042100070919309452B462B472B09F480E080834E
:10422000F3DAEA8DFB8DE851FD4F81E0409194096E
:10423000509195096091960970919709452B462BED
:10424000472B09F480E08083DFDAEA8DFB8DE751AC
:10425000FD4F81E04091640A5091650A6091660AC1
:104260007091670A452B462B472B09F480E0808329
:10427000CBDAEA8DFB8DE651FD4F81E04091680A73
:104280005091690A60916A0A70916B0A452B462B1E
:10429000472B09F480E08083B7DAEA8DFB8DE55186
:1042A000FD4F81E040916C0A50916D0A60916E0A59
:1042B00070916F0A452B462B472B09F480E08083D1
:1042C000A3DAEA8DFB8DE451FD4F81E020919C093A
:1042D00030919D092130310509F080E0808394DA26
:1042E000EA8DFB8DE351FD4F81E02091A0093091D3
:1042F000A1092130310509F080E0808385DAEA8D5B
:10430000FB8DE251FD4F81E02091A4093091A50978
:104310002130310509F080E0808376DA80916409EC
:1043200090916509A0916609B0916709EA8DFB8DAE
:10433000E151FD4F80839183A283B38365DA80913D
:10434000680990916909A0916A09B0916B09EA8D99
:10435000FB8DED50FD4F80839183A283B38354DAAC
:1043600080916C0990916D09A0916E09B0916F09CF
:10437000EA8DFB8DE950FD4F80839183A283B38347
:1043800043DAEA8DFB8DE652FD4F81E040917409DE
:10439000509175096091760970917709452B462BEC
:1043A000472B09F480E080832FDAEA8DFB8DE552FC
:1043B000FD4F81E0409178095091790960917A0927
:1043C00070917B09452B462B472B09F480E08083B5
:1043D0001BDAEA8DFB8DE452FD4F81E040917C09B0
:1043E00050917D0960917E0970917F09452B462B84
:1043F000472B09F480E0808307DA80916C0B909161
:104400006D0BA0916E0BB0916F0BEA8DFB8DE55398
:10441000FD4F80839183A283B383F6D98091700B83
:104420009091710BA091720BB091730BEA8DFB8D83
:10443000E153FD4F80839183A283B383E5D98091BB
:10444000740B9091750BA091760BB091770BEA8D60
:10445000FB8DED52FD4F80839183A283B383D4D92A
:10446000EA8DFB8DE352FD4F81E02091CC09309124
:10447000CD092130310509F080E08083EA8DFB8D84
:10448000E252FD4F1082EA8DFB8DE152FD4F10820A
:10449000BBD9EA8DFB8DE052FD4F81E02091C80928
:1044A0003091C9092130310509F080E08083EA8D1F
:1044B000FB8DEF51FD4F1082EA8DFB8DEE51FD4FCC
:1044C0001082A2D9EA8DFB8DED51FD4F81E0209144
:1044D000EC093091ED092130310509F080E080834D
:1044E00093D9EA8DFB8DEC51FD4F81E02091F009CD
:1044F0003091F1092130310509F080E0808384D9C1
:10450000EA8DFB8DEB51FD4F81E02091F409309154
:10451000F5092130310509F080E0808375D9EA8DF5
:10452000FB8DE952FD4F81E020917C0B30917D0B9A
:104530002130310509F080E0808366D9EA8DFB8D5A
:10454000E852FD4F81E02091800B3091810B2130AA
:10455000310509F080E0808357D9EA8DFB8DE75261
:10456000FD4F81E02091840B3091850B2130310586
:1045700009F080E0808348D90A8D1B8D05501D4FBE
:104580008091140A9091150AA091160AB091170A09
:10459000F80180839183A283B38336D9EA8CFB8CA4
:1045A000F1E0EF1AFDEFFF0A8091180A9091190AC5
:1045B000A0911A0AB0911B0AF70180839183A2830C
:1045C000B38322D980911C0A90911D0AA0911E0AE2
:1045D000B0911F0ACA8CDB8CF3E0CF0EDF1EF60110
:1045E00080839183A283B383F801408151816281EA
:1045F0007381141615061606170644F041E050E0C4
:1046000060E070E04083518362837383F7014081EF
:10461000518162817381141615061606170644F03F
:1046200041E050E060E070E0408351836283738337
:10463000181619061A061B064CF081E090E0A0E05F
:10464000B0E0F60180839183A283B3830E94A81215
:10465000FC01D6018D909D90AD90BC90D7014D91FD
:104660005D916D917C91D8010D911D912D913C91A1
:104670000083118322833383448355836683778346
:1046800080869186A286B386EA8DFB8D7096FA832A
:10469000E983EA8DFB8DE952FD4F80808B82EA8DA4
:1046A000FB8DE553FD4F4081518162817381EA8D1D
:1046B000FB8DED51FD4F90809D82EA8DFB8DE45185
:1046C000FD4FA080AC82EA8DFB8DE352FD4FB080A0
:1046D000B986EA8DFB8DE052FD4F20812A87EA8D55
:1046E000FB8DE751FD4F80818E87EA8DFB8DEA516E
:1046F000FD4F90819A8BEA8DFB8DE853FD4F208012
:10470000EA8DFB8DEB59FD4F3080EA8DFB8DE15139
:10471000FD4F0081118122813381EA8DFB8DE055AF
:10472000FD4F80819181A281B381EA8DFB8DEC5593
:10473000FD4FC080D180E280F380EA8DFB8DE4578D
:10474000FD4F80809180A280B380EA8DFB8DE85977
:10475000FD4F4080518062807380EA8DFB8D40A6C2
:1047600051A662A673A680AA91AAA2AAB3AA84AFF0
:1047700095AFA6AFB7AF44A655A666A677A684AAFE
:1047800095AAA6AAB7AAE05CFF4F80839183A28373
:10479000B383AA8DBB8DD896CD92DD92ED92FC921B
:1047A000DB97FD01EC5BFF4F008311832283338392
:1047B0003496308231962082EA899596EC939597CB
:1047C000FE859696FC9396978C8097968C9280E4C3
:1047D00090E0A0E0B0E0EA8DFB8DE45BFF4F8083CA
:1047E0009183A283B383EA8DFB8DE65BFF4F9A84AE
:1047F0009082EA8DFB8DE55BFF4FA984A082EA8D54
:10480000FB8DE05BFF4FBD80B082EA8DFB8DEF5AE0
:10481000FF4F4083518362837383EA8DFB8DEB5A94
:10482000FF4F2B812083AA8DBB8D55968D919C9136
:1048300056978633910509F097C287E29CE0FD0107
:10484000E257FF4F9183808332961182108285E276
:104850009CE0369691838083329611821082EA8D95
:10486000FB8D838D948D4A97D1F483E29CE0EE56C4
:10487000FF4F91838083EA8DFB8DEC56FF4F1182B1
:10488000108281E29CE0EA8DFB8DE656FF4F91831A
:104890008083EA8DFB8DE456FF4F118210820A8DD2
:1048A0001B8D02561F4FEA8DFB8DE852FD4F808015
:1048B0008B82EA8DFB8DE153FD4F80819181A28136
:1048C000B3818D839E83AF83B887EA8DFB8DEC51D6
:1048D000FD4F90819C83EA8DFB8DE351FD4FA081BC
:1048E000A987EA8DFB8DE252FD4FB081BA87EA8D30
:1048F000FB8DEF51FD4F80808E86EA8DFB8DE6515A
:10490000FD4F2080EA8DFB8DE951FD4F3080EA8D0F
:10491000FB8DE753FD4F3081EA8DFB8DEA59FD4F4A
:104920002081EA8DFB8DED50FD4FC080D180E2806B
:10493000F380EA8DFB8DEC54FD4F80819181A28143
:10494000B381EA8DFB8DE855FD4F80809180A28078
:10495000B380EA8DFB8DE057FD4F4081518162812C
:104960007381EA8DFB8DE459FD4F40805180628058
:104970007380F801408E518E628E738E40A351A3D6
:1049800062A373A384A795A7A6A7B7A7448E558E45
:10499000668E778E44A355A366A377A380AB91ABB5
:1049A000A2ABB3AB80A691A6A2A6B3A6C4AAD5AA71
:1049B000E6AAF7AA20AF31AF358A268A8984878A8A
:1049C00080E490E0A0E0B0E084AF95AFA6AFB7AFD1
:1049D0008E8482AE9A8493AEEA8DFB8DE252FF4FB5
:1049E000AC80A082EA8DFB8DE152FF4F8D819E81CC
:1049F000AF81B88580839183A283B383EA8DFB8DD9
:104A0000ED51FF4F9B819083D80115968D919C911C
:104A10008633910509F0DAC187E29CE0EA8DFB8DCF
:104A2000E45EFE4F91838083EA8DFB8DE25EFE4F54
:104A30001182108285E29CE0EA8DFB8DEC5DFE4FD9
:104A400091838083EA8DFB8DEA5DFE4F1182108297
:104A5000F801838594854A97E1F483E29CE0EA8D2E
:104A6000FB8DE05EFE4F91838083EA8DFB8DEE5DD2
:104A7000FE4F1182108281E29CE0EA8DFB8DE85DA1
:104A8000FE4F91838083EA8DFB8DE65DFE4F1182A0
:104A90001082EA8CFB8CF4EDEF1AFEEFFF0AEA8D30
:104AA000FB8DE752FD4F80808B82EA8DFB8DED52AE
:104AB000FD4F80819181A281B3818D839E83AF83DD
:104AC000B887EA8DFB8DEB51FD4F90819C83EA8D79
:104AD000FB8DE251FD4F3080EA8DFB8DE152FD4FA1
:104AE000A081A987EA8DFB8DEE51FD4F2080EA8DD4
:104AF000FB8DE551FD4FC080EA8DFB8DE851FD4FE8
:104B0000D080EA8DFB8DE653FD4F3081EA8DFB8D21
:104B1000E959FD4F2081EA8DFB8DE950FD4F8080E2
:104B20009180A280B3808A869B86AC86BD86EA8D02
:104B3000FB8DEC53FD4F80819181A281B3818E87E3
:104B40009F87A88BB98BEA8DFB8DE854FD4F808041
:104B50009180A280B3808C8E9D8EAE8EBF8EEA8DAA
:104B6000FB8DE455FD4F80819181A281B3818A8BB9
:104B70009B8BAC8BBD8BEA8DFB8DE056FD4F80810E
:104B80009181A281B381EA8DFB8DEC56FD4F40806F
:104B9000518062807380EA8DFB8DE458FD4F408127
:104BA000518162817381EA8DFB8DE059FD4F8080D8
:104BB0009180A280B380F701808E918EA28EB38EF9
:104BC00040A251A262A273A28C8C9D8CAE8CBF8C31
:104BD00084A695A6A6A6B7A6448F558F668F778F15
:104BE00084A395A3A6A3B7A38E849F84A888B9881D
:104BF00080AA91AAA2AAB3AA8A889B88AC88BD88F9
:104C000080A691A6A2A6B3A68A849B84AC84BD8408
:104C100084AA95AAA6AAB7AA20AF31AFD58AC68A18
:104C2000378A80E490E0A0E0B0E084AF95AFA6AF13
:104C3000B7AF22AE898483AEEA8DFB8DE459FE4F77
:104C40009C809082EA8DFB8DE359FE4F8D819E8181
:104C5000AF81B88580839183A283B383EA8DFB8D76
:104C6000EF58FE4F9B819083D70115968D919C91B3
:104C70008633910509F0D2C087E29CE0EA8DFB8D76
:104C8000E655FE4F91838083EA8DFB8DE455FE4F00
:104C90001182108285E29CE0EA8DFB8DEE54FE4F7E
:104CA00091838083EA8DFB8DEC54FE4F118210823C
:104CB000F701838594854A97E1F483E29CE0EA8DCD
:104CC000FB8DE255FE4F91838083EA8DFB8DE0558D
:104CD000FE4F1182108281E29CE0EA8DFB8DEA5446
:104CE000FE4F91838083EA8DFB8DE854FE4F118245
:104CF0001082EA8DFB8DE652FD4F8081882309F4F6
:104D0000B5C089819A810E94AE0CEA8DFB8DE55277
:104D1000FD4F8081882309F4AEC0C8010E94AE0C0B
:104D20008A8D9B8D84529D4FDC018C91882309F4E0
:104D3000A6C0C7016F960FB6F894DEBF0FBECDBFF9
:104D4000DF91CF911F910F91FF90EF90DF90CF9067
:104D5000BF90AF909F908F907F906F905F904F909B
:104D60003F902F900C94AE0C8C339105D9F48FE1C9
:104D70009CE0EA8DFB8DE257FF4F91838083EA8DA3
:104D8000FB8DE057FF4F118210828DE19CE0EA8D90
:104D9000FB8DEA56FF4F91838083EA8DFB8DE856A9
:104DA000FF4F5BCD8E9709F05ACD87E19CE0EA8DED
:104DB000FB8DE257FF4F91838083EA8DFB8DE05797
:104DC000FF4F1182108281E19CE0E1CF8C3391058D
:104DD00089F48FE19CE0EA8DFB8DE45EFE4F9183C8
:104DE0008083EA8DFB8DE25EFE4F118210828DE1A1
:104DF0009CE022CE8E9709F02BCE87E19CE0EA8DD5
:104E0000FB8DE45EFE4F91838083EA8DFB8DE25E35
:104E1000FE4F1182108281E19CE00ECE8C33910511
:104E200089F48FE19CE0EA8DFB8DE655FE4F91837E
:104E30008083EA8DFB8DE455FE4F118210828DE157
:104E40009CE02ACF8E9709F033CF87E19CE0EA8D72
:104E5000FB8DE655FE4F91838083EA8DFB8DE455F3
:104E6000FE4F1182108281E19CE016CF89819A81E8
:104E70000E949C0C4ACFC8010E949C0C51CFC701D4
:104E80006F960FB6F894DEBF0FBECDBFDF91CF9106
:104E90001F910F91FF90EF90DF90CF90BF90AF9058
:104EA0009F908F907F906F905F904F903F902F904A
:104EB0000C949C0CAF92BF92CF92DF92EF92FF9234
:104EC0000F931F93CF93DF93EC018AE190E09E8BC9
:104ED0008D8B8BE190E0988F8F8B89E190E09A8F9A
:104EE000898F8FE090E09C8F8B8F8EE190E09E8F7A
:104EF0008D8F8EE090E098A38F8F85E490E09AA349
:104F000089A384E490E09CA38BA3FE01E256FF4FAB
:104F100080E290E09683858381E290E090878783AA
:104F20008FE190E092878187148613861686158616
:104F3000108A178683E490E0928B818B82E490E064
:104F4000948B838BE257FF4F83E290E096838583B7
:104F500084E290E09087878382E290E09287818765
:104F60001486138616861586108A178681E490E0CB
:104F7000928B818B80E490E0948B838BED5CFE4F71
:104F80001182108232961182108232961182108222
:104F9000CE010E94FE1ECE010E94211DCE0186542C
:104FA0009E4F41E050E0FC0157A746A7DE01A65105
:104FB000BE4F24E030E09F963C932E939E975E0177
:104FC000F6EEAF1AFDEFBF0A28E030E0F50137A793
:104FD00026A720E130E0FC013183208321E130E08D
:104FE000358324832FEF3FEF338322833783268358
:104FF000628560876385618767E170E011967C93C5
:105000006E9368E170E015967C936E9314971396F7
:105010003C932E93129717963C932E9316971A96BD
:105020006C911A9718966C9318971B966C911B9716
:1050300019966C9319976DE170E0F50171836083A7
:105040006CE170E075836483338322833783268326
:105050006285608763856187BE01625A7C4FFB0170
:10506000608171818E01045B1C4FF801C080D1808A
:10507000E280F38006501109F80100811181FC01E2
:10508000158F048FC48AD58AE68AF78A6130710544
:1050900009F04EC0378F268FCE01805A9C4FFC01FD
:1050A000808191819E01205B3C4FF90140815181BB
:1050B0006281738128503109F901208131815D9627
:1050C0003C932E935C9754964D935D936D937C9394
:1050D0005797019781F58FEF9FEF5F969C938E9383
:1050E0005E97DE01AE59BC4F8D919C9111971E9732
:1050F0004D915D916D917C91C65BDC4F288139812A
:10510000F501358F248F448B558B668B778B0197F8
:10511000A9F48FEF9FEF978F868FDF91CF911F912B
:105120000F91FF90EF90DF90CF90BF90AF900895D8
:10513000578F468FB1CF81E090E0CFCF81E090E0F4
:10514000EACF8F929F92AF92BF92CF92DF92EF926F
:10515000FF92CF93DF937B010E94041CEC01F701C7
:1051600082A093A0A4A0B5A0C68CD78CE0A0F1A08B
:105170008A819B818F30F7E29F070CF043C0019634
:105180009B838A838C819D818F3027E29207ECF587
:1051900096012B7F215531092330310530F09601DE
:1051A0002B5531092330310518F401969D838C83EA
:1051B000C6010E94D001882359F1F601EE0FFF1FAE
:1051C000EE0FFF1FE85CF64F80829182A282B382CD
:1051D000B501A401C6010E94371BB601CE010E9491
:1051E000C8150E94FE1C0E94CE1C90E080E0DF915A
:1051F000CF91FF90EF90DF90CF90BF90AF909F90B6
:105200008F9008951B821A82BDCF1D821C82D0CF41
:1052100087ED93E00E945614E4CFCF93DF93EB0128
:105220000E94041C6E8D7F8D0E94C81590E080E066
:10523000DF91CF910895FC0180819181009711F059
:105240000C944E5308950C944E530C944E530C945E
:105250004E530C944E530C944E530C944E530C944A
:105260004E530C944E530C944E530C944E530C943A
:105270004E530C944E530C944E530C944E530C942A
:105280004E530C944E530C944E530C944E530C941A
:105290004E530C944E530C944E530C944E530C940A
:1052A0004E530F931F93CF93DF93EC018881998125
:1052B000009759F02A813B812617370730F081E0AB
:1052C000DF91CF911F910F9108958B016F5F7F4FF9
:1052D0000E940A5B009759F0998388831B830A8395
:1052E0002C813D81232B59F7FC011082E8CF80E00F
:1052F000E7CF0F931F93CF93DF93EC018B01D1DFA7
:1053000028813981811112C02115310519F0C90197
:105310000E944E53198218821D821C821B821A829F
:10532000CE01DF91CF911F910F9108951D830C83C2
:1053300062EE77E0C9010E94FC5BF2CFCF93DF936E
:10534000FC01E25BFD4F408151814115510501F1A6
:10535000EC01CE5ADD4F28813981865B9D4F2417A1
:105360003507E8F4FC01808191810097A1F0820F5C
:10537000931FFC0180818A3031F08D3069F480EE1A
:1053800097E00E94561488819981019699838883B9
:10539000DF91CF91089580E00E949B08F4CF70E0E8
:1053A00060E0A7DF19821882F3CF0F931F93CF938A
:1053B000DF93EC018C01025B1D4FF801808191812C
:1053C000892B19F0CE01BADFF8CFDF91CF911F9171
:1053D0000F9108952F923F924F925F926F927F921A
:1053E0008F929F92AF92BF92CF92DF92EF92FF92F5
:1053F0000F931F93CF93DF93CDB7DEB7CE58D1096C
:105400000FB6F894DEBF0FBECDBF8C01FC01108239
:1054100011821282138214821582168217821086DC
:1054200011861286138614861586168617864C01F9
:10543000F0E18F0E911CC4010E94A40E68018EE958
:10544000C80ED11CC6010E94A40E7801E4EDEE1A2C
:10545000EEEFFE0AC7010E94A40E5801F6E4AF1A4F
:10546000FEEFBF0AC5010E94E211380186E1681A09
:105470008EEF780AC3010E94E2112801E6EE4E1A6F
:10548000EDEF5E0AC2010E94E211F801E65BFD4FFA
:1054900011821082138212821582148270E060E001
:1054A000CF0127DFF801E05BFD4F118210823296B9
:1054B00011821082329611821082329611821082ED
:1054C00032961082118212821382349610823196A3
:1054D000108231961082319611821082329611829A
:1054E000108232961182108232961082319610828A
:1054F0003196108231961082118212821382349674
:1055000010821182128213823496108211821282CA
:105510001382349610821182128213823496108282
:1055200011821282138234961082118212821382A7
:105530003496108211821282138234961082118264
:105540001282138234961082118212821382349650
:10555000108211821282138234961082118212827A
:105560001382349610821182128213823496108232
:105570001182128213823496108211821282138257
:105580003496108211821282138234961082118214
:105590001282138234961082118212821382349600
:1055A000108211821282138234961082118212822A
:1055B00013823496108211821282138234961082E2
:1055C0001182128213823496108211821282138207
:1055D00034961082118212821382349610821182C4
:1055E0001282138234961082319610823196108284
:1055F00031961082118212821382349610821182A7
:10560000128213823496108211821282138234968F
:105610001082319610823196108231961082319626
:105620001082319610823196108231961082319616
:105630001082319610823196108231961082319606
:1056400010823196108231961082319610823196F6
:1056500010823196108231961082319610823196E6
:1056600010823196108231961082319610823196D6
:105670001082118212821382349610821182128259
:10568000138234961082118212821382D801A5509F
:10569000BD4F8CE0E9E1F2E001900D928A95E1F7CF
:1056A000F801E95FFC4F1082118212821382349656
:1056B0001082118212821382349610821182128219
:1056C00013823496118210823296118210823296A1
:1056D00011821082329610821182128213823496C5
:1056E00010821182128213823496108211821282E9
:1056F00013823496108211821282138234961082A1
:1057000011821282138234961082118212821382C5
:105710003496118210823296118210823296118252
:105720001082329610821182128213823496108275
:105730001182128213823496108211821282138295
:1057400034961082319610823196108231961182F1
:105750001082329611821082329611821082329615
:105760001082118212821382349610821182128268
:10577000138234961082118212821382349611821F
:1057800010823296118210823296118210823296E5
:10579000118210823296118210823296118210820A
:1057A0003296118210823296118210821801F8E925
:1057B0002F1AFCEF3F0AF1011082319611821082FC
:1057C000329611821082CE0101960E94A40E8EE8BC
:1057D000FE013196D40101900D928A95E1F7CE0138
:1057E00001960E94A40E8EE8FE013196D60101902A
:1057F0000D928A95E1F7CE0101960E94A40E8EE8E3
:10580000FE013196D70101900D928A95E1F788E566
:10581000F801808B89E5F60180838AE5F7018083B2
:10582000CE0101960E94E21180E3FE013196D5017E
:1058300001900D928A95E1F7CE0101960E94E21146
:1058400080E3FE013196D30101900D928A95E1F734
:10585000CE0101960E94E21180E3FE013196D20151
:1058600001900D928A95E1F7C80124DBF1011082C5
:10587000C257DF4F0FB6F894DEBF0FBECDBFDF912A
:10588000CF911F910F91FF90EF90DF90CF90BF903D
:10589000AF909F908F907F906F905F904F903F90D0
:1058A0002F900895CF93DF9380911508909116085B
:1058B000892B51F48DE693E00E94B252EC018ADD0F
:1058C000D0931608C093150880911508909116087A
:1058D000DF91CF910895CF93DF93809114088111C8
:1058E00021C081E080931408DDDFEC0140960E9426
:1058F000700ECE0182569F4F0E94700ECE01845DC5
:105900009E4F0E94700EC85ADD4F88819981AA81EE
:10591000BB810196A11DB11D88839983AA83BB8396
:1059200010921408DF91CF910895CF93DF93EB018C
:1059300020E030E040E85FE36A817B818C819D81DB
:105940000E942B58811110C082E494E00E945614EA
:10595000A9DFFC01E65AFF4F1082118212821382E6
:1059600086549E4F0E94211220E030E040E85FE321
:105970006E817F81888599850E942B58811110C086
:1059800082E594E00E9456148DDFFC01E851FF4F40
:10599000108211821282138286519E4F0E94211220
:1059A00020E030E040E85FE36A857B858C859D855B
:1059B0000E942B58811110C082E694E00E94561478
:1059C00071DFFC01EA58FE4F1082118212821382AD
:1059D000865E9D4F0E9421120E94A8120E948C1484
:1059E00090E080E0DF91CF910895EF92FF920F93C6
:1059F0001F93CF93DF936115710541F480E0DF9130
:105A0000CF911F910F91FF90EF900895411551058F
:105A1000A9F07B01EC010C811D81040F151FB80159
:105A200040DC882359F3288139818C819D81B7011D
:105A3000820F931F0E94FC5B1D830C8381E0DFCFEC
:105A4000EF92FF920F931F93CF93DF93CDB7DEB703
:105A500064970FB6F894DEBF0FBECDBF7C01CB01BB
:105A6000BA018E010F5F1F4F22E044E00E94955261
:105A7000FC0101900020E9F73197AF01481B590B59
:105A8000BC01C701B2DF64960FB6F894DEBF0FBE4B
:105A9000CDBFDF91CF911F910F91FF90EF900895AF
:105AA000EF92FF920F931F93CF93DF93CDB7DEB7A3
:105AB0002E970FB6F894DEBF0FBECDBF7C01CB0191
:105AC000BA012AE08E010F5F1F4FA8010E940E54F9
:105AD000F80101900020E9F73197AF01401B510B0D
