:100000009DC10000CCC10000CAC10000C8C10000F1
:10001000C6C10000C4C10000C2C10000C0C10000D0
:10002000BEC10000BCC10000BAC10000B8C10000E0
:10003000B6C10000B4C10000B2C10000B0C10000F0
:10004000AEC100000C943F46AAC10000A8C1000048
:100050000C946D46A4C10000A2C100000C946B4535
:100060009EC100000C9435450C940B4598C10000CE
:1000700096C1000094C1000092C1000090C1000030
:100080000C9411468CC100008AC1000088C1000098
:1000900086C1000084C1000082C1000080C1000050
:1000A0007EC100007CC100000C94E34578C10000D3
:1000B00076C1000074C1000072C100000C94B54507
:1000C0006EC100006CC100006AC1000068C1000080
:1000D00066C1000064C1000062C1000060C1000090
:1000E0005EC100004E414E494E495459494E46CDDD
:1000F000CCCC3D0AD7233C17B7D13877CC2B3295DF
:1001000095E6241FB14F0A000020410000C84200BC
:10011000401C4620BCBE4CCA1B0E5AAEC59D740086
:10012000407A10F35A00A0724E18090010A5D4E8C6
:100130000000E87648170000E40B54020000CA9A59
:100140003B000000E1F505000080969800000040AB
:10015000420F000000A086010000001027000000F0
:1001600000E803000000006400000000000A000036
:100170000000000100000000002C76D888DC674FEA
:100180000823DFC1DFAE59E1B1B796E5E3E453C61A
:100190003AE651997696E8E6C28426EB898C9B6212
:1001A000ED407C6FFCEFBC9C9F40F2BAA56FA5F4BC
:1001B00090055A2AF75C936B6CF9676DC11BFCE0E4
:1001C000E40D47FEF520E6B500D0ED902E03009437
:1001D0003577050080841E080000204E0A000000CC
:1001E000C80C333333330F986E12831141EF8D21D6
:1001F00014893BE65516CFFEE6DB18D1844B381B3D
:10020000F77C1D901DA4BBE424203284725E228101
:1002100000C9F124ECA1E53D2700002200250028BB
:10022000002B002E003100340002010000050108FF
:10023000010B01000020002300260029002C002FC4
:100240000032000001000003010601090100000A5C
:100250000B02090C0D0E080703040100000000004A
:10026000000000000000000000000000000000008E
:10027000000000000000000000121110000000004B
:10028000000000000000000000000000000000006E
:1002900000000000002100240027002A002D00306B
:1002A00000330001010000040107010A01010210EE
:1002B0002020080810204010204080020102010880
:1002C0000402010102040810204080804020100830
:1002D0000402018004020180402010080402010889
:1002E00004020101020408102040800102040810E9
:1002F00020408005050505070508080808020202D8
:10030000020A0A08080404040401010101010101B0
:10031000010303030303030303040707070C0C0C87
:100320000C0C0C0C0C02020202060606060606065F
:10033000060B0B0B0B0B0B0B0B00984611241FBE6F
:10034000CFEFD1E2DEBFCDBF00E00CBF18E0A0E0F0
:10035000B2E0E4E0F8EB00E00BBF02C007900D92C2
:10036000A431B107D9F72EE0A4E1B8E001C01D9295
:10037000A030B207E1F711E0CEE9D1E000E006C01D
:1003800021970109802FFE010E94EB5ACD39D10738
:1003900080E00807A9F70E9409470C94005C30CE62
:1003A0008CBD9DBD08959C01803E910508F048C517
:1003B000FC018827E152FE4F8F4F0C94EB5ABF028D
:1003C000CC02D502DE02EB02F40220072007200750
:1003D0002007200701030E031B0320072803310316
:1003E0003A0347035003590362036B037403200766
:1003F0007D0386038F032007200720079803A103AE
:10040000AA0320072007B303C00320072007200703
:10041000CD03DA03E703F40301040A0413042007FD
:10042000200720071C0425042E0420073B04480451
:10043000550420072007200762046F047C04890408
:100440009604A304B004200720072007BD04CA04B3
:10045000D704E404F104FA04030520072007200769
:1004600027053405410520074E055B056805200773
:100470002007200775057E05870520072007200730
:10048000200720072007200790059905A2052007CF
:10049000AB05B405BD05200720072007C605D30519
:1004A000E0052007ED05FA050706200720072007CD
:1004B000140621062E0620073B0644064D0620079B
:1004C0002007200756065F0668062007200720073A
:1004D00020072007200720072007200720072007E4
:1004E0000C0515051E0520072007200720072007FB
:1004F00020072007200720072007200720072007C4
:1005000020072007200720072007200720072007B3
:1005100020072007200720072007200720072007A3
:100520002007200720072007200720072007200793
:100530002007200720072007200720072007200783
:100540002007200720072007200720072007200773
:1005500071067A068706200794069D06AA062007DC
:1005600020072007B706C006CD062007DA06E306F7
:10057000F006200720072007FD060607130781E085
:1005800090E0A0E0B0E08093370990933809A09301
:100590003909B0933A09089510923B0910923C0929
:1005A00010923D0910923E09089510923F09109251
:1005B00040091092410910924209089581E090E0AB
:1005C000A0E0B0E08093430990934409A0934509CB
:1005D000B093460908951092470910924809109265
:1005E000490910924A09089583E090E0A0E0B0E044
:1005F00080934B0990934C09A0934D09B0934E09F9
:10060000089588E790E0A0E0B0E0809363099093BC
:100610006409A0936509B0936609089588E790E09E
:10062000A0E0B0E08093670990936809A0936909FE
:10063000B0936A09089588E790E0A0E0B0E0809365
:100640006B0990936C09A0936D09B0936E0908959E
:10065000109273091092740910927509109276091C
:1006600008951092770910927809109279091092E2
:100670007A09089581E090E0A0E0B0E080937B09E2
:1006800090937C09A0937D09B0937E090895109200
:100690007F091092800910928109109282090895B1
:1006A000109283091092840910928509109286098C
:1006B0000895109287091092880910928909109262
:1006C0008A09089510928B0910928C0910928D0955
:1006D00010928E09089510928F091092900910922D
:1006E0009109109292090895109293091092940919
:1006F0001092950910929609089510929B091092F4
:100700009C0910929D0910929E09089510929F09CC
:100710001092A0091092A1091092A20908951092B6
:10072000A3091092A4091092A5091092A609089590
:100730001092B3091092B4091092B5091092B6093B
:1007400008951092B7091092B8091092B909109241
:10075000BA0908951092BB091092BC091092BD0904
:100760001092BE09089581E090E0A0E0B0E080938F
:10077000C7099093C809A093C909B093CA090895FD
:1007800081E090E0A0E0B0E08093CB099093CC09A9
:10079000A093CD09B093CE0908958CE291E0A0E03A
:1007A000B0E08093DB099093DC09A093DD09B0935E
:1007B000DE0908958CE291E0A0E0B0E08093DF09CB
:1007C0009093E009A093E109B093E20908958CE2C7
:1007D00091E0A0E0B0E08093E3099093E409A09356
:1007E000E509B093E60908958CE291E0A0E0B0E05D
:1007F0008093E7099093E809A093E909B093EA0987
:1008000008951092EB091092EC091092ED091092E4
:10081000EE0908951092EF091092F0091092F10973
:100820001092F20908951092F3091092F4091092AF
:10083000F5091092F60908951092030A1092040A1D
:100840001092050A1092060A08951092070A109253
:10085000080A1092090A10920A0A089581E090E0AD
:10086000A0E0B0E080930B0A90930C0AA0930D0ACD
:10087000B0930E0A089585E090E0A0E0B0E0809388
:10088000130A9093140AA093150AB093160A0895B8
:1008900085E090E0A0E0B0E08093170A9093180AFA
:1008A000A093190AB0931A0A089589E190E0A0E094
:1008B000B0E080931B0A90931C0AA0931D0AB0938A
:1008C0001E0A089582E390E0A0E0B0E080932B0A36
:1008D00090932C0AA0932D0AB0932E0A089582E3D8
:1008E00090E0A0E0B0E080932F0A9093300AA093AC
:1008F000310AB093320A089582E390E0A0E0B0E0BC
:100900008093330A9093340AA093350AB093360A41
:10091000089582E390E0A0E0B0E08093370A9093DE
:10092000380AA093390AB0933A0A089582E390E016
:10093000A0E0B0E080933B0A90933C0AA0933D0A6C
:10094000B0933E0A089582E390E0A0E0B0E0809387
:100950003F0A9093400AA093410AB093420A089537
:1009600082E390E0A0E0B0E08093430A9093440AD1
:10097000A093450AB093460A089580E991E0A0E06B
:10098000B0E08093530A9093540AA093550AB09311
:10099000560A089580E991E0A0E0B0E08093570AFC
:1009A0009093580AA093590AB0935A0A089580E97F
:1009B00091E0A0E0B0E080935B0A90935C0AA09382
:1009C0005D0AB0935E0A089580E991E0A0E0B0E08E
:1009D00080935F0A9093600AA093610AB093620AC1
:1009E00008951092630A1092640A1092650A109298
:1009F000660A08951092670A1092680A1092690AAE
:100A000010926A0A089510926B0A10926C0A109262
:100A10006D0A10926E0A089510927B0B10927C0B57
:100A200010927D0B10927E0B089510927F0B109206
:100A3000800B1092810B1092820B08951092830B01
:100A40001092840B1092850B1092860B089588E506
:100A500092E0A0E0B0E080937B0A90937C0AA093A0
:100A60007D0AB0937E0A089588E592E0A0E0B0E0A8
:100A700080937F0A9093800AA093810AB093820AA0
:100A8000089588E592E0A0E0B0E08093830A909317
:100A9000840AA093850AB093860A08958EE190E0B7
:100AA000A0E0B0E080938B0A90938C0AA0938D0A0B
:100AB000B0938E0A08958EE190E0A0E0B0E08093BC
:100AC0008F0A9093900AA093910AB093920A089586
:100AD0008EE190E0A0E0B0E08093930A9093940AB6
:100AE000A093950AB093960A08951092A30A1092C3
:100AF000A40A1092A50A1092A60A08951092A70AB5
:100B00001092A80A1092A90A1092AA0A08951092A7
:100B1000AB0A1092AC0A1092AD0A1092AE0A089578
:100B20001092CB0A1092CC0A1092CD0A1092CE0AE3
:100B300008951092CF0A1092D00A1092D10A109202
:100B4000D20A08951092D30A1092D40A1092D50AAC
:100B50001092D60A08951092DB0A1092DC0A1092C5
:100B6000DD0A1092DE0A08951092DF0A1092E00A60
:100B70001092E10A1092E20A08951092E30A10928C
:100B8000E40A1092E50A1092E60A089585E090E0E2
:100B9000A0E0B0E08093F30A9093F40AA093F50AE2
:100BA000B093F60A089585E090E0A0E0B0E080936D
:100BB000F70A9093F80AA093F90AB093FA0A0895F5
:100BC00085E090E0A0E0B0E08093FB0A9093FC0AFF
:100BD000A093FD0AB093FE0A089584EB95E1A0E08E
:100BE000B0E08093030B9093040BA093050BB0939C
:100BF000060B089584EB95E1A0E0B0E08093070B2D
:100C00009093080BA093090BB0930A0B089584EB03
:100C100095E1A0E0B0E080930B0B90930C0BA093B8
:100C20000D0BB0930E0B089585E090E0A0E0B0E0CE
:100C300080931B0B90931C0BA0931D0BB0931E0B6A
:100C4000089585E090E0A0E0B0E080931F0B9093C2
:100C5000200BA093210BB093220B089585E090E028
:100C6000A0E0B0E08093230B9093240BA093250B7E
:100C7000B093260B089510922B0B10922C0B109210
:100C80002D0B10922E0B089510922F0B1092300BFB
:100C90001092310B1092320B08951092330B109278
:100CA000340B1092350B1092360B08951092430BB3
:100CB0001092440B1092450B1092460B089510921F
:100CC000470B1092480B1092490B10924A0B089553
:100CD00010924B0B10924C0B10924D0B10924E0B2E
:100CE000089510925B0C10925C0C10925D0C1092A7
:100CF0005E0C08958CE390E0A0E0B0E080935F0C80
:100D00009093600CA093610CB093620C089581E005
:100D100090E0A0E0B0E08093630C9093640CA0930B
:100D2000650CB093660C089510926B0C10926C0CCD
:100D300010926D0C10926E0C08958CE390E0A0E080
:100D4000B0E080936F0C9093700CA093710CB093F3
:100D5000720C089581E090E0A0E0B0E08093730C05
:100D60009093740CA093750CB093760C0895109228
:100D7000830C1092840C1092850C1092860C0895AE
:100D80008CE390E0A0E0B0E08093870C9093880C17
:100D9000A093890CB0938A0C089581E090E0A0E0C4
:100DA000B0E080938B0C90938C0CA0938D0CB0933F
:100DB0008E0C08951092930C1092940C1092950C36
:100DC0001092960C08958CE390E0A0E0B0E0809340
:100DD000970C9093980CA093990CB0939A0C08954B
:100DE00081E090E0A0E0B0E080939B0C90939C0C9D
:100DF000A0939D0CB0939E0C08951092AB0C109292
:100E0000AC0C1092AD0C1092AE0C08958CE390E0F7
:100E1000A0E0B0E08093AF0C9093B00CA093B10C25
:100E2000B093B20C089581E090E0A0E0B0E0809330
:100E3000B30C9093B40CA093B50CB093B60C08957A
:100E4000220F331F220F331FF901E95CF64F108286
:100E500011821282138208958E3591050CF046C0DE
:100E60008B359105A4F48033910524F589329105E1
:100E700074F4883191058CF48F30910544F48630F8
:100E800091053CF48230910514F4892B89F481E0BA
:100E900008950B97039760F4FACF823291052CF4F2
:100EA0008F319105A4F74997F5CF8497029778F38E
:100EB00080E00895843491055CF48D3391053CF70E
:100EC00083339105ACF3863391050CF3C797E2CFDA
:100ED0008435910544F481359105CCF68754910908
:100EE000079730F7D4CF85559109D4CF863891052F
:100EF00004F5833891055CF6823791056CF48F36E2
:100F000091052CF6853691059CF2883691050CF4F6
:100F1000BECF89569109BECF8C3791053CF48937F5
:100F200091050CF0B4CF83579109B4CF8D57910937
:100F3000B1CF803D91058CF48D3C91050CF0A7CF8D
:100F4000843991053CF4813991050CF0A0CF8D587E
:100F50009109A0CF895C91099DCF8A3D91053CF410
:100F6000873D91050CF093CF835D910993CF8D5D03
:100F7000910990CFAF92BF92CF92DF92EF92FF9202
:100F80000F931F93CF93DF936C017B018B01040FB1
:100F9000151FEB015E01AE18BF08C017D10759F04D
:100FA0006991D601ED91FC910190F081E02DC6018F
:100FB0001995892B79F7C501DF91CF911F910F9179
:100FC000FF90EF90DF90CF90BF90AF900895FC011D
:100FD000538D448D252F30E0842F90E0821B930B9E
:100FE000541710F0CF96089501970895FC01918D44
:100FF000828D981761F0A28DAE0FBF2FB11D5D9647
:101000008C91928D9F5F9F73928F90E008958FEFE8
:101010009FEF0895FC01918D828D981731F0828D9C
:10102000E80FF11D858D90E008958FEF9FEF0895F3
:10103000FC01918D228D892F90E0805C9F4F821B57
:1010400091098F73992708958CEB9CE0F1DF21E0E3
:10105000892B09F420E0822F0895FC01A48DA80FAC
:10106000B92FB11DA35ABF4F2C91848D90E00196EA
:101070008F739927848FA689B7892C93A089B1890A
:101080008C91837080648C93938D848D981306C0AB
:101090000288F389E02D80818F7D80830895EF920F
:1010A000FF920F931F93CF93DF93EC0181E0888F22
:1010B0009B8D8C8D98131AC0E889F989808185FFF2
:1010C00015C09FB7F894EE89FF896083E889F98994
:1010D00080818370806480839FBF81E090E0DF9196
:1010E000CF911F910F91FF90EF900895F62E0B8DE9
:1010F00010E00F5F1F4F0F731127E02E8C8D8E11A4
:101100000BC00FB607FCFACFE889F989808185FF0B
:10111000F5CFCE01A2DFF2CFEB8DEC0FFD2FF11D4D
:10112000E35AFF4FF0829FB7F8940B8FEA89FB894F
:1011300080818062D0CF682F8CEB9CE0B0CFCF93C2
:10114000DF93EC01888D8823B1F0AA89BB89E889F7
:10115000F9898C9185FD03C0808186FD0CC00FB696
:1011600007FCF7CF8C9185FFF2CF808185FFEDCF13
:10117000CE0173DFEACFDF91CF91089580E090E058
:10118000892B21F061DF81110E94000080E090E056
:10119000892B49F080E090E0892B29F00E94000023
:1011A00081110E94000080E090E0892B49F080E0EE
:1011B00090E0892B29F00E94000081110E9400001C
:1011C00080E090E0892B49F080E090E0892B29F0C5
:1011D0000E94000081110C9400000895815082311A
:1011E00008F05AC0E82FF0E08827E650F74F8F4FFD
:1011F0000C94EB5A1A091E090C09120916094C091C
:10120000210927092B093109350939093F09430902
:101210004C0947094D095109809180008F778093CF
:1012200080000895809180008F7DF9CF80918000AB
:10123000877FF5CF84B58F7784BD089584B58F7D82
:10124000FBCF8091B0008F778093B000089580919C
:10125000B0008F7DF9CF809190008F7780939000C0
:101260000895809190008F7DF9CF80919000877FC5
:10127000F5CF8091A0008F778093A0000895809192
:10128000A0008F7DF9CF8091A000877FF5CF80915E
:1012900020018F77809320010895809120018F7D18
:1012A000F9CF80912001877FF5CFCF93DF93282F4F
:1012B00030E0F901E35BFD4F8491F901E355FD4F07
:1012C000D491F901ED50FD4FC491CC2399F08111D7
:1012D00085DFEC2FF0E0EE0FFF1FED5CFD4FA591D9
:1012E000B491EC91ED2381E090E009F480E0DF918E
:1012F000CF91089580E090E0FACF1F93CF93DF93D2
:10130000282F30E0F901E35BFD4F8491F901E355AB
:10131000FD4FD491F901ED50FD4FC491CC23A1F0C4
:10132000162F81115BDFEC2FF0E0EE0FFF1FE75E61
:10133000FD4FA591B4918FB7F894EC91111108C0AD
:10134000D095DE23DC938FBFDF91CF911F9108955D
:10135000DE2BF8CFCF93DF9390E0FC01E355FD4FF8
:1013600024918D509D4FFC0184918823C9F090E019
:10137000880F991FFC01ED56FD4FA591B491FC011A
:10138000E75EFD4FC591D49161110DC09FB7F894F0
:101390008C91209582238C938881282328839FBF5A
:1013A000DF91CF910895623051F49FB7F8943C914A
:1013B000822F809583238C93E8812E2BEFCF8FB7DC
:1013C000F894EC912E2B2C938FBFEACF82309105AD
:1013D00038F0880F991F880F991F05970197F1F72B
:1013E00008953FB7F89480912A0890912B08A09116
:1013F0002C08B0912D0826B5A89B05C02F3F19F0E9
:101400000196A11DB11D3FBFBA2FA92F982F882784
:10141000BC01CD01620F711D811D911D42E0660F5F
:10142000771F881F991F4A95D1F708958F929F9231
:10143000AF92BF92CF92DF92EF92FF926B017C014D
:10144000D0DF4B015C01C114D104E104F104B1F01F
:10145000C8DF681979098A099B09683E73408105CC
:10146000910588F321E0C21AD108E108F10888EE5D
:10147000880E83E0981EA11CB11CE5CFFF90EF9071
:10148000DF90CF90BF90AF909F908F9008952FB72F
:10149000F89460912608709127088091280890910F
:1014A00029082FBF0895CF92DF92EF92FF92CF933A
:1014B000DF93EC01603282E07807CCF5653B710583
:1014C00014F064EB70E0898128E830E0281B3109D2
:1014D00087FD3395220F331F220F331F6901330F0E
:1014E000EE08FF088A8128E532E0281B310987FDD4
:1014F0003395220F331F220F331F032E000C440B92
:10150000550B2C193D094E095F09DB0177FF02C01D
:10151000B0E0A0E00E94805924EB30E040E050E0D1
:101520000E945A59C20ED31EE41EF51EB601E88170
:10153000E03370F5298188E890E0821B910927FD4E
:101540009395880F991F880F991F681779077CF06A
:101550002A8188E592E0821B910927FD9395880FE7
:10156000991F880F991F681779070CF4CB01029710
:10157000880F991F4FB7F8942E2F30E0F901EE0F26
:10158000FF1FE20FF31FE75AF24F928381834FBF91
:10159000DF91CF91FF90EF90DF90CF9008951F9350
:1015A000CF93DF93EC01162F8881803308F04DC074
:1015B00061E0812FCFDE8881282F30E0F901EE0F26
:1015C000FF1FE20FF31FE75AF24F1F736081607C29
:1015D000612B608319821A822CE0622F0E94CC5A00
:1015E000829FB001112430E020E0AB01420F531F75
:1015F000FA01EE0FFF1FE40FF51FE75AF24F90813B
:1016000096FD16C02F5F3F4F2C30310571F78130AA
:1016100009F51092800082E080938100109285008D
:1016200010928400B19A80916F00826080936F0065
:10163000E8818E2F90E0FC01EE0FFF1FE80FF91FED
:10164000E75AF24F8081806480838881DF91CF9157
:101650001F910895823061F4109290008093910060
:10166000109295001092940088BB80937100E0CF97
:10167000833069F41092A00082E08093A100109260
:10168000A5001092A40089BB80937200D1CF811174
:10169000CFCF1092200182E080932101109225018A
:1016A000109224018ABB80937300C2CFAF92BF9285
:1016B000CF92DF92EF92FF920F931F93CF93DF931E
:1016C0006B017A01EC01CF5DD74F28813CE0389F58
:1016D0008001399F100D1124A090E90DB12C27FF36
:1016E0001FC0FB011182108288818F5F88838881EF
:1016F0009801280F311D87FD3A95F6012A153B0503
:101700001CF488818C30BCF18081918104968034F6
:101710009C4908F471C0F6018081918104966EC0E5
:1017200088819801280F311D87FD3A952A153B05C0
:10173000DCF68881A801480F511D87FD5A95FA01F2
:10174000EE0FFF1FE40FF51FE75AF24F808186FF6F
:10175000CBCF8881F801E80FF11D87FDFA95CF0105
:10176000EE0FFF1FE80FF91FE75AF24F808160E08C
:101770008F73C3DDB9CF808191812881A801420F89
:10178000511D27FD5A959A01FA01EE0FFF1FE20F36
:10179000F31FE75AF24F21813281820F931FF70125
:1017A0009183808388819801280F311D87FD3A95A8
:1017B000F901EE0FFF1FE20FF31FE75AF24F80818E
:1017C00086FF21C08881080F111D87FD1A95F80139
:1017D000EE0FFF1FE00FF11FE75AF24F808161E02B
:1017E0008F73DF91CF911F910F91FF90EF90DF905A
:1017F000CF90BF90AF9081CD80E49CE9F7019183B9
:1018000080838FEF8883DF91CF911F910F91FF909D
:10181000EF90DF90CF90BF90AF9008950F931F93FC
:10182000CF93DF938B01EA01AB014150510944335F
:10183000510508F0E9C02230310508F0E5C048E361
:10184000429FF001439FF00D1124E80FF91FE60FAE
:10185000F71F81E080836C2F232B09F4D2C061E055
:10186000802F78DD209749F460E0802F46DDCE019F
:10187000DF91CF911F910F910895CF3FD10511F4C2
:1018800061E0BFC0F801E35BFD4FE491E150E2315C
:1018900008F0B2C0F0E08827EF5AF34F8F4F0C9456
:1018A000EB5A630C6A0C6F0C790C830CFC0C8D0CDE
:1018B000950C9D0CA70CB10CBB0CCA0CD40CFC0CE9
:1018C000DE0CE80CF20C84B5806884BDC7BDD0E0A6
:1018D000C0E0CDCF84B5806284BDC8BDF8CF809113
:1018E0008000806880938000D0938900C093880036
:1018F000EECF80918000806280938000D0938B0037
:10190000C0938A00E4CF809180008860809380003B
:10191000D0938D00C0938C00DACF8091B0008068A6
:101920008093B000C093B300D2CF8091B0008062AA
:101930008093B000C093B400CACF809190008068BB
:1019400080939000D0939900C0939800C0CF80916D
:101950009000806280939000D0939B00C0939A0087
:10196000B6CF80919000886080939000D0939D00C6
:10197000C0939C00ACCF8091A00080688093A000B1
:101980008091A0008F7B8093A000D093A900C0938A
:10199000A8009DCF8091A00080628093A000D0938A
:1019A000AB00C093AA0093CF8091A0008860809381
:1019B000A000D093AD00C093AC0089CF80912001EE
:1019C000806880932001D0932901C09328017FCFA4
:1019D00080912001806280932001D0932B01C093DD
:1019E0002A0175CF80912001886080932001D093D7
:1019F0002D01C0932C016BCF60E0C038D1050CF0F5
:101A00003FCF802F7ADC63CFC1E0D0E030CFCF93DF
:101A1000DF93D0E0C0E0CE011FDA882319F0CE01B9
:101A20000E94D3012196C13ED105A9F7DF91CF9144
:101A300008958FB7F8948091BB0C8FBF08954F9293
:101A40005F926F927F928F929F92AF92BF92CF924E
:101A5000DF92EF92FF92CF93DF93EC016C897D8947
:101A60008E899F8988889988AA88BB88CE8CDF8CCC
:101A70000D2C000CEE08FF08603127E2720781058B
:101A8000910529F01616170618061906ACF0A701DD
:101A90009601C501B4010E94BD5ADF91CF91FF901C
:101AA000EF90DF90CF90BF90AF909F908F907F90FE
:101AB0006F905F904F9008950E942E5820E030E480
:101AC0004CE157E40E941C5A2B013C01488E598E70
:101AD0006A8E7B8EC501B4010E942E58A30192012B
:101AE0000E948D584B015C01C701B6010E942E581F
:101AF0009B01AC01C501B4010E948D580E94845A1B
:101B0000CCCFFC01118210821382128215821482C2
:101B10001782168210861186128613861486158601
:101B200016861786108A118A128A138A108E118ED1
:101B3000128E138E158E148E178E168E10A211A271
:101B400012A213A214A215A216A217A210A611A6E1
:101B500012A613A614A615A681E090E097A786A763
:101B600080E197E2A0E0B0E0848B958BA68BB78BE9
:101B700008958EBD00000DB407FEFDCF8EB508950B
:101B8000CF93DF93EC01188A198A1A8A1B8A83E59E
:101B900090E00E94D00160E086E1AFDB83E090E05E
:101BA0000197F1F78EA58295807FE3DF8FE090E0CB
:101BB0000197F1F761E086E1DF91CF919ECBCF9263
:101BC000DF92EF92FF920F931F93CF93DF938C01DD
:101BD00083E590E00E94D00160E086E18EDB83E047
:101BE00090E00197F1F7F80186A597A524E0880F0A
:101BF000991F2A95E1F78F60BCDF8FE090E0019795
:101C0000F1F7C4E0D0E0C12CD12C7601FE2CED2CF4
:101C1000DC2CCC2481E0ADDFC82A2197B9F761E044
:101C200086E16BDBF801C08AD18AE28AF38ADF9110
:101C3000CF911F910F91FF90EF90DF90CF9008957B
:101C40002F923F924F925F926F927F928F929F92CC
:101C5000AF92BF92CF92DF92EF92FF920F931F93BA
:101C6000CF93DF9300D01F92CDB7DEB79C838B83D9
:101C70004B015A011901FA82E982FA014080518030
:101C80006280738020E030E0A901C301B2010E94AC
:101C9000B55A181674F4F6012081318142815381BE
:101CA000C301B2010E94B759F50160837183828339
:101CB0009383F8014080518062807380F401A68D87
:101CC000B78D20893189428953890E9480596B01DF
:101CD0007C01EB81FC81EC58FF4F8081882309F463
:101CE00040C0C414D504E604F7040CF440C0F80165
:101CF000C082D182E282F3828B819C81865B9F4F7E
:101D00009C838B83FC0180819181A281B381F1014D
:101D100080839183A283B383E981FA818081918159
:101D2000892B41F0C4018BDEEB81FC8160837183E0
:101D3000828393830F900F900F900F90DF91CF913C
:101D40001F910F91FF90EF90DF90CF90BF90AF90D9
:101D50009F908F907F906F905F904F903F902F90CB
:101D600008954C145D046E047F040CF0C0CFF5019F
:101D7000408051806280738020E030E04AEF56E47A
:101D8000C301B2010E94285887FFB1CF20E030E0A4
:101D900040E85FE3C301B2010E94B859F5016083D6
:101DA000718382839383A3CFCF93DF93EC0183B1BD
:101DB00083B1E0E0F1E080818081CE0186549E4FC6
:101DC000FEDE83B183B180B180B1CE0186519E4FDA
:101DD000F6DE83B183B180B180B1CE01865E9D4FC6
:101DE000DF91CF91ECCE889A0895889808958E9AC5
:101DF00008958E980895EBE0F1E0808188608083FB
:101E00000895EBE0F1E08081877F80830895149A44
:101E100008951498089560E0FC0183856ECA60E01F
:101E2000FC0185816ACA61E0FC01838566CA61E0C4
:101E3000FC01858162CACF93DF93EC01FC01E3587A
:101E4000FF4F1082379781E0808360E08D8155DA03
:101E50008F859889892B29F060E08B85DF91CF9160
:101E60004CCADF91CF910895CF93DF93EC018B891A
:101E70001CDA2E892817190621F48F89DF91CF915A
:101E8000089580E0FBCFCF93DF93EC0189890DDAD1
:101E90002E892817190621F48F89DF91CF91089593
:101EA00080E0FBCFCF93DF93EC018F8199AD61E0B0
:101EB000911101C060E021DA8D859AAD992321F05E
:101EC0009BAD61E0911101C060E0DF91CF9115CA37
:101ED000CF93DF93EC018F8199AD60E0911101C048
:101EE00061E00BDA8D859AAD992321F09BAD60E01E
:101EF000911101C061E0DF91CF91FFC9CF93DF93D2
:101F0000EC0161E08985F9D98AAD882319F061E097
:101F10008F85F3D9C558DF4F1882DF91CF9108958F
:101F2000CF93DF93EC01FC01E859FC4F1082EE588F
:101F3000F1098081811103C0CE014096DFDFFE01EF
:101F4000E552FD4F8081811104C0CE0182569F4F22
:101F5000D5DFFE01E452FD4F8081811104C0CE0126
:101F6000845D9E4FCBDF64E670E080E090E0DF911F
:101F7000CF915CCACF93DF93EC0160E08985BDD936
:101F80008AAD882319F060E08F85B7D9C558DF4F37
:101F900081E08883DF91CF910895CF92DF92EF9215
:101FA000FF920F931F93CF93DF93FC01DC01AA5B99
:101FB000BF4F4D935D936D937C93139714964D9300
:101FC0005D936D937C93139714960D931D932D93AE
:101FD0003C931397EC01CE5ADF4FE88262978881D9
:101FE000882351F090AD911150C037FF54C01D921D
:101FF0001D921D921C921397EF01CF5BDF4F48811A
:1020000059816A817B81141615061606170644F558
:1020100024969881992321F10D911D912D913C9148
:1020200013976801790137FF07C0CC24DD247601BE
:10203000C01AD10AE20AF30A4C155D056E057F0548
:102040007CF437FF07C070956095509541955F4FC0
:102050006F4F7F4F4D935D936D937C931397892FB3
:10206000DF01A15ABF4F1D921D921D921C92139722
:10207000ED58FF4F91E09083DF91CF911F910F9129
:10208000FF90EF90DF90CF90089510161106120682
:1020900013060CF4ACCF80E0AFCF0F931F93CF9318
:1020A000DF93EC01062F8D8981110DC0CE01EBDE8F
:1020B000182FCE01D9DE0111182F812FDF91CF917A
:1020C0001F910F910895CE01CFDE182FCE01DBDED8
:1020D000F2CFCF93DF93EC01FC01E159FF4F8081F8
:1020E0009181A281B3810196A11DB11D808391834D
:1020F000A283B3833E9681E08083AE01465B5F4F4F
:10210000FA0180819181A281B3819E012C583F4FB9
:10211000F9012081222309F440C00196A11DB11DBF
:10212000FA0180839183A283B383FE01E058FF4FBD
:1021300020813181C901959587958C0F9D1F32971C
:102140000190F081E02D20FF08C0DC012D913C9131
:10215000E20FF31F0190F081E02D19958F8598898A
:10216000892BF9F0FE01EC57FF4F20813181C90125
:10217000959587958C0F9D1FCE57DF4FE881F9818C
:1021800020FF08C0DC012D913C91E20FF31F01906C
:10219000F081E02DDF91CF9119940197A109B10948
:1021A000BFCFDF91CF9108958F929F92AF92BF9250
:1021B000CF92DF92EF92FF920F931F93CF93DF9313
:1021C000EC01FC01E15AFF4F6081718182819381B2
:1021D0000E942C586B017C016CAD7DAD8EAD9FAD26
:1021E0000E942E589B01AC0160E074E284E799E400
:1021F0000E941C5A4B015C01FE01E559FF4F6081B2
:102200007181828193810E942C589B01AC01C50190
:10221000B4010E941C5A4B015C018E010D591F4FE5
:1022200020E030E040E05FE30E948D58A701960176
:102230000E94B8590E94895AF80160837183828391
:102240009383C959DF4FA5019401C701B6010E94CC
:10225000B8590E94895A688379838A839B83DF9166
:10226000CF911F910F91FF90EF90DF90CF90BF9093
:10227000AF909F908F9008950F931F93CF93DF930C
:10228000FC01E358FF4F20812223B9F07E970081A3
:10229000118122813381389640815181628173811D
:1022A000041715072607370710F1EC01C4DDCE012E
:1022B000DF91CF911F910F9177CFFC01ED58FF4F28
:1022C00020812223A1F07497008111812281338122
:1022D0003496408151816281738104171507260766
:1022E000370728F0DF91CF911F910F91F2CEDF9148
:1022F000CF911F910F910895FC01ED58FF4F208160
:10230000222361F0749780819181A281B38101962B
:10231000A11DB11D80839183A283B38308950F9380
:102320001F93FC01EE5AFF4F2081211112C03897F4
:1023300000811181228133813496408151816281F3
:10234000738104171507260737073CF41F910F9177
:10235000BFCDFC0120AD2111F9CF1F910F91A2CD6E
:10236000FC011382128214828CE291E0A0E0B0E0C2
:10237000808F918FA28FB38F848F958FA68FB78F09
:1023800042E350E060E070E040A351A362A373A376
:1023900044A355A366A377A340A751A762A773A739
:1023A00084A795A7A6A7B7A780AB91ABA2ABB3AB09
:1023B00088E790E0A0E0B0E084AB95ABA6ABB7AB0C
:1023C00010AE11AE12AE13AE84E690E0A0E0B0E025
:1023D00084AF95AFA6AFB7AFDF01A05CBF4F1C9233
:1023E00011961D921D921D921C92139714961C9289
:1023F00011961D921D921D921C92139714961D9278
:102400001D921D921C92139714961D921D921D925F
:102410001C92139714961C9211961D921D921D9258
:102420001C92139714961D921D921D921C92139745
:1024300014961D921D921D921C92139714961D9234
:102440001D921D921C92139714961D921D921D921F
:102450001C92139714961D921D921D921C92139715
:1024600014961D921D921D921C92139714961D9204
:102470001D921D921C92139714961C9211961C92F9
:1024800011961C9211961C9211961C9211961C92F8
:1024900011961C9211961C9211961C9211961C92E8
:1024A00011961C921682158210861782128611864A
:1024B0001486138616861586108A1786128A118A44
:1024C000148A138A119687E19FE011969C938E934C
:1024D000129611961C921E92129683E19FE011961D
:1024E0009C938E93129611961C921E9212968FE0D8
:1024F0009FE011969C938E93129611961C921E92B9
:1025000012968BE09FE08D939C93E457FF4F1182CE
:102510001082089508958FEF9FEF0895089508950C
:1025200008950895089508950895089508950895C3
:1025300008950895089508950895089508950895B3
:1025400008950895089580911F0890912008892B7F
:1025500041F481E090E00E94AF5290932008809374
:102560001F0880911F089091200808950F931F93D2
:10257000CF93DF938B01E7DFF801C2A1D3A1868D52
:10258000978D8530910529F14CF40497B1F090E0D6
:1025900080E0DF91CF911F910F91089586309105D2
:1025A00011F10B97A1F76BE070E083EF9DE00E94C3
:1025B000CF0ABE0183EF9DE009C064E070E08AEEBF
:1025C0009DE00E94CF0ABE018AEE9DE00E94530A60
:1025D000DECF65E070E08DEE9DE00E94CF0ABE0187
:1025E0008DEE9DE0F3CF66E070E080EF9DE00E940D
:1025F000CF0ABE0180EF9DE0E9CF80911B0890914A
:102600001C08892B91F480E790E00E94AF52FC01F6
:1026100031969C012B5C3F4F119217AAE217F307EA
:10262000D9F790931C0880931B0880911B08909108
:102630001C0808954F925F926F927F92AF92BF9263
:10264000CF92DF92EF92FF920F931F93CF93DF937E
:10265000EB01D3DF8C01CAA8DBA84EA45FA468A855
:1026600079A8AEA0BFA0EE8CFF8C4AA15BA1960119
:10267000B701D4D8C301B2010E94160A9601A50180
:10268000B701C801CBD890E080E0DF91CF911F91D6
:102690000F91FF90EF90DF90CF90BF90AF907F9021
:1026A0006F905F904F900895CF93DF93EB01A5DF7C
:1026B0006AA98E8D0E94AA0990E080E0DF91CF91F7
:1026C0000895CF93DF93EB0198DF2AA93BA94AA194
:1026D0005BA16E8D7F8DA2D890E080E0DF91CF91DD
:1026E00008958091140890911508892BE1F585E3F0
:1026F00090E00E94AF52FC0181E090E0A0E0B0E0E9
:1027000080839183A283B38384839583A683B783D5
:1027100080879187A287B3871586148616861786C9
:10272000108A118A128A138A148A158A168A178ABD
:10273000108E118E138E128E12A213A214A215A245
:1027400017A216A210A611A612A613A614A615A6C5
:1027500016A617A610AA11AA12AA13AA14AAF093D1
:102760001508E093140880911408909115080895B5
:10277000CF93DF93B6DFEC0185E40E94550921E099
:10278000892B09F420E02C8FACDFEC0184E40E945B
:10279000550921E0892B09F420E02D8FA2DFEC01FF
:1027A00083E40E94550921E0892B09F420E02E8F53
:1027B00098DFEC0182E40E94550921E0892B09F49D
:1027C00020E02F8F8EDFEC0181E40E94550921E08B
:1027D000892B09F420E028A384DFEC0180E40E9427
:1027E000550921E0892B09F420E029A3DF91CF913D
:1027F000089577DFBDCF75DFFC0114AA90E080E07B
:102800000895FC0101900020E9F73197AF01481BC2
:10281000590BBC018CEB9CE00C94BA078F929F92F1
:10282000AF92BF920F931F93CF93DF93CDB7DEB7D5
:10283000A1970FB6F894DEBF0FBECDBF19A24230EC
:1028400008F44AE08E010F5D1F4F842E912CB12CAD
:10285000A12CA50194010E948659E62FB901CA0155
:10286000EA30ECF4E05DD801EE938D01232B242BAC
:10287000252B79F790E080E0109711F0CD01C1DFB2
:10288000A1960FB6F894DEBF0FBECDBFDF91CF91FA
:102890001F910F91BF90AF909F908F900895E95C2A
:1028A000E2CFAFCF882319F08DE697E0FACF86E626
:1028B00097E0FCCFFC0180819181009711F00C948E
:1028C0004B5308950C944B530C944B530C944B5313
:1028D0000C944B530C944B530C944B530C944B5300
:1028E0000C944B530C944B530C944B530C944B53F0
:1028F0000C944B530C944B530C944B530C944B53E0
:102900000C944B530C944B530C944B530C944B53CF
:102910000C944B530C944B530C944B530C944B53BF
:10292000CF92DF92EF92FF92CF93DF9397FF18C081
:102930006B017C018DE20E949B08EC0166277727E2
:10294000CB016C197D098E099F094AE067DF8C0F66
:102950009D1FDF91CF91FF90EF90DF90CF90089572
:102960004AE0DF91CF91FF90EF90DF90CF9056CF6C
:10297000BC01990F880B990BD3CFCF93DF93EC0158
:1029800088E993E08EDF6AA17BA18CA19DA1C8DFBD
:1029900081EE97E0DF91CF9184CF0F931F93CF9378
:1029A000DF938C01EB018AE793E07BDF83E596E020
:1029B00078DFF80180810E949B08CE01D9DF91DE8B
:1029C000DF91CF911F910F91D8CFEF92FF920F938C
:1029D0001F93CF93DF93182F092F7B01611571058A
:1029E00069F50E94550931E020E0019709F030E0D7
:1029F000C32FD22F82E0E816F10408F045C08BE91E
:102A000093E04FDF83E596E04CDF8FE993E049DF09
:102A1000812F902FADDF83E596E043DF82E198E0E0
:102A200040DFCE01A5DF5DDEA8DF90E080E0DF9132
:102A3000CF911F910F91FF90EF900895D0E0C0E0EB
:102A400061307105B9F6812F163310F08AEC810FD1
:102A500020917B00982F9870277F922B90937B007A
:102A60008770806480937C0080917A00806480937A
:102A70007A0080917A0086FDFCCF80917800C09129
:102A80007900DC2FC82FB6CF81E090E0D0CF0F9334
:102A90001F93CF93DF93FC012081318121153105F4
:102AA000C1F1EC01822F0E94550921E0892B09F424
:102AB00020E02B876A85261701F11E821F82188667
:102AC00019860E811F81288539858A819B81AC8179
:102AD000BD81081719072A073B07DCF081E068274A
:102AE00088810E947D0989DD70E060E0888199819C
:102AF000DF91CF911F910F9168CF8E819F81A88523
:102B0000B9850196A11DB11D8E839F83A887B987C2
:102B1000D8CFDF91CF911F910F910895CF93DF937D
:102B2000EB016BDD6AA97BA98E8D9F8D4EDF90E056
:102B300080E0DF91CF910895CF92DF92EF92FF92E4
:102B4000CF93DF93EB01CB010E942C07882351F137
:102B5000FE01EE0FFF1FEE0FFF1FE95CF64FC08076
:102B6000D180E280F38081EA93E09BDE83E596E00A
:102B700098DE8FE993E095DECE01FADE83E596E0FC
:102B800090DE82E198E08DDEC701B601C9DEA9DDE5
:102B9000F4DE90E080E0DF91CF91FF90EF90DF9046
:102BA000CF90089585EA93E07CDEF3CF0F931F93D7
:102BB000CF93DF938C01D0E0C0E0CE010E942C07C0
:102BC000882319F0BE01C801B7DF2196C13ED105A7
:102BD000A1F7DF91CF911F910F91089587EC93E0BA
:102BE00060DE8AE292E05DDE8AE092E05ADE8CEC02
:102BF00093E057DE76DDC1DE90E080E00895CF936C
:102C0000DF93EC0187ED93E04CDE8BED93E049DE42
:102C10008C8D48DE8FED93E044DE8D8D43DE83EEB8
:102C200093E03FDE8E8D3EDE87EE93E03ADE8F8DC1
:102C300039DE8BEE93E035DE88A134DE8FEE93E053
:102C400030DE89A12FDECE01DF91CF9196CE49DD16
:102C5000D6CF83EF93E025DE44DD8ADD42DDCFDF92
:102C6000CCDC70E060E088E090E0AFDEC6DC70E0D5
:102C700060E089E090E0A9DEC0DC70E060E08AE01E
:102C800090E0A3DEBADC70E060E08DE090E09DDED5
:102C900090E080E008952F923F924F925F926F9262
:102CA0007F928F929F92AF92BF92CF92DF92EF92DC
:102CB000FF920F931F93CF93DF9300D000D01F920A
:102CC0001F92CDB7DEB71C01FC01E958FF4F1082FF
:102CD0003196108287589F4FFC011082D101A6586F
:102CE000BF4F1C923396108226013701441A550AB1
:102CF000660A770A49825A826B827C8277FE0CC010
:102D00007094609450944094411C511C611C711C3F
:102D100049825A826B827C824C155D056E057F0567
:102D200034F568017901C41AD50AE60AF70A498020
:102D30005A806B807C8075946794579447944D8239
:102D40005E826F827886810104581F4F49805A80C5
:102D50006B807C804C145D046E047F0488F4F10168
:102D600060A471A481E08C93F801808327C0B9012D
:102D7000A8014C195D096E097F096A017B01D7CF53
:102D80004D805E806F8078844C145D046E047F04F7
:102D900008F4C6C04AA05BA06CA07DA04C145D04E2
:102DA0006E047F040CF083C06E8C7F8C2FEF621A50
:102DB000720A21E0FC012083F8012083F101848163
:102DC000882309F45AC00E94470AF1010281138145
:102DD000012E000C220B330B601B710B820B930B2B
:102DE000693E73408105910508F447C00E94470A77
:102DF000F101738362838AEF93E053DD8EEF93E0FA
:102E000050DD60E070E0CB018BDD84E094E049DDD3
:102E1000C701B60185DD8AE094E043DD69817A81EE
:102E20008B819C817DDD80E194E03BDD4AE06D811A
:102E30007E818F819885F2DC87E194E032DD6AA1A2
:102E40007BA18CA19DA16CDD8DE194E02ADDC50103
:102E5000B40166DD83E294E024DD6E8D7F8D88A170
:102E600099A15EDD89E294E01CDD83E596E019DD41
:102E7000C3017EDD81EE97E014DDC30128960FB615
:102E8000F894DEBF0FBECDBFDF91CF911F910F91A0
:102E9000FF90EF90DF90CF90BF90AF909F908F907A
:102EA0007F906F905F904F903F902F900895C70153
:102EB000B6010E942E582B013C016AA17BA18CA176
:102EC0009DA10E942E589B01AC01C301B2010E943A
:102ED0001C5A2B013C016E8D7F8D88A199A1681928
:102EE00079098A099B090E942E589B01AC01C301F4
:102EF000B2010E948D582B013C01C501B4010E9412
:102F00002E589B01AC01C301B2010E94B8590E9426
:102F1000845A3B0181E0F101E958FF4F808324CFBF
:102F200089819A81AB81BC814AA05BA06CA07DA005
:102F300084199509A609B709C816D906EA06FB0639
:102F400054F46E8C7F8C22E0620E711C81E0F101E2
:102F5000E758FF4FE3CF69817A818B819C816C199F
:102F60007D098E099F090E942E582B013C016AA100
:102F70007BA18CA19DA10E942E589B01AC01C30195
:102F8000B2010E941C5A2B013C016E8D7F8D88A1DD
:102F900099A1681979098A099B090E942E589B01F9
:102FA000AC01C301B2010E948D582B013C01C50147
:102FB000B4010E942E589B01AC01C301B2010E94D2
:102FC000B8590E94845A3B0181E0F101E858FF4F53
:102FD000A5CF2F923F924F925F926F927F928F92E6
:102FE0009F92AF92BF92CF92DF92EF92FF920F9398
:102FF0001F93CF93DF9300D01F92CDB7DEB79C8392
:103000008B83865B9F4F9A838983DC014D915D9111
:103010006D917C910B811C81025B1F4FF8018081B7
:103020009181A281B381CB80DC80F2E5CF0ED11CEF
:10303000F601F0802B813C812C583F4F5901EB81E8
:10304000FC81EB58FF4F3F01FF2009F441C0EB81A9
:10305000FC8120ADF501208321E0F301208341159F
:10306000510561057105A1F42081EB81FC81E559D1
:10307000FF4F7F01EB81FC81222309F451C084A022
:1030800095A0A6A0B7A0F70180829182A282B38208
:103090008B809C80F6E48F0E911CF401208031809F
:1030A000428053802B813C812D583F4F5901281677
:1030B00039064A065B06CCF5481759076A077B07AD
:1030C000F4F1D6018C9181113AC0D5011C92C9C08E
:1030D00021E0481759076A077B070CF020E0F5014B
:1030E00020831A012B0177FF07C0222433242101FA
:1030F000241A350A460A570A4C015D01B7FF07C07A
:10310000882499245401881A990AAA0ABB0A21E042
:10311000281439044A045B040CF09FCF20E09DCFB3
:1031200080A091A0A2A0B3A0AECF82159305A40564
:10313000B5053CF684179507A607B70714F6F50101
:103140008081882311F2D6018C9181110FC0F60184
:1031500080818111BACFD3016C9181E068278B8186
:103160009C810E944D108111B0CF07C060E08B811F
:103170009C810E944D108111EACFD801CD90DD9045
:10318000ED90FC90E981FA810081118122813381E7
:10319000D4014D915D916D917C91D301EC918B8126
:1031A0009C8185599F4F3C01E11127C0AB81BC81B7
:1031B00090968D909D90AD90BC9093979F96EC913A
:1031C0009F97EF939E96EC919E97EF939D96EC912F
:1031D0009D97EF939C96EC919C97EF935B96EC9167
:1031E0005B97EF935A96EC915A97EF935996EC911F
:1031F0005997EF935896EC9124C0EB81FC8184A001
:1032000095A0A6A0B7A0E3A9EF93AB81BC81D2960D
:10321000EC91D297EF93D196EC91D197EF93D09612
:10322000EC91D097EF935F96EC915F97EF935E965A
:10323000EC915E97EF935D96EC915D97EF935C96C2
:10324000EC91EF938B819C8126DDB0E0A0E0F3014F
:1032500080839183A283B3830FB6F894DEBF0FBE41
:10326000CDBF60E08B819C810E944D10882331F09E
:10327000E981FA8110821182128213820F900F90DD
:103280000F900F90DF91CF911F910F91FF90EF90D2
:10329000DF90CF90BF90AF909F908F907F906F9076
:1032A0005F904F903F902F9008954F925F926F9252
:1032B0007F928F929F92AF92BF92CF92DF92EF92C6
:1032C000FF920F931F93CF936B017C01742EAC017F
:1032D0009B010E94B95A882391F08FE294E0CF912C
:1032E0001F910F91FF90EF90DF90CF90BF90AF9024
:1032F0009F908F907F906F905F904F9082CA460111
:103300005701E894B7F82FEF3FEF4FE75FE7C501AC
:10331000B4010E94B95A81110DC02FEF3FEF4FE762
:103320005FE7C501B4010E94285818161CF483E316
:1033300094E0D5CF2FEF3FEF4FE75FE4C701B60131
:103340000E94B55A18161CF487E394E0C8CF2FEFFB
:103350003FEF4FE75FECC701B6010E94285887FD99
:10336000F3CF20E030E0A901C701B6010E94285840
:1033700010E000E087FF08C08DE20E949B088C01EE
:10338000F7FAF094F7F8F094C0E060E070E080E0C5
:103390009FE37C1641F020E030E040E251E40E94DF
:1033A0001C5ACF5FF6CFA70196010E94B8592B0196
:1033B0003C010E94895A4B015C014AE02FDA7C01F2
:1033C000E00EF11ECC23A9F1C501B4010E942C58D6
:1033D0009B01AC01C301B2010E94B7594B015C01D2
:1033E0008EE20E949B08E80EF91EC15010F120E009
:1033F00030E040E251E4C501B4010E948D582B0138
:103400003C010E94895A4B01B12CA12C4AE0C50114
:10341000B40104DAE80EF91EC501B4010E942C586B
:103420009B01AC01C301B2010E94B7594B015C0181
:10343000DCCFC701CF911F910F91FF90EF90DF90EC
:10344000CF90BF90AF909F908F907F906F905F9044
:103450004F9008958F929F92AF92BF92CF92DF923A
:10346000EF92FF920F931F93CF93DF93EC018AE3C8
:1034700092E017DA80E594E014DA6E0186E4C81A67
:103480008EEFD80AC6010E941F0D0E942E584B01D4
:103490005C01FE01E550FD4F608171818281938165
:1034A0000E942E589B01AC01C501B4010E941C5A18
:1034B00042E0FBDE80E694E0F4D97E01E6E1EE1A1C
:1034C000EEEFFE0AC7010E941F0D0E942E584B010D
:1034D0005C01FE01E150FD4F608171818281938129
:1034E0000E942E589B01AC01C501B4010E941C5AD8
:1034F00042E0DBDE80E794E0D4D98E01065E1D4F0A
:10350000C8010E941F0D0E942E584B015C01CD5F27
:10351000DC4F688179818A819B810E942E589B01B2
:10352000AC01C501B4010E941C5A42E0BEDED9D8EC
:1035300024DA86E392E0B5D980E594E0B2D9F601C9
:10354000A68DB78D20893189428953890E9480597F
:10355000E7D980E694E0A5D9F701A68DB78D20893B
:103560003189428953890E948059DAD980E794E0F1
:1035700098D9F801A68DB78D208931894289538960
:103580000E948059CDD9ADD8DF91CF911F910F9175
:10359000FF90EF90DF90CF90BF90AF909F908F9073
:1035A000ECC9CF92DF92EF92FF92CF93DF93EC01C1
:1035B00088819981AA81BB81181619061A061B06F3
:1035C00044F081E090E0A0E0B0E088839983AA8392
:1035D000BB838C819D81AE81BF81181619061A06A6
:1035E0001B0644F081E090E0A0E0B0E08C839D8376
:1035F000AE83BF8388859985AA85BB851816190671
:103600001A061B0644F081E090E0A0E0B0E0888755
:103610009987AA87BB878BE394E043D980E594E040
:1036200040D96E857F85888999890E942E586B01C3
:103630007C01688179818A819B810E942E589B013F
:10364000AC01C701B6010E941C5A42E02EDE80E6A2
:1036500094E027D96A897B898C899D890E942E589C
:103660006B017C016C817D818E819F810E942E582F
:103670009B01AC01C701B6010E941C5A42E015DE55
:1036800080E794E00ED96E897F89888D998D0E949C
:103690002E586B017C01688579858A859B850E94FF
:1036A0002E589B01AC01C701B6010E941C5A42E092
:1036B000FCDDCE01DF91CF91FF90EF90DF90CF90B6
:1036C0005CC90FD86EDF90E080E00895CF92DF9262
:1036D000EF92FF920F931F93CF93DF938C016A01B8
:1036E0007B01EC01CC0FDD1F642FCE010E944C59F1
:1036F0009927F7FC9A958F2D7E2D6D2DCE01019681
:103700000E944C590D5811090330110588F4B70176
:10371000992777FD9095892FCE0144960E944C59A8
:103720006F2D772788279927CE0145960E944C59FF
:1037300090E080E0DF91CF911F910F91FF90EF908B
:10374000DF90CF9008954F925F926F927F928F9209
:103750009F92AF92BF92CF92DF92EF92FF920F9320
:103760001F93CF93DF938C01EC01CC0FDD1FCE01B3
:103770000E944459882E912CB12CA12CCE01019687
:103780000E944459C82ED12CF12CE12C0D5811095E
:103790000330110508F05AC0CE0144960E944459E6
:1037A000482E512C712C612CCE0145960E94445913
:1037B000082F10E030E020E08FEF4816510461043C
:1037C000710429F50F3F11052105310501F58FEF32
:1037D00088169104A104B104C9F58FEFC816D1046D
:1037E000E104F10499F56FEF7FEFCB01DF91CF9109
:1037F0001F910F91FF90EF90DF90CF90BF90AF900F
:103800009F908F907F906F905F904F9008950038B9
:103810001105210531053CF7FE2CED2CDC2CCC24C8
:10382000C701B601680D791D8A1D9B1D3201552403
:103830004424640D751D861D971D302F22271127E6
:103840000027600F711F821F931FD0CF00E010E090
:103850009801412C512C320180E8C816D104E104B2
:10386000F104D4F2C0CFEF92FF920F931F93CF9346
:10387000DF938091190890911A08892B51F586E001
:1038800090E00E94AF527C0190E080E05CDF161671
:10389000170654F1C7010E94070DD0E0C0E0CE0129
:1038A0000E942C07882369F0FE01EE0FFF1FEE0F28
:1038B000FF1FE95CF64F4081518162817381CE0127
:1038C00005DF2196C639D10551F7F0921A08E0922A
:1038D00019088091190890911A08DF91CF911F91D2
:1038E0000F91FF90EF90089583E090E02CDF61301E
:1038F00071058105910531F507E319E0D0E0C0E0DD
:10390000CE010E942C078823B1F0CE011CDFF80104
:1039100060837183828393836F3F7F4F8F4F9F4F6D
:1039200051F4CE010E94D301F8014081518162819E
:103930007381CE01CBDE21960C5F1F4FC13ED105B6
:10394000F9F6C3CFC7010E94070DBFCFCF92DF9218
:10395000EF92FF920F931F93CF93DF937C016B0144
:103960008A01E90180DFF601EE0FFF1FEE0FFF1F56
:10397000E95CF64F80819181F7019183808373DF49
:10398000000F111F000F111FF801E95CF64F81E0D5
:10399000408151816281738141305105610571051A
:1039A00009F080E0F70182875EDFCC0FDD1FCC0FCE
:1039B000DD1FC95CD64F88819981AA81BB81F7013F
:1039C00082839383A483B58316821782108611861F
:1039D000DF91CF911F910F91FF90EF90DF90CF90EB
:1039E0000895CF93DF93EC012AEC30E04BEC50E0EC
:1039F00069EC70E0ABDF2EEC30E04FEC50E06DECAA
:103A000070E0CE010C96A2DF24ED30E045ED50E0F1
:103A100063ED70E0CE01489699DF28ED30E049ED86
:103A200050E067ED70E0CE01849690DF2EED30E03F
:103A30004FED50E06DED70E0CE01C096DF91CF917B
:103A400085CFCF93DF9380911D0890911E08892B1D
:103A5000A1F48CE390E00E94AF52EC01198218822D
:103A60001D861C86198E188E1DA21CA219AA18AAC2
:103A7000B8DFD0931E08C0931D0880911D08909157
:103A80001E08DF91CF9108952F923F924F925F923F
:103A90006F927F928F929F92AF92BF92CF92DF925E
:103AA000EF92FF920F931F93CF93DF93EC01DBDE36
:103AB000FE01EF5CFC4F8091F30A9091F40A918330
:103AC0008083D1DEFE01ED5CFC4F8091F70A90917E
:103AD000F80A91838083C7DEFE01EB5CFC4F809186
:103AE000FB0A9091FC0A91838083BDDE8E01095C04
:103AF0001C4F60911B0B70911C0B80911D0B9091C2
:103B00001E0B0E942E58F801608371838283938379
:103B1000AADE1E01F5EC2F1AFCEF3F0A60911F0B85
:103B20007091200B8091210B9091220B0E942E58B6
:103B3000F101608371838283938395DE20E030E01E
:103B400048EC52E4F80160817181828193810E9486
:103B50001C5A2B013C0120E030E048EC52E4F1011A
:103B600060817181828193810E941C5A4B015C01AA
:103B70006091230B7091240B8091250B9091260B63
:103B80000E942E5820E030E048EC52E40E941C5A7B
:103B90006B017C012AE037ED43E25CE3C301B20133
:103BA0000E94B55A18160CF02BC120E030E046EC0C
:103BB00052E4C301B2010E94285887FD06C0412C7F
:103BC000512C56EC652E52E4752EF801408251823C
:103BD000628273822AE037ED43E25CE3C501B401FF
:103BE0000E94B55A18160CF014C120E030E046ECE3
:103BF00052E4C501B4010E94285887FD06C0812CFB
:103C0000912C36ECA32E32E4B32EF1018082918206
:103C1000A282B3822AE037ED43E25CE3C701B6013A
:103C20000E94B55A18160CF0FDC020E030E046ECBA
:103C300052E4C701B6010E94285887FD06C0C12C76
:103C4000D12C96ECE92E92E4F92EFE01E15CFC4FBA
:103C5000C082D182E282F38206DE8091DB0A9091FB
:103C6000DC0AFE01EA5BFC4F91838083FCDD8091DE
:103C7000DF0A9091E00AFE01E85BFC4F91838083AC
:103C8000F2DD8091E30A9091E40AFE01E65BFC4FCD
:103C900091838083E8DD8091030B9091040BA091C8
:103CA000050BB091060BFE01E45BFC4F8083918312
:103CB000A283B383D8DD8091070B9091080BA0916C
:103CC000090BB0910A0BFE01E05BFC4F80839183EE
:103CD000A283B383C8DD80910B0B90910C0BA09154
:103CE0000D0BB0910E0BFE01EC5AFC4F80839183BB
:103CF000A283B383B8DD80912B0B90912C0BFE0136
:103D0000E85AFC4F91838083AEDD80912F0B909118
:103D1000300BFE01E65AFC4F91838083A4DD809135
:103D2000330B9091340BFE01E45AFC4F9183808356
:103D30009ADD8091430B9091440BFE01E25AFC4FB7
:103D40009183808390DD8091470B9091480BFE0119
:103D5000E05AFC4F9183808386DD80914B0B9091DC
:103D60004C0BFE01EE59FC4F918380837CDD8091EA
:103D7000CB0A9091CC0AA091CD0AB091CE0AFE0157
:103D8000ED5BFC4F0197A105B10509F054C081E03E
:103D9000808369DD8091CF0A9091D00AA091D10AE9
:103DA000B091D20AFE01EC5BFC4F0197A105B10571
:103DB00009F043C081E0808356DD8091D30A909161
:103DC000D40AA091D50AB091D60ACB5BDC4F0197FB
:103DD000A105B105A1F581E08883DF91CF911F9105
:103DE0000F91FF90EF90DF90CF90BF90AF909F909A
:103DF0008F907F906F905F904F903F902F9008959D
:103E00004AE0442E47ED542E43E2642E4CE3742ED8
:103E1000DCCE2AE0822E27ED922E23E2A22E2CE386
:103E2000B22EF3CE8AE0C82E87EDD82E83E2E82E9C
:103E30008CE3F82E0ACF1082ACCF1082BDCF18824F
:103E4000CCCF2F923F924F925F926F927F928F9240
:103E50009F92AF92BF92CF92DF92EF92FF920F9319
:103E60001F93CF93DF93CDB7DEB76F970FB6F8945C
:103E7000DEBF0FBECDBF9B8F8A8FF5DCEA8DFB8D39
:103E8000EB59FD4F81E04091030A5091040A609183
:103E9000050A7091060A452B462B472B09F480E052
:103EA0008083E1DCEA8DFB8DEA59FD4F81E0409192
:103EB000070A5091080A6091090A70910A0A452B75
:103EC000462B472B09F480E08083CDDCEA8DFB8D07
:103ED000E959FD4F81E040910B0A50910C0A609125
:103EE0000D0A70910E0A452B462B472B09F480E0F2
:103EF0008083B9DC8091530A9091540AA091550AAD
:103F0000B091560AEA8DFB8DE859FD4F808391836D
:103F1000A283B383A8DC8091570A9091580AA0919C
:103F2000590AB0915A0AEA8DFB8DE459FD4F8083FE
:103F30009183A283B38397DC80915B0A90915C0AA2
:103F4000A0915D0AB0915E0AEA8DFB8DE059FD4FAC
:103F500080839183A283B38386DC8091530A9091FE
:103F6000540AA091550AB091560AEA8DFB8DEC587F
:103F7000FD4F80839183A283B38375DC8091570AC0
:103F80009091580AA091590AB0915A0AEA8DFB8D76
:103F9000E858FD4F80839183A283B38364DC8091D2
:103FA0005F0A9091600AA091610AB091620AEA8D5D
:103FB000FB8DE458FD4F80839183A283B38353DC50
:103FC00080912B0A90912C0AA0912D0AB0912E0A73
:103FD000EA8DFB8DE457FD4F80839183A283B383E9
:103FE00042DC80912F0A9091300AA091310AB09161
:103FF000320AEA8DFB8DE057FD4F80839183A283C7
:10400000B38331DC8091330A9091340AA091350A50
:10401000B091360AEA8DFB8DEC56FD4F808391837B
:10402000A283B38320DC80912B0A90912C0AA0916B
:104030002D0AB0912E0AEA8DFB8DE856FD4F808344
:104040009183A283B3830FDC80912F0A9091300A71
:10405000A091310AB091320AEA8DFB8DE456FD4FF2
:1040600080839183A283B383FEDB8091370A909192
:10407000380AA091390AB0913A0AEA8DFB8DE056D0
:10408000FD4F80839183A283B383EDDB80913B0A54
:1040900090913C0AA0913D0AB0913E0AEA8DFB8DB9
:1040A000EC55FD4F80839183A283B383DCDB809149
:1040B0003F0A9091400AA091410AB091420AEA8DCC
:1040C000FB8DE855FD4F80839183A283B383CBDBC7
:1040D0008091430A9091440AA091450AB091460A02
:1040E000EA8DFB8DE455FD4F80839183A283B383DA
:1040F000BADB8091DB099091DC09A091DD09B091D8
:10410000DE09EA8DFB8DE055FD4F80839183A2830C
:10411000B383A9DB8091DF099091E009A091E109C7
:10412000B091E209EA8DFB8DEC54FD4F80839183C1
:10413000A283B38398DB8091E3099091E409A09175
:10414000E509B091E609EA8DFB8DE854FD4F8083C7
:104150009183A283B38387DB8091DB099091DC0993
:10416000A091DD09B091DE09EA8DFB8DE454FD4F8D
:1041700080839183A283B38376DB8091DF09909162
:10418000E009A091E109B091E209EA8DFB8DE054CC
:10419000FD4F80839183A283B38365DB8091E70920
:1041A0009091E809A091E909B091EA09EA8DFB8DA7
:1041B000EC53FD4F80839183A283B38354DBEA8D5C
:1041C000FB8DE853FD4F81E02091B3093091B40994
:1041D0002130310509F080E0808345DBEA8DFB8DDD
:1041E000E753FD4F81E02091B7093091B8092130A4
:1041F000310509F080E0808336DBEA8DFB8DE653E4
:10420000FD4F81E02091BB093091BC09213031057F
:1042100009F080E0808327DBEA8DFB8DEA51FD4FBA
:1042200081E040918B0950918C0960918D097091CA
:104230008E09452B462B472B09F480E0808313DB46
:10424000EA8DFB8DE951FD4F81E040918F0950913E
:1042500090096091910970919209452B462B472B4B
:1042600009F480E08083FFDAEA8DFB8DE851FD4F91
:1042700081E0409193095091940960919509709162
:104280009609452B462B472B09F480E08083EBDA17
:10429000EA8DFB8DE751FD4F81E04091630A50911B
:1042A000640A6091650A7091660A452B462B472B7C
:1042B00009F480E08083D7DAEA8DFB8DE651FD4F6B
:1042C00081E04091670A5091680A6091690A709193
:1042D0006A0A452B462B472B09F480E08083C3DA1A
:1042E000EA8DFB8DE551FD4F81E040916B0A5091C5
:1042F0006C0A60916D0A70916E0A452B462B472B14
:1043000009F480E08083AFDAEA8DFB8DE451FD4F44
:1043100081E020919B0930919C092130310509F001
:1043200080E08083A0DAEA8DFB8DE351FD4F81E0D0
:1043300020919F093091A0092130310509F080E0DA
:10434000808391DAEA8DFB8DE251FD4F81E020916F
:10435000A3093091A4092130310509F080E0808360
:1043600082DA8091630990916409A0916509B09106
:104370006609EA8DFB8DE151FD4F80839183A28315
:10438000B38371DA8091670990916809A0916909F6
:10439000B0916A09EA8DFB8DED50FD4F80839183CA
:1043A000A283B38360DA80916B0990916C09A0912C
:1043B0006D09B0916E09EA8DFB8DE950FD4F808348
:1043C0009183A283B3834FDAEA8DFB8DE652FD4FD2
:1043D00081E0409173095091740960917509709161
:1043E0007609452B462B472B09F480E080833BDA86
:1043F000EA8DFB8DE552FD4F81E0409177095091A8
:1044000078096091790970917A09452B462B472BE1
:1044100009F480E0808327DAEA8DFB8DE452FD4FBA
:1044200081E040917B0950917C0960917D097091F8
:104430007E09452B462B472B09F480E0808313DA55
:1044400080916B0B90916C0BA0916D0BB0916E0BEA
:10445000EA8DFB8DE553FD4F80839183A283B38367
:1044600002DA80916F0B9091700BA091710BB0915B
:10447000720BEA8DFB8DE153FD4F80839183A28304
:10448000B383F1D98091730B9091740BA091750B4C
:10449000B091760BEA8DFB8DED52FD4F80839183B9
:1044A000A283B383E0D9EA8DFB8DE352FD4F81E017
:1044B0002091CB093091CC092130310509F080E001
:1044C0008083EA8DFB8DE252FD4F1082EA8DFB8DD9
:1044D000E152FD4F1082C7D9EA8DFB8DE052FD4FAE
:1044E00081E02091C7093091C8092130310509F0D8
:1044F00080E08083EA8DFB8DEF51FD4F1082EA8DC5
:10450000FB8DEE51FD4F1082AED9EA8DFB8DED5142
:10451000FD4F81E02091EB093091EC09213031050C
:1045200009F080E080839FD9EA8DFB8DEC51FD4F2F
:1045300081E02091EF093091F0092130310509F037
:1045400080E0808390D9EA8DFB8DEB51FD4F81E0B7
:104550002091F3093091F4092130310509F080E010
:10456000808381D9EA8DFB8DE952FD4F81E0209156
:104570007B0B30917C0B2130310509F080E080838A
:1045800072D9EA8DFB8DE852FD4F81E020917F0BBF
:104590003091800B2130310509F080E0808363D9B0
:1045A000EA8DFB8DE752FD4F81E02091830B309126
:1045B000840B2130310509F080E0808354D90A8DC5
:1045C0001B8D05501D4F8091130A9091140AA091E4
:1045D000150AB091160AF80180839183A283B383F0
:1045E00042D9EA8CFB8CF1E0EF1AFDEFFF0A8091D3
:1045F000170A9091180AA091190AB0911A0AF701A6
:1046000080839183A283B3832ED980911B0A9091DA
:104610001C0AA0911D0AB0911E0ACA8CDB8CF3E023
:10462000CF0EDF1EF60180839183A283B383F8014E
:104630004081518162817381141615061606170692
:1046400044F041E050E060E070E0408351836283D9
:104650007383F701408151816281738114161506BD
:104660001606170644F041E050E060E070E0408339
:10467000518362837383181619061A061B064CF0C1
:1046800081E090E0A0E0B0E0F60180839183A28316
:10469000B3830E947113FC01D6018D909D90AD9063
:1046A000BC90D7014D915D916D917C91D8010D9198
:1046B0001D912D913C910083118322833383448388
:1046C00055836683778380869186A286B386EA8D3A
:1046D000FB8D7096FA83E983EA8DFB8DE952FD4FDD
:1046E00080808B82EA8DFB8DE553FD4F40815181A7
:1046F00062817381EA8DFB8DED51FD4F90809D822B
:10470000EA8DFB8DE451FD4FA080AC82EA8DFB8DDC
:10471000E352FD4FB080B986EA8DFB8DE052FD4F2C
:1047200020812A87EA8DFB8DE751FD4F80818E879E
:10473000EA8DFB8DEA51FD4F90819A8BEA8DFB8DBE
:10474000E853FD4F2080EA8DFB8DEB59FD4F308003
:10475000EA8DFB8DE151FD4F008111812281338172
:10476000EA8DFB8DE055FD4F80819181A281B3815F
:10477000EA8DFB8DEC55FD4FC080D180E280F38047
:10478000EA8DFB8DE457FD4F80809180A280B3803D
:10479000EA8DFB8DE859FD4F408051806280738027
:1047A000EA8DFB8D40A651A662A673A680AA91AAA7
:1047B000A2AAB3AA84AF95AFA6AFB7AF44A655A639
:1047C00066A677A684AA95AAA6AAB7AAE05CFF4F18
:1047D00080839183A283B383AA8DBB8DD896CD921B
:1047E000DD92ED92FC92DB97FD01EC5BFF4F0083C5
:1047F0001183228333833496308231962082EA8972
:104800009596EC939597FE859696FC9396978C805B
:1048100097968C9280E490E0A0E0B0E0EA8DFB8D6A
:10482000E45BFF4F80839183A283B383EA8DFB8D8A
:10483000E65BFF4F9A849082EA8DFB8DE55BFF4F2C
:10484000A984A082EA8DFB8DE05BFF4FBD80B08222
:10485000EA8DFB8DEF5AFF4F408351836283738350
:10486000EA8DFB8DEB5AFF4F2B812083AA8DBB8DE8
:1048700055968D919C9156978633910509F097C274
:1048800083EF9EE0FD01E257FF4F918380833296D4
:104890001182108285EF9EE0369691838083329656
:1048A00011821082EA8DFB8D838D948D4A97D1F40D
:1048B00087E09FE0EE56FF4F91838083EA8DFB8D6A
:1048C000EC56FF4F1182108289E09FE0EA8DFB8D4C
:1048D000E656FF4F91838083EA8DFB8DE456FF4FB0
:1048E000118210820A8D1B8D02561F4FEA8DFB8D9F
:1048F000E852FD4F80808B82EA8DFB8DE153FD4FA6
:1049000080819181A281B3818D839E83AF83B8879B
:10491000EA8DFB8DEC51FD4F90819C83EA8DFB8DE0
:10492000E351FD4FA081A987EA8DFB8DE252FD4F37
:10493000B081BA87EA8DFB8DEF51FD4F80808E8666
:10494000EA8DFB8DE651FD4F2080EA8DFB8DE9510C
:10495000FD4F3080EA8DFB8DE753FD4F3081EA8DAE
:10496000FB8DEA59FD4F2081EA8DFB8DED50FD4F07
:10497000C080D180E280F380EA8DFB8DEC54FD4F46
:1049800080819181A281B381EA8DFB8DE855FD4F35
:1049900080809180A280B380EA8DFB8DE057FD4F2F
:1049A0004081518162817381EA8DFB8DE459FD4F15
:1049B0004080518062807380F801408E518E628EFB
:1049C000738E40A351A362A373A384A795A7A6A740
:1049D000B7A7448E558E668E778E44A355A366A3E3
:1049E00077A380AB91ABA2ABB3AB80A691A6A2A6F6
:1049F000B3A6C4AAD5AAE6AAF7AA20AF31AF358AD2
:104A0000268A8984878A80E490E0A0E0B0E084AFC1
:104A100095AFA6AFB7AF8E8482AE9A8493AEEA8D7F
:104A2000FB8DE252FF4FAC80A082EA8DFB8DE152FC
:104A3000FF4F8D819E81AF81B88580839183A28352
:104A4000B383EA8DFB8DED51FF4F9B819083D8019D
:104A500015968D919C918633910509F0DAC183EF0B
:104A60009EE0EA8DFB8DE45EFE4F91838083EA8DAC
:104A7000FB8DE25EFE4F1182108285EF9EE0EA8D93
:104A8000FB8DEC5DFE4F91838083EA8DFB8DEA5DAB
:104A9000FE4F11821082F801838594854A97E1F4D4
:104AA00087E09FE0EA8DFB8DE05EFE4F918380837F
:104AB000EA8DFB8DEE5DFE4F1182108289E09FE052
:104AC000EA8DFB8DE85DFE4F91838083EA8DFB8D3F
:104AD000E65DFE4F11821082EA8CFB8CF4EDEF1A3A
:104AE000FEEFFF0AEA8DFB8DE752FD4F80808B823F
:104AF000EA8DFB8DED52FD4F80819181A281B381C2
:104B00008D839E83AF83B887EA8DFB8DEB51FD4F7C
:104B100090819C83EA8DFB8DE251FD4F3080EA8DC0
:104B2000FB8DE152FD4FA081A987EA8DFB8DEE51EF
:104B3000FD4F2080EA8DFB8DE551FD4FC080EA8D51
:104B4000FB8DE851FD4FD080EA8DFB8DE653FD4F84
:104B50003081EA8DFB8DE959FD4F2081EA8DFB8D77
:104B6000E950FD4F80809180A280B3808A869B8629
:104B7000AC86BD86EA8DFB8DEC53FD4F8081918123
:104B8000A281B3818E879F87A88BB98BEA8DFB8D1D
:104B9000E854FD4F80809180A280B3808C8E9D8EE2
:104BA000AE8EBF8EEA8DFB8DE455FD4F80819181E5
:104BB000A281B3818A8B9B8BAC8BBD8BEA8DFB8DE5
:104BC000E056FD4F80819181A281B381EA8DFB8DFA
:104BD000EC56FD4F4080518062807380EA8DFB8DE2
:104BE000E458FD4F4081518162817381EA8DFB8DD4
:104BF000E059FD4F80809180A280B380F701808EC4
:104C0000918EA28EB38E40A251A262A273A28C8C0E
:104C10009D8CAE8CBF8C84A695A6A6A6B7A6448F05
:104C2000558F668F778F84A395A3A6A3B7A38E8491
:104C30009F84A888B98880AA91AAA2AAB3AA8A88C0
:104C40009B88AC88BD8880A691A6A2A6B3A68A84BC
:104C50009B84AC84BD8484AA95AAA6AAB7AA20AFD7
:104C600031AFD58AC68A378A80E490E0A0E0B0E010
:104C700084AF95AFA6AFB7AF22AE898483AEEA8D7D
:104C8000FB8DE459FE4F9C809082EA8DFB8DE359A9
:104C9000FE4F8D819E81AF81B88580839183A283F1
:104CA000B383EA8DFB8DEF58FE4F9B819083D70134
:104CB00015968D919C918633910509F0D2C083EFB2
:104CC0009EE0EA8DFB8DE655FE4F91838083EA8D51
:104CD000FB8DE455FE4F1182108285EF9EE0EA8D38
:104CE000FB8DEE54FE4F91838083EA8DFB8DEC5457
:104CF000FE4F11821082F701838594854A97E1F473
:104D000087E09FE0EA8DFB8DE255FE4F9183808323
:104D1000EA8DFB8DE055FE4F1182108289E09FE005
:104D2000EA8DFB8DEA54FE4F91838083EA8DFB8DE3
:104D3000E854FE4F11821082EA8DFB8DE652FD4F42
:104D40008081882309F4B5C089819A810E94BA0FB5
:104D5000EA8DFB8DE552FD4F8081882309F4AEC0BA
:104D6000C8010E94BA0F8A8D9B8D84529D4FDC0131
:104D70008C91882309F4A6C0C7016F960FB6F894EA
:104D8000DEBF0FBECDBFDF91CF911F910F91FF907E
:104D9000EF90DF90CF90BF90AF909F908F907F90DB
:104DA0006F905F904F903F902F900C94BA0F8C3380
:104DB0009105D9F487EF9EE0EA8DFB8DE257FF4F16
:104DC00091838083EA8DFB8DE057FF4F1182108223
:104DD00089EF9EE0EA8DFB8DEA56FF4F9183808339
:104DE000EA8DFB8DE856FF4F5BCD8E9709F05ACDCB
:104DF0008BEF9EE0EA8DFB8DE257FF4F918380831E
:104E0000EA8DFB8DE057FF4F1182108281E09FE019
:104E1000E1CF8C33910589F487EF9EE0EA8DFB8D1D
:104E2000E45EFE4F91838083EA8DFB8DE25EFE4F50
:104E30001182108289EF9EE022CE8E9709F02BCE50
:104E40008BEF9EE0EA8DFB8DE45EFE4F91838083C5
:104E5000EA8DFB8DE25EFE4F1182108281E09FE0C1
:104E60000ECE8C33910589F487EF9EE0EA8DFB8DA1
:104E7000E655FE4F91838083EA8DFB8DE455FE4F0E
:104E80001182108289EF9EE02ACF8E9709F033CFEE
:104E90008BEF9EE0EA8DFB8DE655FE4F918380837C
:104EA000EA8DFB8DE455FE4F1182108281E09FE078
:104EB00016CF89819A810E947E0F4ACFC8010E9435
:104EC0007E0F51CFC7016F960FB6F894DEBF0FBEAD
:104ED000CDBFDF91CF911F910F91FF90EF90DF90A9
:104EE000CF90BF90AF909F908F907F906F905F908A
:104EF0004F903F902F900C947E0FAF92BF92CF9225
:104F0000DF92EF92FF920F931F93CF93DF93EC0109
:104F10008AE190E09E8B8D8B8BE190E0988F8F8B58
:104F200089E190E09A8F898F8FE090E09C8F8B8F42
:104F30008EE190E09E8F8D8F8EE090E098A38F8F12
:104F400085E490E09AA389A384E490E09CA38BA3DA
:104F5000FE01E256FF4F80E290E09683858381E276
:104F600090E0908787838FE190E092878187148615
:104F7000138616861586108A178683E490E0928B36
:104F8000818B82E490E0948B838BE257FF4F83E226
:104F900090E09683858384E290E09087878382E225
:104FA00090E0928781871486138616861586108A6C
:104FB000178681E490E0928B818B80E490E0948B63
:104FC000838BED5CFE4F118210823296118210822B
:104FD000329611821082CE010E94211FCE010E94C2
:104FE000441DCE0186549E4F41E050E0FC0157A77E
:104FF00046A7DE01A651BE4F24E030E09F963C93C9
:105000002E939E975E01F6EEAF1AFDEFBF0A28E0E1
:1050100030E0F50137A726A720E130E0FC0131831D
:10502000208321E130E0358324832FEF3FEF33836A
:10503000228337832683628560876385618767E182
:1050400070E011967C936E9368E170E015967C9306
:105050006E93149713963C932E93129717963C9346
:105060002E9316971A966C911A9718966C93189718
:105070001B966C911B9719966C9319976DE170E0D4
:10508000F501718360836CE170E075836483338321
:105090002283378326836285608763856187BE01AB
:1050A000625A7C4FFB01608171818E01045B1C4F51
:1050B000F801C080D180E280F38006501109F80128
:1050C00000811181FC01158F048FC48AD58AE68A7C
:1050D000F78A6130710509F04EC0378F268FCE01F7
:1050E000805A9C4FFC01808191819E01205B3C4F46
:1050F000F901408151816281738128503109F901A0
:10510000208131815D963C932E935C9754964D930C
:105110005D936D937C935797019781F58FEF9FEF88
:105120005F969C938E935E97DE01AE59BC4F8D9136
:105130009C9111971E974D915D916D917C91C65BED
:10514000DC4F28813981F501358F248F448B558BB5
:10515000668B778B0197A9F48FEF9FEF978F868FE0
:10516000DF91CF911F910F91FF90EF90DF90CF9043
:10517000BF90AF900895578F468FB1CF81E090E0F8
:10518000CFCF81E090E0EACF8F929F92AF92BF9213
:10519000CF92DF92EF92FF92CF93DF937B010E9439
:1051A000331CEC01F70182A093A0A4A0B5A0C68C8B
:1051B000D78CE0A0F1A08A819B818F30F7E29F0716
:1051C0000CF043C001969B838A838C819D818F3034
:1051D00027E29207ECF596012B7F21553109233008
:1051E000310530F096012B5531092330310518F483
:1051F00001969D838C83C6010E942C07882359F158
:10520000F601EE0FFF1FEE0FFF1FE95CF64F8082E5
:105210009182A282B382B501A401C6010E94661BDD
:10522000B601CE010E949C150E94211D0E94F11C16
:1052300090E080E0DF91CF91FF90EF90DF90CF90F2
:10524000BF90AF909F908F9008951B821A82BDCF20
:105250001D821C82D0CF85EA93E00E945114E4CFD6
:10526000CF93DF93EB010E94331C6E8D7F8D0E94E4
:105270009C1590E080E0DF91CF9108950E94331C4F
:105280000E94D6158FE394E00E9451140E9471137E
:105290000E94BD1490E080E008950F931F93CF9378
:1052A000DF93EC0188819981009759F02A813B8135
:1052B0002617370730F081E0DF91CF911F910F91D2
:1052C00008958B016F5F7F4F0E94075B009759F035
:1052D000998388831B830A832C813D81232B59F773
:1052E000FC011082E8CF80E0E7CF0F931F93CF93AC
:1052F000DF93EC018B01D1DF28813981811112C04C
:105300002115310519F0C9010E944B5319821882E9
:105310001D821C821B821A82CE01DF91CF911F91C8
:105320000F9108951D830C8363EE77E0C9010E94FD
:10533000F95BF2CFCF93DF93FC01E25BFD4F40813D
:1053400051814115510501F1EC01CE5ADD4F288103
:105350003981865B9D4F24173507E8F4FC01808175
:1053600091810097A1F0820F931FFC0180818A3008
:1053700031F08D3069F481EE97E00E9451148881FC
:105380009981019699838883DF91CF91089580E078
:105390000E949B08F4CF70E060E0A7DF19821882BA
:1053A000F3CF0F931F93CF93DF93EC018C01025B3C
:1053B0001D4FF80180819181892B19F0CE01BADF50
:1053C000F8CFDF91CF911F910F9108952F923F92C7
:1053D0004F925F926F927F928F929F92AF92BF9205
:1053E000CF92DF92EF92FF920F931F93CF93DF93B1
:1053F000CDB7DEB7CE58D1090FB6F894DEBF0FBED9
:10540000CDBF8C01FC0110821182128213821482A2
:1054100015821682178210861186128613861486CC
:105420001586168617864C01F0E18F0E911CC4017B
:105430000E94B01168018EE9C80ED11CC6010E94FD
:10544000B0117801E4EDEE1AEEEFFE0AC7010E94FA
:10545000B0115801F6E4AF1AFEEFBF0AC5010E9471
:10546000810D380186E1681A8EEF780AC3010E9427
:10547000810D2801E6EE4E1AEDEF5E0AC2010E9490
:10548000810DF801E65BFD4F1182108213821282BA
:105490001582148270E060E0CF0127DFF801E05B45
:1054A000FD4F118210823296118210823296118243
:1054B00010823296118210823296108211821282EC
:1054C0001382349610823196108231961082319672
:1054D00011821082329611821082329611821082CD
:1054E0003296108231961082319610823196108257
:1054F00011821282138234961082118212821382D8
:105500003496108211821282138234961082118294
:105510001282138234961082118212821382349680
:1055200010821182128213823496108211821282AA
:105530001382349610821182128213823496108262
:105540001182128213823496108211821282138287
:105550003496108211821282138234961082118244
:105560001282138234961082118212821382349630
:10557000108211821282138234961082118212825A
:105580001382349610821182128213823496108212
:105590001182128213823496108211821282138237
:1055A00034961082118212821382349610821182F4
:1055B00012821382349610821182128213823496E0
:1055C000108211821282138234961082118212820A
:1055D00013823496108211821282138234961082C2
:1055E0003196108231961082319610821182128289
:1055F00013823496108211821282138234961082A2
:105600001182128213823496108231961082319662
:105610001082319610823196108231961082319626
:105620001082319610823196108231961082319616
:105630001082319610823196108231961082319606
:1056400010823196108231961082319610823196F6
:1056500010823196108231961082319610823196E6
:10566000108231961082319610821182128213823A
:105670003496108211821282138234961082118223
:1056800012821382D801A550BD4F8CE0E9E1F2E00F
:1056900001900D928A95E1F7F801E95FFC4F1082C5
:1056A0001182128213823496108211821282138226
:1056B00034961082118212821382349611821082E3
:1056C00032961182108232961182108232961082A6
:1056D00011821282138234961082118212821382F6
:1056E00034961082118212821382349610821182B3
:1056F000128213823496108211821282138234969F
:105700001082118212821382349611821082329694
:10571000118210823296118210823296108211828A
:10572000128213823496108211821282138234966E
:105730001082118212821382349610823196108266
:105740003196108231961182108232961182108227
:105750003296118210823296108211821282138246
:105760003496108211821282138234961082118232
:105770001282138234961182108232961182108224
:1057800032961182108232961182108232961182E4
:1057900010823296118210823296118210823296D5
:1057A000118210821801F8E92F1AFCEF3F0AF1016B
:1057B0001082319611821082329611821082CE01AF
:1057C00001960E94B0118EE8FE013196D40101903D
:1057D0000D928A95E1F7CE0101960E94B0118EE8F4
:1057E000FE013196D60101900D928A95E1F7CE0126
:1057F00001960E94B0118EE8FE013196D70101900A
:105800000D928A95E1F788E5F801808B89E5F6012C
:1058100080838AE5F7018083CE0101960E94810D85
:1058200080E3FE013196D50101900D928A95E1F752
:10583000CE0101960E94810D80E3FE013196D301D5
:1058400001900D928A95E1F7CE0101960E94810D9B
:1058500080E3FE013196D20101900D928A95E1F725
:10586000C8014BDBF1011082C257DF4F0FB6F8942D
:10587000DEBF0FBECDBFDF91CF911F910F91FF9083
:10588000EF90DF90CF90BF90AF909F908F907F90E0
:105890006F905F904F903F902F900895CF93DF933C
:1058A0008091170890911808892B51F48DE693E0A8
:1058B0000E94AF52EC018ADDD0931808C0931708FC
:1058C0008091170890911808DF91CF910895CF9398
:1058D000DF9380911608811121C081E08093160822
:1058E000DDDFEC0140960E947C11CE0182569F4F75
:1058F0000E947C11CE01845D9E4F0E947C11C85A8B
:10590000DD4F88819981AA81BB810196A11DB11DBE
:1059100088839983AA83BB8310921608DF91CF9165
:105920000895CF93DF93EB0120E030E040E85FE3A0
:105930006A817B818C819D810E942858811110C0D1
:1059400083E494E00E945114A9DFFC01E65AFF4F62
:10595000108211821282138286549E4F0E94C00DC3
:1059600020E030E040E85FE36E817F8188859985A3
:105970000E942858811110C083E594E00E945114C0
:105980008DDFFC01E851FF4F1082118212821382D9
:1059900086519E4F0E94C00D20E030E040E85FE35A
:1059A0006A857B858C859D850E942858811110C051
:1059B00083E694E00E94511471DFFC01EA58FE4F27
:1059C0001082118212821382865E9D4F0E94C00D4A
:1059D0000E9471130E94BD1490E080E0DF91CF918E
:1059E0000895EF92FF920F931F93CF93DF9361156A
:1059F000710541F480E0DF91CF911F910F91FF90ED
:105A0000EF90089541155105A9F07B01EC010C813F
:105A10001D81040F151FB80140DC882359F328812C
:105A200039818C819D81B701820F931F0E94F95BA0
:105A30001D830C8381E0DFCFEF92FF920F931F93C2
:105A4000CF93DF93CDB7DEB764970FB6F894DEBF80
:105A50000FBECDBF7C01CB01BA018E010F5F1F4F7E
:105A600022E044E00E949252FC0101900020E9F7FC
:105A70003197AF01481B590BBC01C701B2DF6496D7
:105A80000FB6F894DEBF0FBECDBFDF91CF911F914F
:105A90000F91FF90EF900895EF92FF920F931F9355
:105AA000CF93DF93CDB7DEB72E970FB6F894DEBF56
:105AB0000FBECDBF7C01CB01BA012AE08E010F5F82
:105AC0001F4FA8010E940B54F80101900020E9F734
:105AD0003197AF01401B510BB801C70182DF2E96F1
