:100000009EC10000CDC10000CBC10000C9C10000ED
:10001000C7C10000C5C10000C3C10000C1C10000CC
:10002000BFC10000BDC10000BBC10000B9C10000DC
:10003000B7C10000B5C10000B3C10000B1C10000EC
:10004000AFC100000C94664AABC10000A9C100001A
:100050000C94944AA5C10000A3C100000C949249DD
:100060009FC100000C945C490C94324999C1000076
:1000700097C1000095C1000093C1000091C100002C
:100080000C94384A8DC100008BC1000089C100006A
:1000900087C1000085C1000083C1000081C100004C
:1000A0007FC100007DC100000C940A4A79C10000A4
:1000B00077C1000075C1000073C100000C94DC49D9
:1000C0006FC100006DC100006BC1000069C100007C
:1000D00067C1000065C1000063C1000061C100008C
:1000E0005FC100004E414E494E495459494E46CDDC
:1000F000CCCC3D0AD7233C17B7D13877CC2B3295DF
:1001000095E6241FB14F0A000020410000C84200BC
:10011000401C4620BCBE4CCA1B0E5AAEC59D740086
:10012000407A10F35A00A0724E18090010A5D4E8C6
:100130000000E87648170000E40B54020000CA9A59
:100140003B000000E1F505000080969800000040AB
:10015000420F000000A086010000001027000000F0
:1001600000E803000000006400000000000A000036
:100170000000000100000000002C76D888DC674FEA
:100180000823DFC1DFAE59E1B1B796E5E3E453C61A
:100190003AE651997696E8E6C28426EB898C9B6212
:1001A000ED407C6FFCEFBC9C9F40F2BAA56FA5F4BC
:1001B00090055A2AF75C936B6CF9676DC11BFCE0E4
:1001C000E40D47FEF520E6B500D0ED902E03009437
:1001D0003577050080841E080000204E0A000000CC
:1001E000C80C333333330F986E12831141EF8D21D6
:1001F00014893BE65516CFFEE6DB18D1844B381B3D
:10020000F77C1D901DA4BBE424203284725E228101
:1002100000C9F124ECA1E53D2700002100240027BE
:10022000002A002D00300033000101000004010706
:10023000010A0100002200250028002B002E0031B9
:1002400000340002010000050108010B010000203C
:10025000002300260029002C002F0032000001009E
:100260000003010601090105050505070508080841
:1002700008020202020A0A08080404040401010137
:10028000010101010103030303030303030407073F
:10029000070C0C0C0C0C0C0C0C02020202060606DD
:1002A00006060606060B0B0B0B0B0B0B0B010210C5
:1002B0002020080810204010204080020102010880
:1002C0000402010102040810204080804020100830
:1002D0000402018004020180402010080402010889
:1002E00004020101020408102040800102040810E9
:1002F00020408000000A0B02090C0D0E08070304C1
:1003000001000000000000000000000000000000EC
:1003100000000000000000000000000000000012CB
:1003200011100000000000000000000000000000AC
:1003300000000000000000000000DE4AD258112436
:100340001FBECFEFD1E2DEBFCDBF00E00CBF18E093
:10035000A0E0B2E0E2EAF7EC00E00BBF02C00790D9
:100360000D92A236B107D9F724E1A2E6B8E001C0A8
:100370001D92A035B207E1F711E0CEE9D1E000E02F
:1003800006C021970109802FFE010E94AB62CD3982
:10039000D10780E00807A9F70E94CF4C0C94C063F6
:1003A0002FCE8E3591050CF046C08B359105A4F407
:1003B0008033910524F58932910574F488319105D3
:1003C0008CF48F30910544F4863091053CF48230F2
:1003D000910514F4892B89F481E008950B97039714
:1003E00060F4FACF823291052CF48F319105A4F795
:1003F0004997F5CF8497029778F380E00895843485
:1004000091055CF48D3391053CF783339105ACF392
:10041000863391050CF3C797E2CF8435910544F4F8
:1004200081359105CCF687549109079730F7D4CFE1
:1004300085559109D4CF8638910504F58338910507
:100440005CF6823791056CF48F3691052CF6853673
:1004500091059CF2883691050CF4BECF895691091E
:10046000BECF8C3791053CF4893791050CF0B4CFA1
:1004700083579109B4CF8D579109B1CF803D910534
:100480008CF48D3C91050CF0A7CF843991053CF498
:10049000813991050CF0A0CF8D589109A0CF895CCE
:1004A00091099DCF8A3D91053CF4873D91050CF063
:1004B00093CF835D910993CF8D5D910990CF9C017E
:1004C000803E910508F048C5FC018827E559FD4F9D
:1004D0008F4F0C94AB624B03580361036A0377039D
:1004E0008003AC07AC07AC07AC07AC078D039A03DD
:1004F000A703AC07B403BD03C603D303DC03E503C2
:10050000EE03F7030004AC07090412041B04AC0754
:10051000AC07AC0724042D043604AC07AC073F0439
:100520004C04AC07AC07AC075904660473048004A0
:100530008D0496049F04AC07AC07AC07A804B10473
:10054000BA04AC07C704D404E104AC07AC07AC0799
:10055000EE04FB040805150522052F053C05AC0734
:10056000AC07AC0749055605630570057D05860592
:100570008F05AC07AC07AC07B305C005CD05AC07CC
:10058000DA05E705F405AC07AC07AC0701060A0677
:100590001306AC07AC07AC07AC07AC07AC07AC075D
:1005A0001C0625062E06AC07370640064906AC0792
:1005B000AC07AC0752065F066C06AC0779068606E8
:1005C0009306AC07AC07AC07A006AD06BA06AC07AD
:1005D000C706D006D906AC07AC07AC07E206EB06A7
:1005E000F406AC07AC07AC07AC07AC07AC07AC072C
:1005F000AC07AC07AC07AC079805A105AA05AC078A
:10060000AC07AC07AC07AC07AC07AC07AC07AC0752
:10061000AC07AC07AC07AC07AC07AC07AC07AC0742
:10062000AC07AC07AC07AC07AC07AC07AC07AC0732
:10063000AC07AC07AC07AC07AC07AC07AC07AC0722
:10064000AC07AC07AC07AC07AC07AC07AC07AC0712
:10065000AC07AC07AC07AC07AC07AC07AC07AC0702
:10066000AC07AC07AC07AC07FD0606071307AC07E1
:10067000200729073607AC07AC07AC0743074C0730
:100680005907AC0766076F077C07AC07AC07AC07D8
:10069000890792079F0781E090E0A0E0B0E0809397
:1006A000880990938909A0938A09B0938B090895CA
:1006B00010928C0910928D0910928E0910928F0958
:1006C0000895109290091092910910929209109237
:1006D0009309089581E090E0A0E0B0E08093940950
:1006E00090939509A0939609B09397090895109255
:1006F00098091092990910929A0910929B090895ED
:1007000083E090E0A0E0B0E080939C0990939D0985
:10071000A0939E09B0939F09089588E790E0A0E018
:10072000B0E08093B4099093B509A093B609B09353
:10073000B709089588E790E0A0E0B0E08093B80999
:100740009093B909A093BA09B093BB09089588E7BB
:1007500090E0A0E0B0E08093BC099093BD09A09325
:10076000BE09B093BF0908951092C4091092C5093B
:100770001092C6091092C70908951092C8091092E4
:10078000C9091092CA091092CB09089581E090E03E
:10079000A0E0B0E08093CC099093CD09A093CE095E
:1007A000B093CF0908951092D0091092D1091092F8
:1007B000D2091092D30908951092D4091092D50944
:1007C0001092D6091092D70908951092D809109264
:1007D000D9091092DA091092DB0908951092DC0908
:1007E0001092DD091092DE091092DF09089510922F
:1007F000E0091092E1091092E2091092E3090895CC
:100800001092E4091092E5091092E6091092E709A6
:1008100008951092EC091092ED091092EE091092D1
:10082000EF0908951092F0091092F1091092F2095F
:100830001092F30908951092F4091092F50910929C
:10084000F6091092F70908951092040A1092050A09
:100850001092060A1092070A08951092080A109240
:10086000090A10920A0A10920B0A089510920C0AB3
:1008700010920D0A10920E0A10920F0A089581E04C
:1008800090E0A0E0B0E08093180A9093190AA0933A
:100890001A0AB0931B0A089581E090E0A0E0B0E04E
:1008A00080931C0A90931D0AA0931E0AB0931F0AFE
:1008B00008958CE291E0A0E0B0E080932C0A909340
:1008C0002D0AA0932E0AB0932F0A08958CE291E08E
:1008D000A0E0B0E08093300A9093310AA093320AEE
:1008E000B093330A08958CE291E0A0E0B0E08093E9
:1008F000340A9093350AA093360AB093370A0895C4
:100900008CE291E0A0E0B0E08093380A9093390A3D
:10091000A0933A0AB0933B0A089510923C0A1092B1
:100920003D0A10923E0A10923F0A08951092400A22
:100930001092410A1092420A1092430A08951092AE
:10094000440A1092450A1092460A1092470A0895E6
:100950001092540A1092550A1092560A1092570A91
:1009600008951092580A1092590A10925A0A109239
:100970005B0A089581E090E0A0E0B0E080935C0A1B
:1009800090935D0AA0935E0AB0935F0A089585E094
:1009900090E0A0E0B0E08093640A9093650AA09391
:1009A000660AB093670A089585E090E0A0E0B0E0A1
:1009B0008093680A9093690AA0936A0AB0936B0ABD
:1009C000089589E190E0A0E0B0E080936C0A9093F4
:1009D0006D0AA0936E0AB0936F0A089582E390E0C7
:1009E000A0E0B0E080937C0A90937D0AA0937E0AF9
:1009F000B0937F0A089582E390E0A0E0B0E0809396
:100A0000800A9093810AA093820AB093830A089582
:100A100082E390E0A0E0B0E08093840A9093850A9E
:100A2000A093860AB093870A089582E390E0A0E03D
:100A3000B0E08093880A9093890AA0938A0AB093C1
:100A40008B0A089582E390E0A0E0B0E080938C0AE6
:100A500090938D0AA0938E0AB0938F0A089582E333
:100A600090E0A0E0B0E08093900A9093910AA09368
:100A7000920AB093930A089582E390E0A0E0B0E078
:100A80008093940A9093950AA093960AB093970A3C
:100A9000089580E991E0A0E0B0E08093A40A9093EB
:100AA000A50AA093A60AB093A70A089580E991E049
:100AB000A0E0B0E08093A80A9093A90AA093AA0AA4
:100AC000B093AB0A089580E991E0A0E0B0E0809394
:100AD000AC0A9093AD0AA093AE0AB093AF0A089502
:100AE00080E991E0A0E0B0E08093B00A9093B10A71
:100AF000A093B20AB093B30A08951092B40A109268
:100B0000B50A1092B60A1092B70A08951092B80A60
:100B10001092B90A1092BA0A1092BB0A0895109264
:100B2000BC0A1092BD0A1092BE0A1092BF0A089524
:100B30001092CC0B1092CD0B1092CE0B1092CF0BCB
:100B400008951092D00B1092D10B1092D20B1092EC
:100B5000D30B08951092D40B1092D50B1092D60B94
:100B60001092D70B089588E592E0A0E0B0E0809362
:100B7000CC0A9093CD0AA093CE0AB093CF0A0895E1
:100B800088E592E0A0E0B0E08093D00A9093D10A8B
:100B9000A093D20AB093D30A089588E592E0A0E02A
:100BA000B0E08093D40A9093D50AA093D60AB0936C
:100BB000D70A08958EE190E0A0E0B0E08093DC0ACF
:100BC0009093DD0AA093DE0AB093DF0A08958EE1C8
:100BD00090E0A0E0B0E08093E00A9093E10AA09357
:100BE000E20AB093E30A08958EE190E0A0E0B0E05D
:100BF0008093E40A9093E50AA093E60AB093E70A8B
:100C000008951092F40A1092F50A1092F60A1092C2
:100C1000F70A08951092F80A1092F90A1092FA0A47
:100C20001092FB0A08951092FC0A1092FD0A10928D
:100C3000FE0A1092FF0A089510921C0B10921D0BD1
:100C400010921E0B10921F0B08951092200B109201
:100C5000210B1092220B1092230B08951092240B5B
:100C60001092250B1092260B1092270B08951092CC
:100C70002C0B10922D0B10922E0B10922F0B08950F
:100C80001092300B1092310B1092320B1092330BEA
:100C900008951092340B1092350B1092360B10926F
:100CA000370B089585E090E0A0E0B0E08093440B1E
:100CB0009093450BA093460BB093470B089585E0A6
:100CC00090E0A0E0B0E08093480B9093490BA09394
:100CD0004A0BB0934B0B089585E090E0A0E0B0E0A4
:100CE00080934C0B90934D0BA0934E0BB0934F0BF6
:100CF000089584EB95E1A0E0B0E08093540B9093CD
:100D0000550BA093560BB093570B089584EB95E1C8
:100D1000A0E0B0E08093580B9093590BA0935A0B2E
:100D2000B0935B0B089584EB95E1A0E0B0E0809375
:100D30005C0B90935D0BA0935E0BB0935F0B0895DB
:100D400085E090E0A0E0B0E080936C0B90936D0B99
:100D5000A0936E0BB0936F0B089585E090E0A0E038
:100D6000B0E08093700B9093710BA093720BB093D3
:100D7000730B089585E090E0A0E0B0E08093740BE1
:100D80009093750BA093760BB093770B0895109208
:100D90007C0B10927D0B10927E0B10927F0B0895AE
:100DA0001092800B1092810B1092820B1092830B89
:100DB00008951092840B1092850B1092860B10925E
:100DC000870B08951092940B1092950B1092960B2E
:100DD0001092970B08951092980B1092990B109205
:100DE0009A0B10929B0B089510929C0B10929D0BE6
:100DF00010929E0B10929F0B08951092AC0C1092C3
:100E0000AD0C1092AE0C1092AF0C08958CE390E0F4
:100E1000A0E0B0E08093B00C9093B10CA093B20C22
:100E2000B093B30C089581E090E0A0E0B0E080932F
:100E3000B40C9093B50CA093B60CB093B70C089576
:100E40001092BC0C1092BD0C1092BE0C1092BF0CF4
:100E500008958CE390E0A0E0B0E08093C00C909304
:100E6000C10CA093C20CB093C30C089581E090E034
:100E7000A0E0B0E08093C40C9093C50CA093C60C86
:100E8000B093C70C08951092D40C1092D50C109208
:100E9000D60C1092D70C08958CE390E0A0E0B0E05F
:100EA0008093D80C9093D90CA093DA0CB093DB0C00
:100EB000089581E090E0A0E0B0E08093DC0C909396
:100EC000DD0CA093DE0CB093DF0C08951092E40CBF
:100ED0001092E50C1092E60C1092E70C08958CE34A
:100EE00090E0A0E0B0E08093E80C9093E90CA09330
:100EF000EA0CB093EB0C089581E090E0A0E0B0E044
:100F00008093EC0C9093ED0CA093EE0CB093EF0C4F
:100F100008951092FC0C1092FD0C1092FE0C109291
:100F2000FF0C08958CE390E0A0E0B0E08093000D0A
:100F30009093010DA093020DB093030D089581E0ED
:100F400090E0A0E0B0E08093040D9093050DA09395
:100F5000060DB093070D0895220F331F220F331F84
:100F6000F901E857F64F1082118212821382089518
:100F70008CBD9DBD08958CB58C7F8CBD8DB58E7F4D
:100F80008DBD0895AF92BF92CF92DF92EF92FF9204
:100F90000F931F93CF93DF936C017B018B01040FA1
:100FA000151FEB015E01AE18BF08C017D10759F03D
:100FB0006991D601ED91FC910190F081E02DC6017F
:100FC0001995892B79F7C501DF91CF911F910F9169
:100FD000FF90EF90DF90CF90BF90AF900895FC010D
:100FE000538D448D252F30E0842F90E0821B930B8E
:100FF000541710F0CF96089501970895FC01918D34
:10100000828D981761F0A28DAE0FBF2FB11D5D9636
:101010008C91928D9F5F9F73928F90E008958FEFD8
:101020009FEF0895FC01918D828D981731F0828D8C
:10103000E80FF11D858D90E008958FEF9FEF0895E3
:10104000FC01918D228D892F90E0805C9F4F821B47
:1010500091098F73992708958CE09DE0F1DF21E0DD
:10106000892B09F420E0822F0895FC01A48DA80F9C
:10107000B92FB11DA35ABF4F2C91848D90E00196DA
:101080008F739927848FA689B7892C93A089B189FA
:101090008C91837080648C93938D848D981306C09B
:1010A0000288F389E02D80818F7D80830895EF92FF
:1010B000FF920F931F93CF93DF93EC0181E0888F12
:1010C0009B8D8C8D98131AC0E889F989808185FFE2
:1010D00015C09FB7F894EE89FF896083E889F98984
:1010E00080818370806480839FBF81E090E0DF9186
:1010F000CF911F910F91FF90EF900895F62E0B8DD9
:1011000010E00F5F1F4F0F731127E02E8C8D8E1193
:101110000BC00FB607FCFACFE889F989808185FFFB
:10112000F5CFCE01A2DFF2CFEB8DEC0FFD2FF11D3D
:10113000E35AFF4FF0829FB7F8940B8FEA89FB893F
:1011400080818062D0CF682F8CE09DE0B0CFCF93BC
:10115000DF93EC01888D8823B1F0AA89BB89E889E7
:10116000F9898C9185FD03C0808186FD0CC00FB686
:1011700007FCF7CF8C9185FFF2CF808185FFEDCF03
:10118000CE0173DFEACFDF91CF91089580E090E048
:10119000892B21F061DF81110E94000080E090E046
:1011A000892B49F080E090E0892B29F00E94000013
:1011B00081110E94000080E090E0892B49F080E0DE
:1011C00090E0892B29F00E94000081110E9400000C
:1011D00080E090E0892B49F080E090E0892B29F0B5
:1011E0000E94000081110C9400000895815082310A
:1011F00008F05AC0E82FF0E08827EE5FF64F8F4FD7
:101200000C94AB622209260914091A091E09540913
:1012100029092F09330939093D09410947094B09B2
:1012200054094F0955095909809180008F7780939F
:1012300080000895809180008F7DF9CF809180009B
:10124000877FF5CF84B58F7784BD089584B58F7D72
:10125000FBCF8091B0008F778093B000089580918C
:10126000B0008F7DF9CF809190008F7780939000B0
:101270000895809190008F7DF9CF80919000877FB5
:10128000F5CF8091A0008F778093A0000895809182
:10129000A0008F7DF9CF8091A000877FF5CF80914E
:1012A00020018F77809320010895809120018F7D08
:1012B000F9CF80912001877FF5CFCF93DF93282F3F
:1012C00030E0F901ED50FD4F8491F901E355FD4FF8
:1012D000D491F901E959FD4FC491CC2399F08111C2
:1012E00085DFEC2FF0E0EE0FFF1FE35BFD4FA591D4
:1012F000B491EC91ED2381E090E009F480E0DF917E
:10130000CF91089580E090E0FACF1F93CF93DF93C1
:10131000282F30E0F901ED50FD4F8491F901E3559C
:10132000FD4FD491F901E959FD4FC491CC23A1F0AF
:10133000162F81115BDFEC2FF0E0EE0FFF1FED5C4D
:10134000FD4FA591B4918FB7F894EC91111108C09D
:10135000D095DE23DC938FBFDF91CF911F9108954D
:10136000DE2BF8CFCF93DF9390E0FC01E355FD4FE8
:10137000249189599D4FFC0184918823C9F090E004
:10138000880F991FFC01E75EFD4FA591B491FC0108
:10139000ED5CFD4FC591D49161110DC09FB7F894DC
:1013A0008C91209582238C938881282328839FBF4A
:1013B000DF91CF910895623051F49FB7F8943C913A
:1013C000822F809583238C93E8812E2BEFCF8FB7CC
:1013D000F894EC912E2B2C938FBFEACF823091059D
:1013E00038F0880F991F880F991F05970197F1F71B
:1013F00008953FB7F8948091790890917A08A09168
:101400007B08B0917C0826B5A89B05C02F3F19F03A
:101410000196A11DB11D3FBFBA2FA92F982F882774
:10142000BC01CD01620F711D811D911D42E0660F4F
:10143000771F881F991F4A95D1F708958F929F9221
:10144000AF92BF92CF92DF92EF92FF926B017C013D
:10145000D0DF4B015C01C114D104E104F104B1F00F
:10146000C8DF681979098A099B09683E73408105BC
:10147000910588F321E0C21AD108E108F10888EE4D
:10148000880E83E0981EA11CB11CE5CFFF90EF9061
:10149000DF90CF90BF90AF909F908F9008952FB71F
:1014A000F894609175087091760880917708909112
:1014B00078082FBF0895CF92DF92EF92FF92CF93DB
:1014C000DF93EC01603282E07807CCF5653B710573
:1014D00014F064EB70E0898128E830E0281B3109C2
:1014E00087FD3395220F331F220F331F6901330FFE
:1014F000EE08FF088A8128E532E0281B310987FDC4
:101500003395220F331F220F331F032E000C440B81
:10151000550B2C193D094E095F09DB0177FF02C00D
:10152000B0E0A0E00E94406124EB30E040E050E0F9
:101530000E941A61C20ED31EE41EF51EB601E88198
:10154000E03370F5298188E890E0821B910927FD3E
:101550009395880F991F880F991F681779077CF05A
:101560002A8188E592E0821B910927FD9395880FD7
:10157000991F880F991F681779070CF4CB01029700
:10158000880F991F4FB7F8942E2F30E0F901EE0F16
:10159000FF1FE20FF31FE755F24F928381834FBF86
:1015A000DF91CF91FF90EF90DF90CF9008951F9340
:1015B000CF93DF93EC01162F8881803308F04DC064
:1015C00061E0812FCFDE8881282F30E0F901EE0F16
:1015D000FF1FE20FF31FE755F24F1F736081607C1E
:1015E000612B608319821A822CE0622F0E948C6228
:1015F000829FB001112430E020E0AB01420F531F65
:10160000FA01EE0FFF1FE40FF51FE755F24F90812F
:1016100096FD16C02F5F3F4F2C30310571F781309A
:1016200009F51092800082E080938100109285007D
:1016300010928400B19A80916F00826080936F0055
:10164000E8818E2F90E0FC01EE0FFF1FE80FF91FDD
:10165000E755F24F8081806480838881DF91CF914C
:101660001F910895823061F4109290008093910050
:10167000109295001092940088BB80937100E0CF87
:10168000833069F41092A00082E08093A100109250
:10169000A5001092A40089BB80937200D1CF811164
:1016A000CFCF1092200182E080932101109225017A
:1016B000109224018ABB80937300C2CFAF92BF9275
:1016C000CF92DF92EF92FF920F931F93CF93DF930E
:1016D0006B017A01EC01C059D74F28813CE0389F5B
:1016E0008001399F100D1124A090390EB12C27FFD5
:1016F0001FC0FB011182108288818F5F88838881DF
:101700009801280F311D87FD3A95F6012A153B05F2
:101710001CF488818C30BCF18081918104968034E6
:101720009C4908F471C0F6018081918104966EC0D5
:1017300088819801280F311D87FD3A952A153B05B0
:10174000DCF68881A801480F511D87FD5A95FA01E2
:10175000EE0FFF1FE40FF51FE755F24F808186FF64
:10176000CBCF8881F801E80FF11D87FDFA95CF01F5
:10177000EE0FFF1FE80FF91FE755F24F808160E081
:101780008F73C3DDB9CF808191812881A801420F79
:10179000511D27FD5A959A01FA01EE0FFF1FE20F26
:1017A000F31FE755F24F21813281820F931FF7011A
:1017B0009183808388819801280F311D87FD3A9598
:1017C000F901EE0FFF1FE20FF31FE755F24F808183
:1017D00086FF21C08881080F111D87FD1A95F80129
:1017E000EE0FFF1FE00FF11FE755F24F808161E020
:1017F0008F73DF91CF911F910F91FF90EF90DF904A
:10180000CF90BF90AF9081CD80E49CE9F7019183A8
:1018100080838FEF8883DF91CF911F910F91FF908D
:10182000EF90DF90CF90BF90AF900895CF93CFB758
:10183000F89480916F08811123C0ECE9F2E0849163
:10184000E2EEF2E09491E82FF0E0EE0FFF1FE75E8A
:10185000FD4FA591B491EC91E92319F461E085E382
:1018600054DD61E085E37EDD8CB580618CBD8CB597
:1018700080648CBD61E084E375DD61E083E372DD4B
:1018800080916F088F5F80936F08CFBFCF910895CD
:101890008CB58C608CBD8CB58F7D8CBD6CDBC6CF60
:1018A000089508950895EBE0F1E08081877F8083BB
:1018B0000895EBE0F1E080818860808308958E9840
:1018C00008958E9A089514980895149A0895889802
:1018D0000895889A089560E0FC01878D16CD60E038
:1018E000FC01818D12CD61E0FC01878D0ECD61E0A0
:1018F000FC01818D0ACDCF93DF93EC01FC01EF5603
:10190000FF4F1082379781E0808360E0898DFDDC96
:101910008BA19CA1892B29F060E08F8DDF91CF9165
:10192000F4CCDF91CF910895CF93DF93EC018FA199
:10193000C4DC2AA52817190621F48BA5DF91CF91C5
:10194000089580E0FBCFCF93DF93EC018DA1B5DC50
:101950002AA52817190621F48BA5DF91CF910895A8
:1019600080E0FBCFCF93DF93EC018B8DFE01E35B37
:10197000FF4F908161E0911101C060E0C6DC89A158
:10198000FE01E25BFF4F9081992331F0C15BDF4F95
:10199000988161E0911101C060E0DF91CF91B5CCF9
:1019A000CF93DF93EC018B8DFE01E35BFF4F9081C2
:1019B00060E0911101C061E0A8DC89A1FE01E25B59
:1019C000FF4F9081992331F0C15BDF4F988160E038
:1019D000911101C061E0DF91CF9197CCCF93DF935C
:1019E000EC0161E08D8D91DCFE01E25BFF4F8081B7
:1019F000882319F061E08BA188DCC157DF4F188282
:101A0000DF91CF910895CF93DF93EC0160E08D8D4E
:101A10007CDCFE01E25BFF4F8081882319F060E0EF
:101A20008BA173DCC157DF4F81E08883DF91CF91B9
:101A300008958F929F92AF92BF92CF92DF92EF92D2
:101A4000FF920F931F93CF93FC01E65AFF4F408301
:101A5000518362837383349640835183628373839B
:101A600034960083118322833383DC01AA59BF4F4C
:101A7000EC925297CC91CC2351F018974C91411194
:101A800052C037FF56C01082118212821382DC01CD
:101A9000AB5ABF4F4D915D916D917C911397141688
:101AA00015061606170634F514963C91332311F1EA
:101AB000C080D180E280F38046015701F7FE07C065
:101AC0008824992454018C189D08AE08BF08481535
:101AD00059056A057B0574F4F7FE07C0709560959B
:101AE000509541955F4F6F4F7F4F40835183628385
:101AF0007383C32FFC01ED58FF4F108211821282B5
:101B0000138289579F4F31E0FC0130838C2FCF9196
:101B10001F910F91FF90EF90DF90CF90BF90AF900B
:101B20009F908F90089510161106120613060CF45C
:101B3000AACFC0E0ACCF0F931F93CF93DF93EC01FC
:101B4000062F89A581110DC0CE01FDDE182FCE0113
:101B5000EBDE0111182F812FDF91CF911F910F9193
:101B60000895CE01E1DE182FCE01EDDEF2CFCF9346
:101B7000DF93EC01FC01ED57FF4F80819181A28141
:101B8000B3810196A11DB11D80839183A283B3838C
:101B90003E9681E08083AE01425A5F4FFA01808118
:101BA0009181A281B3819E0128573F4FF901208185
:101BB000222309F440C00196A11DB11DFA018083C2
:101BC0009183A283B383FE01EC56FF4F20813181C4
:101BD000C901959587958C0F9D1F32970190F081D3
:101BE000E02D20FF08C0DC012D913C91E20FF31F96
:101BF0000190F081E02D19958BA19CA1892BF9F022
:101C0000FE01E856FF4F20813181C90195958795E6
:101C10008C0F9D1FCA56DF4FE881F98120FF08C055
:101C2000DC012D913C91E20FF31F0190F081E02D3A
:101C3000DF91CF9119940197A109B109BFCFDF912D
:101C4000CF9108958F929F92AF92BF92CF92DF92E1
:101C5000EF92FF920F931F93CF93DF93EC01FC0160
:101C6000ED58FF4F60817181828193810E94EC5F0A
:101C70006B017C01FE01E05BFF4F6081718182811D
:101C800093810E94EE5F9B01AC0160E074E284E707
:101C900099E40E94DC614B015C01FE01E158FF4FB9
:101CA00060817181828193810E94EC5F9B01AC0114
:101CB000C501B4010E94DC614B015C018E01095831
:101CC0001F4F20E030E040E05FE30E944D60A7013D
:101CD00096010E9478610E944962F80160837183D5
:101CE00082839383C558DF4FA5019401C701B601D4
:101CF0000E9478610E944962688379838A839B830A
:101D0000DF91CF911F910F91FF90EF90DF90CF90D7
:101D1000BF90AF909F908F9008950F931F93CF9394
:101D2000DF93FC01EF56FF4F20812223B9F07E970D
:101D300000811181228133813896408151816281F5
:101D40007381041715072607370710F1EC01D3DD5F
:101D5000CE01DF91CF911F910F9174CFFC01E95714
:101D6000FF4F20812223A1F07497008111812281ED
:101D70003381349640815181628173810417150744
:101D80002607370728F0DF91CF911F910F91EFCEF3
:101D9000DF91CF911F910F910895FC01E957FF4FFB
:101DA0002081222361F0749780819181A281B38187
:101DB0000196A11DB11D80839183A283B3830895F1
:101DC0000F931F93FC01EA59FF4F2081211112C08C
:101DD000389700811181228133813496408151816D
:101DE0006281738104171507260737074CF41F918A
:101DF0000F91D6CDFC01E45BFF4F20812111F7CF7D
:101E00001F910F91AFCDCF93DF93FC01DC011696AC
:101E10008AE0ED0119928A95E9F781E0808B818B48
:101E2000138A128A148A158A168A178A108E8CE2EF
:101E300091E0A0E0B0E084A795A7A6A7B7A780ABE4
:101E400091ABA2ABB3AB42E350E060E070E044ABD7
:101E500055AB66AB77AB40AF51AF62AF73AF44AF3A
:101E600055AF66AF77AFEF01C05CDF4F88839983D2
:101E7000AA83BB83249688839983AA83BB83DF01CB
:101E8000A85BBF4F48E750E060E070E04D935D9382
:101E90006D937C93139714961C9211961C92119635
:101EA0001C9211961C92119644E650E060E070E09E
:101EB0004D935D936D937C93139714961C9211969A
:101EC0001D921D921D921C92139714961C921196AE
:101ED0001D921D921D921C92139714961D921D9295
:101EE0001D921C92139714961D921D921D921C9286
:101EF000139714961C9211961D921D921D921C927E
:101F0000139714961D921D921D921C92139714966E
:101F10001D921D921D921C92139714961D921D9254
:101F20001D921C92139714961D921D921D921C9245
:101F3000139714961D921D921D921C92139714963E
:101F40001D921D921D921C92139714961D921D9224
:101F50001D921C92139714961C9211961C92119626
:101F60001C9211961C9211961C9211961C9211961D
:101F70001C9211961C9211961C9211961C9211960D
:101F80001C92128E118E148E138E168E158E10A228
:101F9000178E12A211A214A213A216A215A210A6A5
:101FA00017A2119687E79CE011969C938E93129648
:101FB00011961C921E92129683E79CE011969C93B8
:101FC0008E93129611961C921E9212968FE69CE0AA
:101FD00011969C938E93129611961C921E921296B5
:101FE0008BE69CE08D939C93E056FF4F118210820C
:101FF000DF91CF91089508950895089508958FEF82
:102000009FEF08950895089508950895CF93DF935D
:10201000D0E0C0E0CE010E94D101882319F0CE01AA
:102020000E945F022196C13ED105A1F7DF91CF91B9
:10203000089508950F931F93CF93DF938B01EA01C7
:10204000AB01415051094433510508F0E9C0223039
:10205000310508F0E5C048E3429FF001439FF00DD1
:102060001124E80FF91FE60FF71F81E080836C2F22
:10207000232B09F4D2C061E0802F74D9209749F452
:1020800060E0802F42D9CE01DF91CF911F910F9157
:102090000895CF3FD10511F461E0BFC0F801ED50C4
:1020A000FD4FE491E150E23108F0B2C0F0E0882742
:1020B000E35AFF4E8F4F0C94AB626F1076107B107B
:1020C00085108F1008119910A110A910B310BD1020
:1020D000C710D610E0100811EA10F410FE1084B5F5
:1020E000806884BDC7BDD0E0C0E0CDCF84B580623C
:1020F00084BDC8BDF8CF8091800080688093800047
:10210000D0938900C0938800EECF809180008062D8
:1021100080938000D0938B00C0938A00E4CF80919D
:102120008000886080938000D0938D00C0938C00E5
:10213000DACF8091B00080688093B000C093B30084
:10214000D2CF8091B00080628093B000C093B40081
:10215000CACF80919000806880939000D0939900BE
:10216000C0939800C0CF80919000806280939000CF
:10217000D0939B00C0939A00B6CF80919000886066
:1021800080939000D0939D00C0939C00ACCF809131
:10219000A00080688093A0008091A0008F7B809336
:1021A000A000D093A900C093A8009DCF8091A0006B
:1021B00080628093A000D093AB00C093AA0093CF1D
:1021C0008091A00088608093A000D093AD00C09360
:1021D000AC0089CF80912001806880932001D0934A
:1021E0002901C09328017FCF8091200180628093D4
:1021F0002001D0932B01C0932A0175CF809120013B
:10220000886080932001D0932D01C0932C016BCF67
:1022100060E0C038D1050CF03FCF802F76D863CF77
:10222000C1E0D0E030CF0895CF93DF93EC01FC0103
:10223000EC55FC4F1082EE58F1098081811103C0EA
:10224000CE014096CBDBFE01E95EFC4F808181111F
:1022500004C0CE018E549F4FC1DBFE01E85EFC4FEF
:102260008081811104C0CE018C5A9E4FB7DB64E699
:1022700070E080E090E0DF91CF91E0C8089508958C
:102280000895089508958FB7F894809187098FBFB6
:1022900008954F925F926F927F928F929F92AF922A
:1022A000BF92CF92DF92EF92FF92CF93DF93EC0138
:1022B0006C897D898E899F8988889988AA88BB883E
:1022C000CE8CDF8C0D2C000CEE08FF08603127E26D
:1022D00072078105910529F01616170618061906CA
:1022E000ACF0A7019601C501B4010E947D62DF91A7
:1022F000CF91FF90EF90DF90CF90BF90AF909F90E5
:102300008F907F906F905F904F9008950E94EE5F46
:1023100020E030E44CE157E40E94DC612B013C01F9
:10232000488E598E6A8E7B8EC501B4010E94EE5F85
:10233000A30192010E944D604B015C01C701B601EF
:102340000E94EE5F9B01AC01C501B4010E944D608B
:102350000E944462CCCF2F923F924F925F926F9235
:102360007F928F929F92AF92BF92CF92DF92EF9225
:10237000FF920F931F93CF93DF9300D01F92CDB79F
:10238000DEB79C838B834B015A011901FA82E982E3
:10239000FA01408051806280738020E030E0A90122
:1023A000C301B2010E947562181674F4F60120810F
:1023B000318142815381C301B2010E947761F501ED
:1023C0006083718382839383F801408051806280AF
:1023D0007380F401A68DB78D208931894289538994
:1023E0000E9440616B017C01EB81FC81E857FF4F4B
:1023F0008081882309F440C0C414D504E604F7049E
:102400000CF440C0F801C082D182E282F3828B8159
:102410009C81825A9F4F9C838B83FC018081918198
:10242000A281B381F10180839183A283B383E98187
:10243000FA8180819181892B41F0C4012ADFEB81EF
:10244000FC8160837183828393830F900F900F9040
:102450000F90DF91CF911F910F91FF90EF90DF9040
:10246000CF90BF90AF909F908F907F906F905F9034
:102470004F903F902F9008954C145D046E047F049C
:102480000CF0C0CFF501408051806280738020E065
:1024900030E04AEF56E4C301B2010E94E85F87FFD3
:1024A000B1CF20E030E040E85FE3C301B2010E9419
:1024B0007861F5016083718382839383A3CFFC01EC
:1024C0001182108213821282158214821782168260
:1024D0001086118612861386148615861686178630
:1024E000108A118A128A138A108E118E128E138E00
:1024F000158E148E178E168E10A211A212A213A280
:1025000014A215A216A217A210A611A612A613A60F
:1025100014A615A681E090E097A786A780E197E230
:10252000A0E0B0E0848B958BA68BB78B08958EBD11
:1025300000000DB407FEFDCF8EB50895DF92EF9237
:10254000FF920F931F93CF93DF93EC01D62E122FA0
:10255000032FF42EE52E60E088850E9485098D2DDD
:102560008068E5DF89878E2DE2DF8F2DE0DF802F09
:10257000DEDF812FDCDF61E088850E9485098985A7
:10258000DF91CF911F910F91FF90EF90DF90089511
:102590003F924F925F926F927F928F929F92AF92F3
:1025A000BF92CF92DF92EF92FF920F931F93CF9340
:1025B000DF9300D000D0CDB7DEB79E838D83362E5B
:1025C00049015A012701380163D960E0ED81FE819C
:1025D00080850E948509832DAADFED81FE81818798
:1025E00080E0A5DF80E0A3DF80E0A1DF80E09FDF67
:1025F00061E0ED81FE8180850E94850960E0ED81CA
:10260000FE8180850E948509832D91DFED81FE8109
:10261000818780E08CDFF82E80E089DF082F80E062
:1026200086DF182F80E083DF202F30E050E040E08D
:102630003F2969017A01FE2CED2CDC2CCC24C12A27
:10264000FE2CED2CDC2CCC24C82A61E0ED81FE812F
:1026500080850E9485098C249D24AE24BF244820B7
:1026600059206A207B20A30192012C253D254E256F
:102670005F25632D8D819E8161DFED81FE818185E6
:1026800026960FB6F894DEBF0FBECDBFDF91CF9177
:102690001F910F91FF90EF90DF90CF90BF90AF9080
:1026A0009F908F907F906F905F904F903F90089594
:1026B000CF93DF93EC0161E088850E94B20961E06D
:1026C00088850E948509E4D860E088850E94850994
:1026D00080E02DDF898780E02ADF80E028DF80E04E
:1026E00026DF80E024DF61E08885DF91CF910C94C4
:1026F0008509CF93DF93EC018C818835A9F588E8B3
:1027000093E19983888388EB93E19B838A8387E7AE
:102710009CE0FE01EE56FF4F91838083329611823A
:10272000108283E79CE032969183808332961182F7
:1027300010828FE69CE032969183808332961182DC
:1027400010828BE69CE032969183808332961182D0
:10275000108288819981ACDF8C81883589F48A81E7
:102760009B81DF91CF91A4CF893529F488E993E14A
:1027700099838883CCCF8A3551F688EA93E1F8CFE4
:10278000DF91CF9108958F929F92AF92BF92CF9297
:10279000DF92EF92FF920F931F93CF93DF93EC01A1
:1027A0008B015A01690184DF85E090E0A0E0B0E090
:1027B00008301105C1F1B4F487E090E0A0E0B0E08A
:1027C0000230110581F186E090E0A0E0B0E0043035
:1027D000110549F101301105A1F488E090E0A0E075
:1027E000B0E021C083E090E0A0E0B0E0003211054D
:1027F000D1F05CF484E090E0A0E0B0E0003111059D
:1028000091F080E090E0DC010EC082E090E0A0E07A
:10281000B0E00034110539F081E090E0A0E0B0E0D4
:102820000038110571F7582F442733272227E12C50
:10283000F12C00E01FE06CE6CE01AADEB50190E0CD
:1028400080E00E94EC5F25ED34E045E352E40E9415
:102850004D6020E030E04AE754E40E94DC6128EB60
:102860003EE145E05EE30E944D604B015C0126E6DF
:1028700036E646EA5EE30E94DC6120E030E040E8B4
:102880005FE30E9477610E944962603180F42CEE20
:1028900031E548E35EE3C501B4010E94DC6120E05C
:1028A00030E040E85FE30E9477610E944962862F32
:1028B0008F71262F30E050E040E0542F432F322F0D
:1028C000222722273F7144275527282B60E1CE017C
:1028D00035DEE12CF12C8701E39421E030E040E08B
:1028E00050E060E0CE0154DE1FE0E12EF12C00E06C
:1028F00010E023E030E040E050E06CE6CE0148DE3E
:1029000010E7E12EF12C00E010E020E430E040E0A0
:1029100050E06CE6CE013CDE10E8E12EF12C00E048
:1029200010E020E830E040E050E06CE6CE0130DE20
:10293000E12C10E8F12E01E010E020E030E041E071
:1029400050E06CE6CE0124DEE12C10E4F12E00E034
:1029500010E020E030E0A9016CE6CE0119DE1FE0B6
:10296000E12EF12C00E010E021E030E040E050E00A
:102970006CE6CE010DDEE12CF12C8701F39420E012
:1029800032E040E050E06CE6CE0102DEE12C10E2E5
:10299000F12E00E010E020E030E240E050E06CE694
:1029A000CE01F6DD2FEF3FEFA90163E1CE01C6DDD9
:1029B0002FEF3FEF4FE050E064E1CE01BFDD20E1BB
:1029C00037E240E050E065E1CE01B8DDE12CF12CCA
:1029D00008E010E020E030E048E050E06CE6CE0196
:1029E000D7DDE12CF12C04E010E020E030E044E001
:1029F00050E06CE6CE01CCDD1FE0E12EF12C00E0D2
:102A000010E028E030E040E050E06CE6CE01C0DDB0
:102A1000E12CF12C8701EA9424E630E040E050E01C
:102A20006EE6CE01B5DDE12CF12C0FEF13E020E0D6
:102A300030E048E050E06EE6CE01AADD20E137E26A
:102A400040E050E065E1CE0179DD10E2E12EF12CAD
:102A500000E010E020E230E040E050E060E0CE0135
:102A600097DDE12C18E0F12E00E010E020E038E0E6
:102A700040E050E060E0CE018BDD0D2C000CEE0854
:102A8000FF08A60133272227E12CF12C01E010E0FA
:102A90006CE6CE017DDD64E670E080E090E0DF91E1
:102AA000CF911F910F91FF90EF90DF90CF90BF904B
:102AB000AF909F908F900C941E0ACF92DF92EF926E
:102AC000FF920F931F93CF93DF93EC017B016A0179
:102AD00089019A01AB01B8018881998154DE8C810A
:102AE000883571F49601A701B8018A819B81DF9135
:102AF000CF911F910F91FF90EF90DF90CF9043CE39
:102B0000DF91CF911F910F91FF90EF90DF90CF90C9
:102B10000895CF93DF93EC01188A198A1A8A1B8AC9
:102B200083E590E00E94B80760E086E10E94850995
:102B300083E090E00197F1F78EA58295807FF7DC26
:102B40008FE090E00197F1F761E086E1DF91CF91AE
:102B50000C948509CF92DF92EF92FF920F931F930F
:102B6000CF93DF938C0183E590E00E94B80760E08B
:102B700086E10E94850983E090E00197F1F7F80172
:102B800086A597A524E0880F991F2A95E1F78F6005
:102B9000CEDC8FE090E00197F1F7C4E0D0E0C12CEB
:102BA000D12C7601FE2CED2CDC2CCC2481E0BFDC7A
:102BB000C82A2197B9F761E086E10E948509F801EA
:102BC000C08AD18AE28AF38ADF91CF911F910F9157
:102BD000FF90EF90DF90CF900895CF93DF93EC01BB
:102BE00083B183B1E0E0F1E080818081CE018A5041
:102BF0009E4FB0DF83B183B180B180B1CE018A5DD9
:102C00009D4FA8DF83B183B180B180B1CE018A5AD4
:102C10009D4FDF91CF919ECF089508950895089517
:102C200080916B0890916C08892BE1F585E390E029
:102C30000E946F5AFC0181E090E0A0E0B0E0808348
:102C40009183A283B38384839583A683B78380878C
:102C50009187A287B3871586148616861786108AF1
:102C6000118A128A138A148A158A168A178A108E74
:102C7000118E138E128E12A213A214A215A217A2E5
:102C800016A210A611A612A613A614A615A616A67D
:102C900017A610AA11AA12AA13AA14AAF0936C08D4
:102CA000E0936B0880916B0890916C080895CF9326
:102CB000DF93B6DFEC0185E40E945D0921E0892BFA
:102CC00009F420E02C8FACDFEC0184E40E945D0964
:102CD00021E0892B09F420E02D8FA2DFEC0183E4B1
:102CE0000E945D0921E0892B09F420E02E8F98DFF6
:102CF000EC0182E40E945D0921E0892B09F420E0C7
:102D00002F8F8EDFEC0181E40E945D0921E0892B89
:102D100009F420E028A384DFEC0180E40E945D092F
:102D200021E0892B09F420E029A3DF91CF910895B8
:102D300077DFBDCF75DFFC0114AA90E080E0089535
:102D40008091670890916808892B41F481E090E0B8
:102D50000E946F5A90936808809367088091670873
:102D60009091680808950F931F93CF93DF938B0181
:102D7000E7DFF801C2A1D3A1868D978D853091053B
:102D800029F14CF40497B1F090E080E0DF91CF910D
:102D90001F910F9108958630910511F10B97A1F7BE
:102DA0006BE070E083E49EE00E94D70ABE0183E4FA
:102DB0009EE009C064E070E08AE39EE00E94D70ACA
:102DC000BE018AE39EE00E945B0ADECF65E070E010
:102DD0008DE39EE00E94D70ABE018DE39EE0F3CF13
:102DE00066E070E080E49EE00E94D70ABE0180E4C5
:102DF0009EE0E9CF8091650890916608892B91F457
:102E000080E790E00E946F5AFC0131969C012B5C98
:102E10003F4F119217AAE217F307D9F7909366086C
:102E20008093650880916508909166080895CF9316
:102E3000DF93EB01DFDF6AA98E8D0E94B20990E07B
:102E400080E0DF91CF9108954F925F926F927F92D1
:102E5000AF92BF92CF92DF92EF92FF920F931F93A8
:102E6000CF93DF93EB01C6DF8C01CAA8DBA84EA489
:102E70005FA468A879A8AEA0BFA0EE8CFF8C4AA181
:102E80005BA19601B701D6D8C301B2010E941E0A08
:102E90009601A501B701C801CDD890E080E0DF918F
:102EA000CF911F910F91FF90EF90DF90CF90BF9047
:102EB000AF907F906F905F904F900895CF93DF9386
:102EC000EB0198DF2AA93BA94AA15BA16E8D7F8DFA
:102ED000B1D890E080E0DF91CF910895FC0101909E
:102EE0000020E9F73197AF01481B590BBC018CE07A
:102EF0009DE00C94C2078F929F92AF92BF920F9366
:102F00001F93CF93DF93CDB7DEB7A1970FB6F89499
:102F1000DEBF0FBECDBF19A2423008F44AE08E01D9
:102F20000F5D1F4F842E912CB12CA12CA501940173
:102F30000E944661E62FB901CA01EA30ECF4E05D77
:102F4000D801EE938D01232B242B252B79F790E0CC
:102F500080E0109711F0CD01C1DFA1960FB6F89473
:102F6000DEBF0FBECDBFDF91CF911F910F91BF90FC
:102F7000AF909F908F900895E95CE2CFCF92DF925F
:102F8000EF92FF92CF93DF9397FF18C06B017C0104
:102F90008DE20E94A308EC0166277727CB016C190C
:102FA0007D098E099F094AE0A6DF8C0F9D1FDF91E6
:102FB000CF91FF90EF90DF90CF9008954AE0DF919E
:102FC000CF91FF90EF90DF90CF9095CFBC01990FFC
:102FD000880B990BD3CF82CF882319F08AEB97E027
:102FE000FACF83EB97E0FCCF2F923F924F925F9204
:102FF0006F927F928F929F92AF92BF92CF92DF9209
:10300000EF92FF920F931F93CF93DF9300D000D0E6
:103010001F921F92CDB7DEB71C01FC01E557FF4F91
:1030200010823196108283579F4FFC011082D1018C
:10303000A257BF4F1C923396108226013701441AC3
:10304000550A660A770A49825A826B827C8277FE29
:103050000CC07094609450944094411C511C611CAD
:10306000711C49825A826B827C824C155D056E050B
:103070007F0534F568017901C41AD50AE60AF70A12
:1030800049805A806B807C807594679457944794EC
:103090004D825E826F827886810100571F4F498082
:1030A0005A806B807C804C145D046E047F0488F42D
:1030B000F10164AC75AC81E08C93F801808327C08A
:1030C000B901A8014C195D096E097F096A017B01EC
:1030D000D7CF4D805E806F8078844C145D046E0481
:1030E0007F0408F4C6C04AA05BA06CA07DA04C146D
:1030F0005D046E047F040CF083C06E8C7F8C2FEF18
:10310000621A720A21E0FC012083F8012083F10198
:103110008489882309F45AC00E944F0AF101028968
:103120001389012E000C220B330B601B710B820BD9
:10313000930B693E73408105910508F447C00E94D6
:103140004F0AF101738B628B88E993E044DF8CE9CD
:1031500093E041DF60E070E0CB0110DF82EA93E0B2
:103160003ADFC701B6010ADF88EA93E034DF6981FC
:103170007A818B819C8102DF8EEA93E02CDF4AE02A
:103180006D817E818F819885B6DE85EB93E023DFAC
:103190006AA17BA18CA19DA1F1DE8BEB93E01BDFEB
:1031A000C501B401EBDE81EC93E015DF6E8D7F8D00
:1031B00088A199A1E3DE87EC93E00DDF8EE596E030
:1031C0000ADFC30103DF8EE298E005DFC301289622
:1031D0000FB6F894DEBF0FBECDBFDF91CF911F9128
:1031E0000F91FF90EF90DF90CF90BF90AF909F90A6
:1031F0008F907F906F905F904F903F902F900895A9
:10320000C701B6010E94EE5F2B013C016AA17BA1C0
:103210008CA19DA10E94EE5F9B01AC01C301B20194
:103220000E94DC612B013C016E8D7F8D88A199A1EC
:10323000681979098A099B090E94EE5F9B01AC011C
:10324000C301B2010E944D602B013C01C501B401D4
:103250000E94EE5F9B01AC01C301B2010E94786144
:103260000E9444623B0181E0F101E557FF4F8083FA
:1032700024CF89819A81AB81BC814AA05BA06CA0DC
:103280007DA084199509A609B709C816D906EA06CA
:10329000FB0654F46E8C7F8C22E0620E711C81E080
:1032A000F101E357FF4FE3CF69817A818B819C81E4
:1032B0006C197D098E099F090E94EE5F2B013C016C
:1032C0006AA17BA18CA19DA10E94EE5F9B01AC0134
:1032D000C301B2010E94DC612B013C016E8D7F8D28
:1032E00088A199A1681979098A099B090E94EE5F52
:1032F0009B01AC01C301B2010E944D602B013C0156
:10330000C501B4010E94EE5F9B01AC01C301B20193
:103310000E9478610E9444623B0181E0F101E45720
:10332000FF4FA5CF2F923F924F925F926F927F9265
:103330008F929F92AF92BF92CF92DF92EF92FF92C5
:103340000F931F93CF93DF93EC013C012EE5620EA8
:10335000711CD3014D915D916D917C918C010E5941
:103360001F4FF80180819181A281B3812E01F6E681
:103370004F0E511CF201F0809E0128573F4F59011A
:10338000B3961F01FF20D1F12C533109F90120819F
:10339000F501208321E0F1012083411551056105EC
:1033A000710579F42081FE01E158FF4F222309F4D1
:1033B0004DC088AC99ACAAACBBAC80829182A28291
:1033C000B3825E01FAE5AF0EB11CF501C080D18079
:1033D000E280F380C816D906EA06FB06E4F5481732
:1033E00059076A077B070CF441C0D2018C91811107
:1033F0003DC0FE01E957FF4F1082C1C021E04817D0
:1034000059076A077B070CF020E0F50120836A0169
:103410007B0177FF07C0CC24DD247601C41AD50ACE
:10342000E60AF70A4C015D01B7FF07C0882499241A
:103430005401881A990AAA0ABB0A21E0C814D904BF
:10344000EA04FB040CF0A7CF20E0A5CF8CA89DA830
:10345000AEA8BFA8B2CF8C159D05AE05BF052CF652
:1034600084179507A607B7070CF0BFCFFE01E957F1
:10347000FF4F8081882309F4BCCFF2018081811144
:103480000EC0D2018C918111B4CFD1016C9181E039
:103490006827CE010E949B0D8111ABCF06C060E072
:1034A000CE010E949B0D8111ECCFF801C080D1802C
:1034B000E280F380D3010D911D912D913C91F50196
:1034C0004081518162817381D101EC91CE0181589B
:1034D0009F4F2C01E1112AC08CA89DA8AEA8BFA8BF
:1034E000FE01E05CFF4F83818F9382818F93818106
:1034F0008F93E081EF93EFA5EF93EEA5EF93EDA50A
:10350000EF93ECA5EF93CE016FDDB0E0A0E0F20108
:1035100080839183A283B3832DB73EB7285F3F4F4B
:103520000FB6F8943EBF0FBE2DBF29C088AC99AC32
:10353000AAACBBACFE01EC5BFF4F83818F93828111
:103540008F9381818F93E081EF93EBA9EF93EAA9A9
:10355000EF93E9A9EF93E8A9EF93CE0145DDB0E041
:10356000A0E0F20180839183A283B3832DB73EB79D
:10357000285F3F4F0FB6F8943EBF0FBE2DBF60E0EF
:10358000CE010E949B0D882331F0D3011D921D9224
:103590001D921C921397DF91CF911F910F91FF9075
:1035A000EF90DF90CF90BF90AF909F908F907F90E3
:1035B0006F905F904F903F902F900895CF93DF933F
:1035C000EC018DEC93E007DD6AA17BA18CA19DA1AC
:1035D000D5DC8EE298E0DF91CF91FDCC0F931F9365
:1035E000CF93DF938C01EB018AE793E0F4DC8EE567
:1035F00096E0F1DCF80184810E94A308CE01E6DCAC
:103600000FDBDF91CF911F910F91D8CFEF92FF92F7
:103610000F931F93CF93DF93182F092F7B01611511
:10362000710569F50E945D0931E020E0019709F01C
:1036300030E0C32FD22F82E0E816F10408F045C035
:1036400080ED93E0C8DC8EE596E0C5DC84ED93E088
:10365000C2DC812F902FBADC8EE596E0BCDC8FE5D2
:1036600098E0B9DCCE01B2DCDBDAA8DF90E080E0E4
:10367000DF91CF911F910F91FF90EF900895D0E0CF
:10368000C0E061307105B9F6812F163310F08AEC75
:10369000810F20917B00982F9870277F922B909319
:1036A0007B008770806480937C0080917A008064C6
:1036B00080937A0080917A0086FDFCCF809178001B
:1036C000C0917900DC2FC82FB6CF81E090E0D0CF39
:1036D0000F931F93CF93DF93FC012081318121153C
:1036E0003105C1F1EC01822F0E945D0921E0892B97
:1036F00009F420E02B876A85261701F11E821F82BC
:10370000188619860E811F81288539858A819B81BB
:10371000AC81BD81081719072A073B07DCF081E05F
:10372000682788810E94850965DB70E060E08881F8
:103730009981DF91CF911F910F9168CF8E819F81E9
:10374000A885B9850196A11DB11D8E839F83A88789
:10375000B987D8CFDF91CF911F910F910895CF9363
:10376000DF93EB0147DB6AA97BA98E8D9F8D4EDF2E
:1037700090E080E0DF91CF910895CF93DF93EC014B
:1037800086ED93E028DC8AED93E025DC8C8D24DC4B
:103790008EED93E020DC8D8D1FDC82EE93E01BDC50
:1037A0008E8D1ADC86EE93E016DC8F8D15DC8AEEAA
:1037B00093E011DC88A110DC8EEE93E00CDC89A193
:1037C0000BDCCE01DF91CF91F9CE2ADAD6CF82EF92
:1037D00093E001DC25DA6BDA23DACFDF0BDB70E074
:1037E00060E088E090E012DF05DB70E060E089E0F7
:1037F00090E00CDFFFDA70E060E08AE090E006DF46
:10380000F9DA70E060E08DE090E000DF90E080E0C9
:103810000895CF92DF92EF92FF92CF93DF93EB0167
:10382000CB010E94D101882351F1FE01EE0FFF1F51
:10383000EE0FFF1FE857F64FC080D180E280F38083
:1038400089EF93E0C8DB8EE596E0C5DB84ED93E07D
:10385000C2DBCE01BBDB8EE596E0BDDB8FE598E0F9
:10386000BADBC701B6018ADBDBD9A8DE90E080E0D5
:10387000DF91CF91FF90EF90DF90CF9008958DEF83
:1038800093E0A9DBF3CF0F931F93CF93DF938C01CA
:10389000D0E0C0E0CE010E94D101882319F0BE0122
:1038A000C801B7DF2196C13ED105A1F7DF91CF91C5
:1038B0001F910F9108958FE194E08DDB8AE292E0F1
:1038C0008ADB8AE092E087DB84E294E084DBA8D99B
:1038D00075DE90E080E008954F925F926F927F9244
:1038E0008F929F92AF92BF92CF92DF92EF92FF9210
:1038F0000F931F93CF936B017C01742EAC019B013E
:103900000E947962882391F08EE294E0CF911F911A
:103910000F91FF90EF90DF90CF90BF90AF909F906E
:103920008F907F906F905F904F90D8CA460157015B
:10393000E894B7F82FEF3FEF4FE75FE7C501B40119
:103940000E94796281110DC02FEF3FEF4FE75FE7D3
:10395000C501B4010E94E85F18161CF482E394E0EC
:10396000D5CF2FEF3FEF4FE75FE4C701B6010E94CD
:10397000756218161CF486E394E0C8CF2FEF3FEF72
:103980004FE75FECC701B6010E94E85F87FDF3CF08
:1039900020E030E0A901C701B6010E94E85F10E015
:1039A00000E087FF08C08DE20E94A3088C01F7FAAF
:1039B000F094F7F8F094C0E060E070E080E09FE3FE
:1039C0007C1641F020E030E040E251E40E94DC61EE
:1039D000CF5FF6CFA70196010E9478612B013C01D1
:1039E0000E9449624B015C014AE085DA7C01E00EED
:1039F000F11ECC23A9F1C501B4010E94EC5F9B012B
:103A0000AC01C301B2010E9477614B015C018EE2FF
:103A10000E94A308E80EF91EC15010F120E030E02A
:103A200040E251E4C501B4010E944D602B013C010C
:103A30000E9449624B01B12CA12C4AE0C501B4019E
:103A40005ADAE80EF91EC501B4010E94EC5F9B0131
:103A5000AC01C301B2010E9477614B015C01DCCF74
:103A6000C701CF911F910F91FF90EF90DF90CF9002
:103A7000BF90AF909F908F907F906F905F904F908E
:103A80000895CF92DF92EF92FF92CF93DF93EC01F4
:103A900088819981AA81BB81181619061A061B060E
:103AA00044F081E090E0A0E0B0E088839983AA83AD
:103AB000BB838C819D81AE81BF81181619061A06C1
:103AC0001B0644F081E090E0A0E0B0E08C839D8391
:103AD000AE83BF8388859985AA85BB85181619068C
:103AE0001A061B0644F081E090E0A0E0B0E0888771
:103AF0009987AA87BB878AE394E06DDA8FE494E024
:103B00006ADA6E857F85888999890E94EE5F6B01EC
:103B10007C01688179818A819B810E94EE5F9B0193
:103B2000AC01C701B6010E94DC6142E0D5DE8FE541
:103B300094E051DA6A897B898C899D890E94EE5FC5
:103B40006B017C016C817D818E819F810E94EE5F83
:103B50009B01AC01C701B6010E94DC6142E0BCDE02
:103B60008FE694E038DA6E897F89888D998D0E947E
:103B7000EE5F6B017C01688579858A859B850E9453
:103B8000EE5F9B01AC01C701B6010E94DC6142E01F
:103B9000A3DECE01DF91CF91FF90EF90DF90CF9029
:103BA0000DCD3ED86EDF90E080E008958F929F9219
:103BB000AF92BF92CF92DF92EF92FF920F931F933B
:103BC000CF93DF93EC018AE392E005DA8FE494E08F
:103BD00002DA6E018AE0C81A8EEFD80AC6010E9486
:103BE00049110E94EE5F4B015C01FE01E95CFC4F54
:103BF00060817181828193810E94EE5F9B01AC01A3
:103C0000C501B4010E94DC6142E066DE8FE594E00C
:103C1000E2D97E01EAEDEE1AEDEFFE0AC7010E943D
:103C200049110E94EE5F4B015C01FE01E55CFC4F17
:103C300060817181828193810E94EE5F9B01AC0162
:103C4000C501B4010E94DC6142E046DE8FE694E0EB
:103C5000C2D98E010A5A1D4FC8010E9449110E9403
:103C6000EE5F4B015C01C15CDC4F688179818A8128
:103C70009B810E94EE5F9B01AC01C501B4010E94D3
:103C8000DC6142E029DE0E94101698DC86E392E0B7
:103C9000A2D98FE494E09FD9F601A68DB78D208933
:103CA0003189428953890E94406168D98FE594E047
:103CB00092D9F701A68DB78D208931894289538920
:103CC0000E9440615BD98FE694E085D9F801A68D0A
:103CD000B78D20893189428953890E9440614ED92C
:103CE0000E941016DF91CF911F910F91FF90EF90DE
:103CF000DF90CF90BF90AF909F908F905FCCCF928E
:103D0000DF92EF92FF920F931F93CF93DF938C017B
:103D10006A017B01EC01CC0FDD1F642FCE010E94F4
:103D20000C619927F7FC9A958F2D7E2D6D2DCE0174
:103D300001960E940C610D5811090330110588F499
:103D4000B701992777FD9095892FCE0144960E945F
:103D50000C616F2D772788279927CE0145960E9401
:103D60000C6190E080E0DF91CF911F910F91FF9067
:103D7000EF90DF90CF9008954F925F926F927F9275
:103D80008F929F92AF92BF92CF92DF92EF92FF926B
:103D90000F931F93CF93DF938C01EC01CC0FDD1FAA
:103DA000CE010E940461882E912CB12CA12CCE0151
:103DB00001960E940461C82ED12CF12CE12C0D58E3
:103DC00011090330110508F05AC0CE0144960E9433
:103DD0000461482E512C712C612CCE0145960E9415
:103DE0000461082F10E030E020E08FEF4816510406
:103DF0006104710429F50F3F11052105310501F515
:103E00008FEF88169104A104B104C9F58FEFC8168D
:103E1000D104E104F10499F56FEF7FEFCB01DF915D
:103E2000CF911F910F91FF90EF90DF90CF90BF90B7
:103E3000AF909F908F907F906F905F904F9008957C
:103E400000381105210531053CF7FE2CED2CDC2C4A
:103E5000CC24C701B601680D791D8A1D9B1D320156
:103E600055244424640D751D861D971D302F22276F
:103E700011270027600F711F821F931FD0CF00E012
:103E800010E09801412C512C320180E8C816D10471
:103E9000E104F104D4F2C0CFEF92FF920F931F938D
:103EA000CF93DF938091690890916A08892B51F52F
:103EB00086E090E00E946F5A7C0190E080E05CDF39
:103EC0001616170654F1C7010E940610D0E0C0E094
:103ED000CE010E94D101882369F0FE01EE0FFF1F81
:103EE000EE0FFF1FE857F64F4081518162817381C9
:103EF000CE0105DF2196C639D10551F7F0926A0847
:103F0000E09269088091690890916A08DF91CF91E9
:103F10001F910F91FF90EF90089583E090E02CDFC8
:103F2000613071058105910531F508E819E0D0E0AF
:103F3000C0E0CE010E94D1018823B1F0CE011CDF88
:103F4000F80160837183828393836F3F7F4F8F4F2C
:103F50009F4F51F4CE010E945F02F80140815181D0
:103F600062817381CE01CBDE21960C5F1F4FC13E73
:103F7000D105F9F6C3CFC7010E940610BFCF8CDF71
:103F800082DC8EE394E027D80E94101617DB90E0C5
:103F900080E00895CF92DF92EF92FF920F931F93EC
:103FA000CF93DF937C016B018A01E90175DFF60194
:103FB000EE0FFF1FEE0FFF1FE857F64F8081918134
:103FC000F7019183808368DF000F111F000F111F1D
:103FD000F801E857F64F81E0408151816281738199
:103FE000413051056105710509F080E0F7018287D4
:103FF00053DFCC0FDD1FCC0FDD1FC857D64F888194
:104000009981AA81BB81F70182839383A483B583BD
:104010001682178210861186DF91CF911F910F9122
:10402000FF90EF90DF90CF900895CF93DF93EC0156
:104030002AEC30E04BEC50E069EC70E0ABDF2EECAA
:1040400030E04FEC50E06DEC70E0CE010C96A2DF5A
:1040500024ED30E045ED50E063ED70E0CE01489690
:1040600099DF28ED30E049ED50E067ED70E0CE01DA
:10407000849690DF2EED30E04FED50E06DED70E076
:10408000CE01C096DF91CF9185CFCF93DF93809102
:104090006D0890916E08892BA1F48CE390E00E944A
:1040A0006F5AEC01198218821D861C86198E188E93
:1040B0001DA21CA219AA18AAB8DFD0936E08C0933B
:1040C0006D0880916D0890916E08DF91CF910895F1
:1040D0002F923F924F925F926F927F928F929F9218
:1040E000AF92BF92CF92DF92EF92FF920F931F9306
:1040F000CF93DF93EC01D0DEFE01E359FC4F8091BA
:10410000440B9091450B91838083C6DEFE01E159FB
:10411000FC4F8091480B9091490B91838083BCDECA
:10412000FE01EF58FC4F80914C0B90914D0B918309
:104130008083B2DE8E010D581C4F60916C0B709124
:104140006D0B80916E0B90916F0B0E94EE5FF801EA
:1041500060837183828393839FDE1E01F9E82F1AA7
:10416000FCEF3F0A6091700B7091710B8091720BA4
:104170009091730B0E94EE5FF101608371838283E3
:1041800093838ADE20E030E048EC52E4F80160815D
:104190007181828193810E94DC612B013C0120E0CE
:1041A00030E048EC52E4F1016081718182819381B9
:1041B0000E94DC614B015C016091740B7091750B86
:1041C0008091760B9091770B0E94EE5F20E030E0BB
:1041D00048EC52E40E94DC616B017C012AE037ED7F
:1041E00043E25CE3C301B2010E94756218160CF051
:1041F0002BC120E030E046EC52E4C301B2010E9442
:10420000E85F87FD06C0412C512C56EC652E52E428
:10421000752EF80140825182628273822AE037ED66
:1042200043E25CE3C501B4010E94756218160CF00C
:1042300014C120E030E046EC52E4C501B4010E9414
:10424000E85F87FD06C0812C912C36ECA32E32E46A
:10425000B32EF10180829182A282B3822AE037EDEF
:1042600043E25CE3C701B6010E94756218160CF0C8
:10427000FDC020E030E046EC52E4C701B6010E94E8
:10428000E85F87FD06C0C12CD12C96ECE92E92E4A4
:10429000F92EFE01E558FC4FC082D182E282F38202
:1042A000FBDD80912C0B90912D0BFE01EE57FC4F06
:1042B00091838083F1DD8091300B9091310BFE0171
:1042C000EC57FC4F91838083E7DD8091340B909114
:1042D000350BFE01EA57FC4F91838083DDDD809131
:1042E000540B9091550BA091560BB091570BFE01BA
:1042F000E857FC4F80839183A283B383CDDD809107
:10430000580B9091590BA0915A0BB0915B0BFE0189
:10431000E457FC4F80839183A283B383BDDD8091FA
:104320005C0B90915D0BA0915E0BB0915F0BFE0159
:10433000E057FC4F80839183A283B383ADDD8091EE
:104340007C0B90917D0BFE01EC56FC4F918380839A
:10435000A3DD8091800B9091810BFE01EA56FC4F0A
:104360009183808399DD8091840B9091850BFE0170
:10437000E856FC4F918380838FDD8091940B909160
:10438000950BFE01E656FC4F9183808385DD80917D
:10439000980B9091990BFE01E456FC4F918380831A
:1043A0007BDD80919C0B90919D0BFE01E256FC4FB2
:1043B0009183808371DD80911C0B90911D0BA091E6
:1043C0001E0BB0911F0BFE01E158FC4F0197A10598
:1043D000B10509F054C081E080835EDD8091200B3F
:1043E0009091210BA091220BB091230BFE01E0587C
:1043F000FC4F0197A105B10509F043C081E080831E
:104400004BDD8091240B9091250BA091260BB09150
:10441000270BCF57DC4F0197A105B105A1F581E02E
:104420008883DF91CF911F910F91FF90EF90DF90E4
:10443000CF90BF90AF909F908F907F906F905F9044
:104440004F903F902F9008954AE0442E47ED542E10
:1044500043E2642E4CE3742EDCCE2AE0822E27ED5C
:10446000922E23E2A22E2CE3B22EF3CE8AE0C82EA7
:1044700087EDD82E83E2E82E8CE3F82E0ACF108247
:10448000ACCF1082BDCF1882CCCF2F923F924F92EB
:104490005F926F927F928F929F92AF92BF92CF92D4
:1044A000DF92EF92FF920F931F93CF93DF93CDB7DD
:1044B000DEB76F970FB6F894DEBF0FBECDBF9B8FF0
:1044C0008A8FEADCEA8DFB8DEF55FD4F81E040914C
:1044D000540A5091550A6091560A7091570A452B1B
:1044E000462B472B09F480E08083D6DCEA8DFB8DD8
:1044F000EE55FD4F81E04091580A5091590A609164
:104500005A0A70915B0A452B462B472B09F480E031
:104510008083C2DCEA8DFB8DED55FD4F81E040913B
:104520005C0A50915D0A60915E0A70915F0A452BAA
:10453000462B472B09F480E08083AEDC8091A40AEF
:104540009091A50AA091A60AB091A70AEA8DFB8DC9
:10455000EC55FD4F80839183A283B3839DDC8091D2
:10456000A80A9091A90AA091AA0AB091AB0AEA8D73
:10457000FB8DE855FD4F80839183A283B3838CDC50
:104580008091AC0A9091AD0AA091AE0AB091AF0AA9
:10459000EA8DFB8DE455FD4F80839183A283B38325
:1045A0007BDC8091A40A9091A50AA091A60AB09103
:1045B000A70AEA8DFB8DE055FD4F80839183A2838E
:1045C000B3836ADC8091A80A9091A90AA091AA0AF3
:1045D000B091AB0AEA8DFB8DEC54FD4F8083918343
:1045E000A283B38359DC8091B00A9091B10AA09163
:1045F000B20AB091B30AEA8DFB8DE854FD4F808377
:104600009183A283B38348DC80917C0A90917D0AD8
:10461000A0917E0AB0917F0AEA8DFB8DE853FD4F91
:1046200080839183A283B38337DC8091800A909149
:10463000810AA091820AB091830AEA8DFB8DE4532E
:10464000FD4F80839183A283B38326DC8091840A0B
:104650009091850AA091860AB091870AEA8DFB8D18
:10466000E053FD4F80839183A283B38315DC809157
:104670007C0A90917D0AA0917E0AB0917F0AEA8D12
:10468000FB8DEC52FD4F80839183A283B38304DCC6
:104690008091800A9091810AA091820AB091830A48
:1046A000EA8DFB8DE852FD4F80839183A283B38313
:1046B000F3DB8091880A9091890AA0918A0AB091CF
:1046C0008B0AEA8DFB8DE452FD4F80839183A28398
:1046D000B383E2DB80918C0A90918D0AA0918E0ABF
:1046E000B0918F0AEA8DFB8DE052FD4F808391835C
:1046F000A283B383D1DB8091900A9091910AA0911B
:10470000920AB091930AEA8DFB8DEC51FD4F8083A4
:104710009183A283B383C0DB8091940A9091950A20
:10472000A091960AB091970AEA8DFB8DE851FD4F52
:1047300080839183A283B383AFDB80912C0A909115
:104740002D0AA0912E0AB0912F0AEA8DFB8DE4511B
:10475000FD4F80839183A283B3839EDB8091300AD7
:104760009091310AA091320AB091330AEA8DFB8D03
:10477000E051FD4F80839183A283B3838DDB8091D1
:10478000340A9091350AA091360AB091370AEA8D21
:10479000FB8DEC50FD4F80839183A283B3837CDB40
:1047A00080912C0A90912D0AA0912E0AB0912F0A87
:1047B000EA8DFB8DE850FD4F80839183A283B38304
:1047C0006BDB8091300A9091310AA091320AB0914E
:1047D000330AEA8DFB8DE450FD4F80839183A283E1
:1047E000B3835ADB8091380A9091390AA0913A0A32
:1047F000B0913B0AEA8DFB8DFD5F80839183A2839C
:10480000B3834ADBEA8DFB8DEC5FFC4F81E02091A6
:10481000040A3091050A2130310509F080E08083D7
:104820003BDBEA8DFB8DEB5FFC4F81E02091080ABA
:104830003091090A2130310509F080E080832CDBBA
:10484000EA8DFB8DEA5FFC4F81E020910C0A3091EC
:104850000D0A2130310509F080E080831DDBEA8DEF
:10486000FB8DEE5DFC4F81E04091DC095091DD094C
:104870006091DE097091DF09452B462B472B09F427
:1048800080E0808309DBEA8DFB8DED5DFC4F81E0EC
:104890004091E0095091E1096091E2097091E309CA
:1048A000452B462B472B09F480E08083F5DAEA8D0F
:1048B000FB8DEC5DFC4F81E04091E4095091E509EE
:1048C0006091E6097091E709452B462B472B09F4C7
:1048D00080E08083E1DAEA8DFB8DEB5DFC4F81E0C7
:1048E0004091B40A5091B50A6091B60A7091B70A26
:1048F000452B462B472B09F480E08083CDDAEA8DE7
:10490000FB8DEA5DFC4F81E04091B80A5091B90AF5
:104910006091BA0A7091BB0A452B462B472B09F4CC
:1049200080E08083B9DAEA8DFB8DE95DFC4F81E0A0
:104930004091BC0A5091BD0A6091BE0A7091BF0AB5
:10494000452B462B472B09F480E08083A5DAEA8DBE
:10495000FB8DE85DFC4F81E02091EC093091ED0981
:104960002130310509F080E0808396DAEA8DFB8DF5
:10497000E75DFC4F81E02091F0093091F109213091
:10498000310509F080E0808387DAEA8DFB8DE65DF2
:10499000FC4F81E02091F4093091F5092130310577
:1049A00009F080E0808378DA8091B4099091B509AC
:1049B000A091B609B091B709EA8DFB8DE55DFC4F7A
:1049C00080839183A283B38367DA8091B809909141
:1049D000B909A091BA09B091BB09EA8DFB8DE15DDF
:1049E000FC4F80839183A283B38356DA8091BC0904
:1049F0009091BD09A091BE09B091BF09EA8DFB8DD0
:104A0000ED5CFC4F80839183A283B38345DAEA8D0A
:104A1000FB8DEA5EFC4F81E04091C4095091C509CD
:104A20006091C6097091C709452B462B472B09F4A5
:104A300080E0808331DAEA8DFB8DE95EFC4F81E016
:104A40004091C8095091C9096091CA097091CB0978
:104A5000452B462B472B09F480E080831DDAEA8D35
:104A6000FB8DE85EFC4F81E04091CC095091CD096F
:104A70006091CE097091CF09452B462B472B09F445
:104A800080E0808309DA8091BC0B9091BD0BA091EE
:104A9000BE0BB091BF0BEA8DFB8DE95FFC4F8083AD
:104AA0009183A283B383F8D98091C00B9091C10BFD
:104AB000A091C20BB091C30BEA8DFB8DE55FFC4F5B
:104AC00080839183A283B383E7D98091C40B9091B3
:104AD000C50BA091C60BB091C70BEA8DFB8DE15FB2
:104AE000FC4F80839183A283B383D6D9EA8DFB8D5B
:104AF000E75EFC4F81E020911C0A30911D0A2130B5
:104B0000310509F080E08083EA8DFB8DE65EFC4F85
:104B10001082EA8DFB8DE55EFC4F1082BDD9EA8DD7
:104B2000FB8DE45EFC4F81E02091180A3091190A58
:104B30002130310509F080E08083EA8DFB8DE35E52
:104B4000FC4F1082EA8DFB8DE25EFC4F1082A4D9EF
:104B5000EA8DFB8DE15EFC4F81E020913C0A3091B3
:104B60003D0A2130310509F080E0808395D9EA8D36
:104B7000FB8DE05EFC4F81E02091400A3091410ABC
:104B80002130310509F080E0808386D9EA8DFB8DE4
:104B9000EF5DFC4F81E02091440A3091450A2130BD
:104BA000310509F080E0808377D9EA8DFB8DED5ED9
:104BB000FC4F81E02091CC0B3091CD0B21303105A1
:104BC00009F080E0808368D9EA8DFB8DEC5EFC4FB4
:104BD00081E02091D00B3091D10B2130310509F0CB
:104BE00080E0808359D9EA8DFB8DEB5EFC4F81E03C
:104BF0002091D40B3091D50B2130310509F080E0A4
:104C000080834AD90A8D1B8D095C1C4F8091640AF0
:104C10009091650AA091660AB091670AF8018083B5
:104C20009183A283B38338D9EA8CFB8CF5ECEF1A1D
:104C3000FCEFFF0A8091680A9091690AA0916A0AC4
:104C4000B0916B0AF70180839183A283B38324D947
:104C500080916C0A90916D0AA0916E0AB0916F0AD2
:104C6000CA8CDB8CF1ECCF1AFCEFDF0AF6018083F3
:104C70009183A283B383F801408151816281738162
:104C8000141615061606170644F041E050E060E0E1
:104C900070E04083518362837383F70140815181C7
:104CA00062817381141615061606170644F041E05A
:104CB00050E060E070E04083518362837383181694
:104CC00019061A061B064CF081E090E0A0E0B0E067
:104CD000F60180839183A283B3830E941016FC01A6
:104CE000D6018D909D90AD90BC90D7014D915D9176
:104CF0006D917C91D8010D911D912D913C91008376
:104D0000118322833383448355836683778380862C
:104D10009186A286B386EA8DFB8D7096FA83E9832D
:104D2000EA8DFB8DED5EFC4F80808B82EA8DFB8DE2
:104D3000E95FFC4F4080518062807380EA8DFB8D7B
:104D4000E15EFC4F90809A86EA8DFB8DE85DFC4F1A
:104D5000A080AC82EA8DFB8DE75EFC4FB080BD8207
:104D6000EA8DFB8DE45EFC4F20812E83EA8DFB8D66
:104D7000EB5DFC4F80818E87EA8DFB8DEE5DFC4FF5
:104D800090819A8BEA8DFB8DEC5FFC4F2080EA8D41
:104D9000FB8DEF55FD4F3080EA8DFB8DE55DFC4FBF
:104DA00080809180A280B380EA8DFB8DE451FD4F1D
:104DB00080819181A281B381EA8DFB8DE052FD4F0C
:104DC000C080D180E280F380EA8DFB8DE853FD4FF7
:104DD0004081518162817381EA8DFB8DEC55FD4FDD
:104DE0000081118122813381EA8DFB8D04AF15AFE3
:104DF00026AF37AFEC5BFF4F4083518362837383F1
:104E0000EA8DFB8DE05BFF4F80839183A283B383A8
:104E1000EA8DFB8DE05CFF4F008311832283338397
:104E2000EA8DFB8DE85BFF4F408351836283738380
:104E3000EA8DFB8DEC5AFF4F80839183A283B3836D
:104E4000EA8DFB8DE45BFF4FC082D182E282F38268
:104E5000EA8DFB8DE85AFF4F80829182A282B38255
:104E6000EA8DFB8DE45AFF4F3082EA8DFB8DE35AC9
:104E7000FF4F2082EA89AA8DBB8DD996EC93D997F2
:104E8000FE85DA96FC93DA978C80DB968C9280E430
:104E900090E0A0E0B0E0EA8DFB8DE05AFF4F808308
:104EA0009183A283B383EA8DFB8DE25AFF4F9E80EC
:104EB0009082EA8DFB8DE15AFF4FAD80A082EA8D92
:104EC000FB8DEC59FF4FBA84B082EA8DFB8DEB5914
:104ED000FF4F4082518262827382EA8DFB8DE759D7
:104EE000FF4F2B812083AA8DBB8D99968D919C912C
:104EF0009A978633910509F0E6C289E69CE0FD01A8
:104F0000EE55FF4F9183808332961182108287E69F
:104F10009CE0369691838083329611821082EA8DCE
:104F2000FB8D87A590A94A97D1F485E69CE0EA55C8
:104F3000FF4F91838083EA8DFB8DE855FF4F1182EF
:104F4000108283E69CE0EA8DFB8DE255FF4F918352
:104F50008083EA8DFB8DE055FF4F118210820A8D10
:104F60001B8D0E541F4FEA8DFB8DEC5EFC4F808035
:104F70008B82EA8DFB8DE55FFC4F80819181A28160
:104F8000B3818A879B87AC87BD87EA8DFB8DE05E06
:104F9000FC4F90819C83EA8DFB8DE75DFC4FA081E7
:104FA000AD83EA8DFB8DE65EFC4FB081BE83EA8D5A
:104FB000FB8DE35EFC4F80808E86EA8DFB8DEA5D83
:104FC000FC4F2080EA8DFB8DED5DFC4F3080EA8D3B
:104FD000FB8DEB5FFC4F3081EA8DFB8DEE55FD4F75
:104FE0002081EA8DFB8DE15DFC4F40815181628122
:104FF0007381EA8DFB8DE051FD4F80819181A2810B
:10500000B381EA8DFB8DEC51FD4FC080D180E280F1
:10501000F380EA8DFB8DE453FD4F80809180A28068
:10502000B380EA8DFB8DE855FD4F40805180628052
:105030007380F80144A655A666A677A684AA95AA09
:10504000A6AAB7AAEA8DFB8DEE50FF4F808391830D
:10505000A283B383F80140AA51AA62AA73AA80AEC0
:1050600091AEA2AEB3AEEA8DFB8DEA50FF4F8083C6
:105070009183A283B383D801DC96CD92DD92ED9229
:10508000FC92DF97EA8DFB8DE650FF4F4083518302
:1050900062837383EA8DFB8DE250FF4F2083EA8D9C
:1050A000FB8DE150FF4F308399963C9299979A96E9
:1050B0002C929A97ED819B96EC9380E490E0A0E08F
:1050C000B0E0EA8DFB8DEE5FFE4F80839183A2837B
:1050D000B383EA8DFB8DF3958E848082EA8DFB8D00
:1050E000EF5FFE4F9E809082EA8DFB8DEA5FFE4F60
:1050F000AC80A082EA8DFB8DE95FFE4F8A859B859F
:10510000AC85BD8580839183A283B383EA8DFB8DBB
:10511000E55FFE4F9B819083D80159968D919C91BC
:105120008633910509F001C289E69CE0EA8DFB8D8A
:10513000EC5BFE4F91838083EA8DFB8DEA5BFE4F33
:105140001182108287E69CE0EA8DFB8DE45BFE4FC6
:1051500091838083EA8DFB8DE25BFE4F118210828A
:10516000F801878D90A14A97E1F485E69CE0EA8DED
:10517000FB8DE85BFE4F91838083EA8DFB8DE65BC0
:10518000FE4F1182108283E69CE0EA8DFB8DE05B8E
:10519000FE4F91838083EA8DFB8DEE5AFE4F118284
:1051A0001082EA8CFB8CFCEAEF1AFEEFFF0AEA8D14
:1051B000FB8DEB5EFC4F80808B82EA8DFB8DE15F87
:1051C000FC4F80819181A281B3818A879B87AC87C4
:1051D000BD87EA8DFB8DEF5DFC4F90819C83EA8D4E
:1051E000FB8DE65DFC4F3080EA8DFB8DE55EFC4F6C
:1051F000A081AD83EA8DFB8DE25EFC4F2080EA8DBD
:10520000FB8DE95DFC4FC080EA8DFB8DEC5DFC4FB2
:10521000D080EA8DFB8DEA5FFC4F3081EA8DFB8DFB
:10522000ED55FD4F2081EA8DFB8DED5CFC4F8080BC
:105230009180A280B3808E829F82A886B986EA8DF3
:10524000FB8DFD5F80819181A281B3818E879F87D5
:10525000A88BB98BEA8DFB8DEC50FD4F808091803F
:10526000A280B3808C8E9D8EAE8EBF8EEA8DFB8D1C
:10527000E851FD4F80819181A281B3818A8B9B8B04
:10528000AC8BBD8BEA8DFB8DE452FD4F808191810B
:10529000A281B381EA8DFB8DE053FD4F40805180A8
:1052A00062807380EA8DFB8DE854FD4F408151810F
:1052B00062817381EA8DFB8DE455FD4F8080918082
:1052C000A280B380F70184A695A6A6A6B7A644AA95
:1052D00055AA66AA77AAEA8DFB8DEC56FE4F8C8CF8
:1052E0009D8CAE8CBF8C80829182A282B382F701AA
:1052F00040AB51AB62AB73AB80AF91AFA2AFB3AF7A
:10530000EA8DFB8DE856FE4F8E849F84A888B9886D
:1053100080829182A282B3828A899B89AC89BD896D
:10532000F70184AF95AFA6AFB7AFEA8DFB8DE4561A
:10533000FE4F8E809F80A884B98480829182A28251
:10534000B382EA8DFB8DE056FE4F2083EA8DFB8D04
:10535000EF55FE4F3083D7019996DC9299979A9634
:10536000CC929A979B963C9280E490E0A0E0B0E0CB
:10537000EA8DFB8DEC55FE4F80839183A283B3832E
:10538000EA8DFB8DEE55FE4F2082EA8DFB8DED55AB
:10539000FE4FBD81B083EA8DFB8DE855FE4F8C80BA
:1053A0008082EA8DFB8DE755FE4F8A859B85AC8513
:1053B000BD8580839183A283B383EA8DFB8DE35502
:1053C000FE4F9B819083D70159968D919C91863396
:1053D000910509F0D2C089E69CE0EA8DFB8DEA5187
:1053E000FE4F91838083EA8DFB8DE851FE4F118241
:1053F000108287E69CE0EA8DFB8DE251FE4F91839F
:105400008083EA8DFB8DE051FE4F11821082F701FF
:10541000878D90A14A97E1F485E69CE0EA8DFB8DAB
:10542000E651FE4F91838083EA8DFB8DE451FE4F60
:105430001182108283E69CE0EA8DFB8DEE50FE4FD8
:1054400091838083EA8DFB8DEC50FE4F1182108298
:10545000EA8DFB8DEA5EFC4F8081882309F4B5C09C
:1054600089819A810E94030DEA8DFB8DE95EFC4FD4
:105470008081882309F4AEC0C8010E94030D8A8D83
:105480009B8D885E9C4FDC018C91882309F4A6C01B
:10549000C7016F960FB6F894DEBF0FBECDBFDF9188
:1054A000CF911F910F91FF90EF90DF90CF90BF9021
:1054B000AF909F908F907F906F905F904F903F90B4
:1054C0002F900C94030D8C339105D9F481E69CE068
:1054D000EA8DFB8DEE55FF4F91838083EA8DFB8D26
:1054E000EC55FF4F118210828FE59CE0EA8DFB8D19
:1054F000E655FF4F91838083EA8DFB8DE455FF4F86
:105500000CCD8E9709F00BCD89E59CE0EA8DFB8DE3
:10551000EE55FF4F91838083EA8DFB8DEC55FF4F55
:105520001182108283E59CE0E1CF8C33910589F4F0
:1055300081E69CE0EA8DFB8DEC5BFE4F91838083DE
:10554000EA8DFB8DEA5BFE4F118210828FE59CE0B5
:10555000FBCD8E9709F004CE89E59CE0EA8DFB8DAA
:10556000EC5BFE4F91838083EA8DFB8DEA5BFE4FFF
:105570001182108283E59CE0E7CD8C33910589F49C
:1055800081E69CE0EA8DFB8DEA51FE4F918380839A
:10559000EA8DFB8DE851FE4F118210828FE59CE071
:1055A0002ACF8E9709F033CF89E59CE0EA8DFB8DF9
:1055B000EA51FE4F91838083EA8DFB8DE851FE4FC7
:1055C0001182108283E59CE016CF89819A810E9426
:1055D000EE0C4ACFC8010E94EE0C51CFC7016F9666
:1055E0000FB6F894DEBF0FBECDBFDF91CF911F91F4
:1055F0000F91FF90EF90DF90CF90BF90AF909F9072
:105600008F907F906F905F904F903F902F900C9471
:10561000EE0CAF92BF92CF92DF92EF92FF920F9378
:105620001F93CF93DF93EC018AE190E09AA789A7BB
:105630008BE190E09CA78BA789E190E09EA78DA7C6
:105640008FE090E098AB8FA78EE190E09AAB89ABAA
:105650008EE090E09CAB8BAB85E490E09EAB8DAB95
:1056600084E490E098AF8FABFE01EE54FF4F80E2F0
:1056700090E0928F818F81E290E0948F838F8FE111
:1056800090E0968F858F10A2178E12A211A214A2FD
:1056900013A283E490E096A385A382E490E090A710
:1056A00087A3EE55FF4F83E290E0928F818F84E2D3
:1056B00090E0948F838F82E290E0968F858F10A286
:1056C000178E12A211A214A213A281E490E096A355
:1056D00085A380E490E090A787A3E95BFE4F118249
:1056E0001082329611821082329611821082CE017F
:1056F0000E944522CE010E946820CE018A509E4F12
:1057000041E050E0FC0157A746A7DE01AA5DBD4F6E
:1057100024E030E09F963C932E939E975E01FAEA38
:10572000AF1AFDEFBF0A28E030E0F50137A726A742
:1057300020E130E0FC013183208321E130E035833A
:1057400024832FEF3FEF33832283378326836285C1
:1057500060876385618767E170E011967C936E9343
:1057600068E170E015967C936E93149713963C93C2
:105770002E93129717963C932E9316971A966C9128
:105780001A9718966C9318971B966C911B971996FD
:105790006C9319976DE170E0F501718360836CE1A2
:1057A00070E0758364833383228337832683628525
:1057B000608763856187BE0166567C4FFB0160810F
:1057C00071818E0108571C4FF801C080D180E280A2
:1057D000F38006501109F80100811181FC01158F39
:1057E000048FC48AD58AE68AF78A6130710509F088
:1057F0004EC0378F268FCE0184569C4FFC0180818E
:1058000091819E0124573C4FF90140815181628171
:10581000738128503109F901208131815D963C93D3
:105820002E935C9754964D935D936D937C9357970D
:10583000019781F58FEF9FEF5F969C938E935E9714
:10584000DE01A256BC4F8D919C9111971E974D91F0
:105850005D916D917C91CA57DC4F28813981F501AA
:10586000358F248F448B558B668B778B0197A9F4EA
:105870008FEF9FEF978F868FDF91CF911F910F91C1
:10588000FF90EF90DF90CF90BF90AF900895578F2B
:10589000468FB1CF81E090E0CFCF81E090E0EACFBA
:1058A000EF92FF920F931F93CF93DF93EC010E942F
:1058B0004C1F0091D40A1091D50A0E944C1FE09011
:1058C000E40AF090E50A0E944C1F2091FC0A3091F6
:1058D000FD0A1216130614F021E030E0A701B8010A
:1058E000CE018C5A9E4FDF91CF911F910F91FF9067
:1058F000EF900C945D15EF92FF920F931F93CF934F
:10590000DF93EC010E944C1F0091D00A1091D10A44
:105910000E944C1FE090E00AF090E10A0E944C1FA8
:105920002091F80A3091F90A1216130614F021E0BA
:1059300030E0A701B801CE018E549F4FDF91CF9187
:105940001F910F91FF90EF900C945D15EF92FF92D5
:105950000F931F93CF93DF93EC010E944C1F009194
:10596000CC0A1091CD0A0E944C1FE090DC0AF09006
:10597000DD0A0E944C1F2091F40A3091F50A12169C
:10598000130614F021E030E0A701B801CE014096E3
:10599000DF91CF911F910F91FF90EF900C945D15C7
:1059A0008F929F92AF92BF92CF92DF92EF92FF922F
:1059B000CF93DF937B010E944C1FEC01F70182A083
:1059C00093A0A4A0B5A0C68CD78CE0A0F1A08A813A
:1059D0009B818F30F7E29F070CF043C001969B83B9
:1059E0008A838C819D818F3027E29207ECF59601A6
:1059F0002B7F215531092330310530F096012B558D
:105A000031092330310518F401969D838C83C6013A
:105A10000E94D101882359F1F601EE0FFF1FEE0F0E
:105A2000FF1FE857F64F80829182A282B382B501B0
:105A3000A401C6010E947F1EB601CE010E94091C6E
:105A40000E9445200E94152090E080E0DF91CF91D8
:105A5000FF90EF90DF90CF90BF90AF909F908F908E
:105A600008951B821A82BDCF1D821C82D0CF8DEF7C
:105A700093E00E94EB17E4CFCF93DF93EB010E94FA
:105A80004C1F6E8D7F8D0E94091C90E080E0DF919D
:105A9000CF910895FC0180819181009711F00C94C1
:105AA0000B5B08950C940B5B0C940B5B0C940B5BE1
:105AB0000C940B5B0C940B5B0C940B5B0C940B5BCE
:105AC0000C940B5B0C940B5B0C940B5B0C940B5BBE
:105AD0000C940B5B0C940B5B0C940B5B0C940B5BAE
